{
  "contractName": "MultiSigWallet",
  "abi": [
    {
      "inputs": [
        {
          "internalType": "address[]",
          "name": "owners",
          "type": "address[]"
        },
        {
          "internalType": "uint256",
          "name": "minTxApprovals",
          "type": "uint256"
        }
      ],
      "stateMutability": "nonpayable",
      "type": "constructor"
    },
    {
      "anonymous": false,
      "inputs": [
        {
          "indexed": false,
          "internalType": "uint256",
          "name": "amount",
          "type": "uint256"
        }
      ],
      "name": "DepositReceived",
      "type": "event"
    },
    {
      "anonymous": false,
      "inputs": [
        {
          "indexed": false,
          "internalType": "address",
          "name": "to",
          "type": "address"
        },
        {
          "indexed": false,
          "internalType": "uint256",
          "name": "amount",
          "type": "uint256"
        }
      ],
      "name": "TransferSent",
      "type": "event"
    },
    {
      "anonymous": false,
      "inputs": [
        {
          "indexed": false,
          "internalType": "uint256",
          "name": "id",
          "type": "uint256"
        },
        {
          "indexed": false,
          "internalType": "uint256",
          "name": "approvals",
          "type": "uint256"
        },
        {
          "indexed": false,
          "internalType": "address",
          "name": "lastApprover",
          "type": "address"
        }
      ],
      "name": "TxApprovalGiven",
      "type": "event"
    },
    {
      "anonymous": false,
      "inputs": [
        {
          "indexed": false,
          "internalType": "uint256",
          "name": "id",
          "type": "uint256"
        },
        {
          "indexed": false,
          "internalType": "uint256",
          "name": "amount",
          "type": "uint256"
        },
        {
          "indexed": false,
          "internalType": "address",
          "name": "to",
          "type": "address"
        },
        {
          "indexed": false,
          "internalType": "address",
          "name": "requestor",
          "type": "address"
        },
        {
          "indexed": false,
          "internalType": "string",
          "name": "reason",
          "type": "string"
        }
      ],
      "name": "TxRequestCreated",
      "type": "event"
    },
    {
      "inputs": [],
      "name": "getApprovers",
      "outputs": [
        {
          "internalType": "address[]",
          "name": "approvers",
          "type": "address[]"
        }
      ],
      "stateMutability": "view",
      "type": "function",
      "constant": true
    },
    {
      "inputs": [],
      "name": "getMinApprovals",
      "outputs": [
        {
          "internalType": "uint256",
          "name": "",
          "type": "uint256"
        }
      ],
      "stateMutability": "view",
      "type": "function",
      "constant": true
    },
    {
      "inputs": [],
      "name": "getOwners",
      "outputs": [
        {
          "internalType": "address[]",
          "name": "owners",
          "type": "address[]"
        }
      ],
      "stateMutability": "view",
      "type": "function",
      "constant": true
    },
    {
      "inputs": [],
      "name": "deposit",
      "outputs": [],
      "stateMutability": "payable",
      "type": "function",
      "payable": true
    },
    {
      "inputs": [
        {
          "internalType": "address",
          "name": "toAddress",
          "type": "address"
        },
        {
          "internalType": "string",
          "name": "reason",
          "type": "string"
        },
        {
          "internalType": "uint256",
          "name": "amountWei",
          "type": "uint256"
        }
      ],
      "name": "createTransferRequest",
      "outputs": [
        {
          "internalType": "uint256",
          "name": "txId",
          "type": "uint256"
        }
      ],
      "stateMutability": "nonpayable",
      "type": "function"
    },
    {
      "inputs": [
        {
          "internalType": "uint256",
          "name": "requestId",
          "type": "uint256"
        }
      ],
      "name": "approveTransferRequest",
      "outputs": [],
      "stateMutability": "nonpayable",
      "type": "function"
    },
    {
      "inputs": [
        {
          "internalType": "uint256",
          "name": "requestId",
          "type": "uint256"
        }
      ],
      "name": "cancelTransferRequest",
      "outputs": [],
      "stateMutability": "nonpayable",
      "type": "function"
    },
    {
      "inputs": [
        {
          "internalType": "uint256",
          "name": "id",
          "type": "uint256"
        }
      ],
      "name": "getTransferRequest",
      "outputs": [
        {
          "components": [
            {
              "internalType": "address",
              "name": "requestor",
              "type": "address"
            },
            {
              "internalType": "address",
              "name": "recipient",
              "type": "address"
            },
            {
              "internalType": "string",
              "name": "reason",
              "type": "string"
            },
            {
              "internalType": "uint256",
              "name": "amount",
              "type": "uint256"
            },
            {
              "internalType": "uint256",
              "name": "approvals",
              "type": "uint256"
            },
            {
              "internalType": "uint256",
              "name": "id",
              "type": "uint256"
            }
          ],
          "internalType": "struct MultiSigWallet.TxRequest",
          "name": "transferRequest",
          "type": "tuple"
        }
      ],
      "stateMutability": "view",
      "type": "function",
      "constant": true
    },
    {
      "inputs": [],
      "name": "getWalletBalance",
      "outputs": [
        {
          "internalType": "uint256",
          "name": "balance",
          "type": "uint256"
        }
      ],
      "stateMutability": "view",
      "type": "function",
      "constant": true
    },
    {
      "inputs": [],
      "name": "getWalletCreator",
      "outputs": [
        {
          "internalType": "address",
          "name": "",
          "type": "address"
        }
      ],
      "stateMutability": "view",
      "type": "function",
      "constant": true
    },
    {
      "inputs": [],
      "name": "totalTransferRequests",
      "outputs": [
        {
          "internalType": "uint256",
          "name": "",
          "type": "uint256"
        }
      ],
      "stateMutability": "view",
      "type": "function",
      "constant": true
    }
  ],
  "bytecode": "0x60806040523480156200001157600080fd5b5060405162002b2a38038062002b2a8339818101604052810190620000379190620007e9565b81818360005b81518110156200031e57600073ffffffffffffffffffffffffffffffffffffffff1682828151811062000099577f4e487b7100000000000000000000000000000000000000000000000000000000600052603260045260246000fd5b602002602001015173ffffffffffffffffffffffffffffffffffffffff161415620000fb576040517f08c379a0000000000000000000000000000000000000000000000000000000008152600401620000f29062000928565b60405180910390fd5b6001600083838151811062000139577f4e487b7100000000000000000000000000000000000000000000000000000000600052603260045260246000fd5b602002602001015173ffffffffffffffffffffffffffffffffffffffff1673ffffffffffffffffffffffffffffffffffffffff16815260200190815260200160002060009054906101000a900460ff1615620001cc576040517f08c379a0000000000000000000000000000000000000000000000000000000008152600401620001c39062000906565b60405180910390fd5b600082828151811062000208577f4e487b7100000000000000000000000000000000000000000000000000000000600052603260045260246000fd5b60200260200101519080600181540180825580915050600190039060005260206000200160009091909190916101000a81548173ffffffffffffffffffffffffffffffffffffffff021916908373ffffffffffffffffffffffffffffffffffffffff1602179055506001806000848481518110620002af577f4e487b7100000000000000000000000000000000000000000000000000000000600052603260045260246000fd5b602002602001015173ffffffffffffffffffffffffffffffffffffffff1673ffffffffffffffffffffffffffffffffffffffff16815260200190815260200160002060006101000a81548160ff0219169083151502179055508080620003159062000a8d565b9150506200003d565b508051600080549050146200035c577f4e487b7100000000000000000000000000000000000000000000000000000000600052600160045260246000fd5b508151811115620003a4576040517f08c379a00000000000000000000000000000000000000000000000000000000081526004016200039b906200094a565b60405180910390fd5b60005b82518110156200068957600073ffffffffffffffffffffffffffffffffffffffff1683828151811062000403577f4e487b7100000000000000000000000000000000000000000000000000000000600052603260045260246000fd5b602002602001015173ffffffffffffffffffffffffffffffffffffffff16141562000465576040517f08c379a00000000000000000000000000000000000000000000000000000000081526004016200045c906200096c565b60405180910390fd5b60036000848381518110620004a3577f4e487b7100000000000000000000000000000000000000000000000000000000600052603260045260246000fd5b602002602001015173ffffffffffffffffffffffffffffffffffffffff1673ffffffffffffffffffffffffffffffffffffffff16815260200190815260200160002060009054906101000a900460ff161562000536576040517f08c379a00000000000000000000000000000000000000000000000000000000081526004016200052d906200098e565b60405180910390fd5b600283828151811062000572577f4e487b7100000000000000000000000000000000000000000000000000000000600052603260045260246000fd5b60200260200101519080600181540180825580915050600190039060005260206000200160009091909190916101000a81548173ffffffffffffffffffffffffffffffffffffffff021916908373ffffffffffffffffffffffffffffffffffffffff1602179055506001600360008584815181106200061a577f4e487b7100000000000000000000000000000000000000000000000000000000600052603260045260246000fd5b602002602001015173ffffffffffffffffffffffffffffffffffffffff1673ffffffffffffffffffffffffffffffffffffffff16815260200190815260200160002060006101000a81548160ff0219169083151502179055508080620006809062000a8d565b915050620003a7565b5080600481905550815160028054905014620006ce577f4e487b7100000000000000000000000000000000000000000000000000000000600052600160045260246000fd5b505033600560006101000a81548173ffffffffffffffffffffffffffffffffffffffff021916908373ffffffffffffffffffffffffffffffffffffffff160217905550505062000c4b565b6000620007306200072a84620009d9565b620009b0565b905080838252602082019050828560208602820111156200075057600080fd5b60005b858110156200078457816200076988826200078e565b84526020840193506020830192505060018101905062000753565b5050509392505050565b6000815190506200079f8162000c17565b92915050565b600082601f830112620007b757600080fd5b8151620007c984826020860162000719565b91505092915050565b600081519050620007e38162000c31565b92915050565b60008060408385031215620007fd57600080fd5b600083015167ffffffffffffffff8111156200081857600080fd5b6200082685828601620007a5565b92505060206200083985828601620007d2565b9150509250929050565b60006200085260188362000a08565b91506200085f8262000b4a565b602082019050919050565b60006200087960158362000a08565b9150620008868262000b73565b602082019050919050565b6000620008a0601e8362000a08565b9150620008ad8262000b9c565b602082019050919050565b6000620008c760178362000a08565b9150620008d48262000bc5565b602082019050919050565b6000620008ee601b8362000a08565b9150620008fb8262000bee565b602082019050919050565b60006020820190508181036000830152620009218162000843565b9050919050565b6000602082019050818103600083015262000943816200086a565b9050919050565b60006020820190508181036000830152620009658162000891565b9050919050565b600060208201905081810360008301526200098781620008b8565b9050919050565b60006020820190508181036000830152620009a981620008df565b9050919050565b6000620009bc620009cf565b9050620009ca828262000a57565b919050565b6000604051905090565b600067ffffffffffffffff821115620009f757620009f662000b0a565b5b602082029050602081019050919050565b600082825260208201905092915050565b600062000a268262000a2d565b9050919050565b600073ffffffffffffffffffffffffffffffffffffffff82169050919050565b6000819050919050565b62000a628262000b39565b810181811067ffffffffffffffff8211171562000a845762000a8362000b0a565b5b80604052505050565b600062000a9a8262000a4d565b91507fffffffffffffffffffffffffffffffffffffffffffffffffffffffffffffffff82141562000ad05762000acf62000adb565b5b600182019050919050565b7f4e487b7100000000000000000000000000000000000000000000000000000000600052601160045260246000fd5b7f4e487b7100000000000000000000000000000000000000000000000000000000600052604160045260246000fd5b6000601f19601f8301169050919050565b7f4475706c6963617465206f776e65722061646472657373210000000000000000600082015250565b7f4f776e6572207769746820302061646472657373210000000000000000000000600082015250565b7f4d696e696d756d20617070726f76616c73203e20617070726f76657273210000600082015250565b7f417070726f766572206861732030206164647265737321000000000000000000600082015250565b7f4475706c696361746520617070726f7665722061646472657373210000000000600082015250565b62000c228162000a19565b811462000c2e57600080fd5b50565b62000c3c8162000a4d565b811462000c4857600080fd5b50565b611ecf8062000c5b6000396000f3fe60806040526004361061009c5760003560e01c806382c96dcd1161006457806382c96dcd1461017657806399807e4c146101a1578063a0e67e2b146101de578063c8ce6f3a14610209578063d0e30db014610246578063dec3eea5146102505761009c565b8063329a27e7146100a15780634d3e2490146100cc5780635f89aacb146100f757806365386f29146101205780636cb3e8ef1461014b575b600080fd5b3480156100ad57600080fd5b506100b6610279565b6040516100c39190611978565b60405180910390f35b3480156100d857600080fd5b506100e1610281565b6040516100ee9190611978565b60405180910390f35b34801561010357600080fd5b5061011e60048036038101906101199190611439565b61028b565b005b34801561012c57600080fd5b5061013561040b565b6040516101429190611978565b60405180910390f35b34801561015757600080fd5b50610160610418565b60405161016d91906117d4565b60405180910390f35b34801561018257600080fd5b5061018b6104a6565b6040516101989190611790565b60405180910390f35b3480156101ad57600080fd5b506101c860048036038101906101c39190611439565b6104d0565b6040516101d59190611956565b60405180910390f35b3480156101ea57600080fd5b506101f361068e565b60405161020091906117d4565b60405180910390f35b34801561021557600080fd5b50610230600480360381019061022b91906113d2565b61071c565b60405161023d9190611978565b60405180910390f35b61024e610ade565b005b34801561025c57600080fd5b5061027760048036038101906102729190611439565b610b5a565b005b600047905090565b6000600454905090565b600160003373ffffffffffffffffffffffffffffffffffffffff1673ffffffffffffffffffffffffffffffffffffffff16815260200190815260200160002060009054906101000a900460ff16610317576040517f08c379a000000000000000000000000000000000000000000000000000000000815260040161030e90611896565b60405180910390fd5b600680549050811061035e576040517f08c379a0000000000000000000000000000000000000000000000000000000008152600401610355906118b6565b60405180910390fd5b3373ffffffffffffffffffffffffffffffffffffffff166007600083815260200190815260200160002060009054906101000a900473ffffffffffffffffffffffffffffffffffffffff1673ffffffffffffffffffffffffffffffffffffffff16146103ff576040517f08c379a00000000000000000000000000000000000000000000000000000000081526004016103f690611816565b60405180910390fd5b61040881610f9f565b50565b6000600680549050905090565b6060600280548060200260200160405190810160405280929190818152602001828054801561049c57602002820191906000526020600020905b8160009054906101000a900473ffffffffffffffffffffffffffffffffffffffff1673ffffffffffffffffffffffffffffffffffffffff1681526020019060010190808311610452575b5050505050905090565b6000600560009054906101000a900473ffffffffffffffffffffffffffffffffffffffff16905090565b6104d86111fb565b60068281548110610512577f4e487b7100000000000000000000000000000000000000000000000000000000600052603260045260246000fd5b90600052602060002090600602016040518060c00160405290816000820160009054906101000a900473ffffffffffffffffffffffffffffffffffffffff1673ffffffffffffffffffffffffffffffffffffffff1673ffffffffffffffffffffffffffffffffffffffff1681526020016001820160009054906101000a900473ffffffffffffffffffffffffffffffffffffffff1673ffffffffffffffffffffffffffffffffffffffff1673ffffffffffffffffffffffffffffffffffffffff1681526020016002820180546105e790611b5e565b80601f016020809104026020016040519081016040528092919081815260200182805461061390611b5e565b80156106605780601f1061063557610100808354040283529160200191610660565b820191906000526020600020905b81548152906001019060200180831161064357829003601f168201915b5050505050815260200160038201548152602001600482015481526020016005820154815250509050919050565b6060600080548060200260200160405190810160405280929190818152602001828054801561071257602002820191906000526020600020905b8160009054906101000a900473ffffffffffffffffffffffffffffffffffffffff1673ffffffffffffffffffffffffffffffffffffffff16815260200190600101908083116106c8575b5050505050905090565b6000600160003373ffffffffffffffffffffffffffffffffffffffff1673ffffffffffffffffffffffffffffffffffffffff16815260200190815260200160002060009054906101000a900460ff166107aa576040517f08c379a00000000000000000000000000000000000000000000000000000000081526004016107a190611896565b60405180910390fd5b600073ffffffffffffffffffffffffffffffffffffffff168473ffffffffffffffffffffffffffffffffffffffff16141561081a576040517f08c379a000000000000000000000000000000000000000000000000000000000815260040161081190611856565b60405180910390fd5b3073ffffffffffffffffffffffffffffffffffffffff168473ffffffffffffffffffffffffffffffffffffffff161415610889576040517f08c379a0000000000000000000000000000000000000000000000000000000008152600401610880906117f6565b60405180910390fd5b600082116108cc576040517f08c379a00000000000000000000000000000000000000000000000000000000081526004016108c390611836565b60405180910390fd5b60006040518060c001604052803373ffffffffffffffffffffffffffffffffffffffff1681526020018673ffffffffffffffffffffffffffffffffffffffff168152602001858152602001848152602001600081526020016006805490508152509050600681908060018154018082558091505060019003906000526020600020906006020160009091909190915060008201518160000160006101000a81548173ffffffffffffffffffffffffffffffffffffffff021916908373ffffffffffffffffffffffffffffffffffffffff16021790555060208201518160010160006101000a81548173ffffffffffffffffffffffffffffffffffffffff021916908373ffffffffffffffffffffffffffffffffffffffff1602179055506040820151816002019080519060200190610a0592919061125d565b50606082015181600301556080820151816004015560a08201518160050155505033600760008360a00151815260200190815260200160002060006101000a81548173ffffffffffffffffffffffffffffffffffffffff021916908373ffffffffffffffffffffffffffffffffffffffff1602179055507fd9a745595b77ae886da062b1e73fe73dc45372f44854c688cb90a1d0278dc35a8160a001518260600151836020015184600001518560400151604051610ac79594939291906119ca565b60405180910390a18060a001519150509392505050565b60003411610b21576040517f08c379a0000000000000000000000000000000000000000000000000000000008152600401610b1890611916565b60405180910390fd5b7fa1ab46d0e38f33a7b1f03853088a305927deb55c906370ff5d6d2bc732f1509534604051610b509190611978565b60405180910390a1565b600360003373ffffffffffffffffffffffffffffffffffffffff1673ffffffffffffffffffffffffffffffffffffffff16815260200190815260200160002060009054906101000a900460ff16610be6576040517f08c379a0000000000000000000000000000000000000000000000000000000008152600401610bdd90611936565b60405180910390fd5b6006805490508110610c2d576040517f08c379a0000000000000000000000000000000000000000000000000000000008152600401610c24906118b6565b60405180910390fd5b600060068281548110610c69577f4e487b7100000000000000000000000000000000000000000000000000000000600052603260045260246000fd5b90600052602060002090600602016003015411610cbb576040517f08c379a0000000000000000000000000000000000000000000000000000000008152600401610cb2906118f6565b60405180910390fd5b60011515600860003373ffffffffffffffffffffffffffffffffffffffff1673ffffffffffffffffffffffffffffffffffffffff168152602001908152602001600020600083815260200190815260200160002060009054906101000a900460ff1615151415610d60576040517f08c379a0000000000000000000000000000000000000000000000000000000008152600401610d57906118d6565b60405180910390fd5b60068181548110610d9a577f4e487b7100000000000000000000000000000000000000000000000000000000600052603260045260246000fd5b906000526020600020906006020160030154471015610dee576040517f08c379a0000000000000000000000000000000000000000000000000000000008152600401610de590611876565b60405180910390fd5b6001600860003373ffffffffffffffffffffffffffffffffffffffff1673ffffffffffffffffffffffffffffffffffffffff168152602001908152602001600020600083815260200190815260200160002060006101000a81548160ff02191690831515021790555060068181548110610e91577f4e487b7100000000000000000000000000000000000000000000000000000000600052603260045260246000fd5b90600052602060002090600602016004016000815480929190610eb390611bc1565b91905055507f785e7b1da6f3e7ca30112843e74578b1bd80f14fd4de36b7007dcd5a8b48df4c8160068381548110610f14577f4e487b7100000000000000000000000000000000000000000000000000000000600052603260045260246000fd5b90600052602060002090600602016004015433604051610f3693929190611993565b60405180910390a160045460068281548110610f7b577f4e487b7100000000000000000000000000000000000000000000000000000000600052603260045260246000fd5b90600052602060002090600602016004015410610f9c57610f9b81611099565b5b50565b60068181548110610fd9577f4e487b7100000000000000000000000000000000000000000000000000000000600052603260045260246000fd5b9060005260206000209060060201600080820160006101000a81549073ffffffffffffffffffffffffffffffffffffffff02191690556001820160006101000a81549073ffffffffffffffffffffffffffffffffffffffff021916905560028201600061104691906112e3565b60038201600090556004820160009055600582016000905550506007600082815260200190815260200160002060006101000a81549073ffffffffffffffffffffffffffffffffffffffff021916905550565b6000600682815481106110d5577f4e487b7100000000000000000000000000000000000000000000000000000000600052603260045260246000fd5b906000526020600020906006020160010160009054906101000a900473ffffffffffffffffffffffffffffffffffffffff169050600060068381548110611145577f4e487b7100000000000000000000000000000000000000000000000000000000600052603260045260246000fd5b906000526020600020906006020160030154905061116283610f9f565b61116c82826111aa565b7f8aa89c45e00b1dc8befa3736e4d341042a1cd0021a629920526985a6028f7525828260405161119d9291906117ab565b60405180910390a1505050565b60008290508073ffffffffffffffffffffffffffffffffffffffff166108fc839081150290604051600060405180830381858888f193505050501580156111f5573d6000803e3d6000fd5b50505050565b6040518060c00160405280600073ffffffffffffffffffffffffffffffffffffffff168152602001600073ffffffffffffffffffffffffffffffffffffffff168152602001606081526020016000815260200160008152602001600081525090565b82805461126990611b5e565b90600052602060002090601f01602090048101928261128b57600085556112d2565b82601f106112a457805160ff19168380011785556112d2565b828001600101855582156112d2579182015b828111156112d15782518255916020019190600101906112b6565b5b5090506112df9190611323565b5090565b5080546112ef90611b5e565b6000825580601f106113015750611320565b601f01602090049060005260206000209081019061131f9190611323565b5b50565b5b8082111561133c576000816000905550600101611324565b5090565b600061135361134e84611a49565b611a24565b90508281526020810184848401111561136b57600080fd5b611376848285611b1c565b509392505050565b60008135905061138d81611e6b565b92915050565b600082601f8301126113a457600080fd5b81356113b4848260208601611340565b91505092915050565b6000813590506113cc81611e82565b92915050565b6000806000606084860312156113e757600080fd5b60006113f58682870161137e565b935050602084013567ffffffffffffffff81111561141257600080fd5b61141e86828701611393565b925050604061142f868287016113bd565b9150509250925092565b60006020828403121561144b57600080fd5b6000611459848285016113bd565b91505092915050565b600061146e838361147a565b60208301905092915050565b61148381611ae0565b82525050565b61149281611ae0565b82525050565b60006114a382611a8a565b6114ad8185611aad565b93506114b883611a7a565b8060005b838110156114e95781516114d08882611462565b97506114db83611aa0565b9250506001810190506114bc565b5085935050505092915050565b600061150182611a95565b61150b8185611abe565b935061151b818560208601611b2b565b61152481611c97565b840191505092915050565b600061153a82611a95565b6115448185611acf565b9350611554818560208601611b2b565b61155d81611c97565b840191505092915050565b6000611575601983611acf565b915061158082611ca8565b602082019050919050565b6000611598601583611acf565b91506115a382611cd1565b602082019050919050565b60006115bb601583611acf565b91506115c682611cfa565b602082019050919050565b60006115de601783611acf565b91506115e982611d23565b602082019050919050565b6000611601601f83611acf565b915061160c82611d4c565b602082019050919050565b6000611624600d83611acf565b915061162f82611d75565b602082019050919050565b6000611647601383611acf565b915061165282611d9e565b602082019050919050565b600061166a601783611acf565b915061167582611dc7565b602082019050919050565b600061168d601783611acf565b915061169882611df0565b602082019050919050565b60006116b0601983611acf565b91506116bb82611e19565b602082019050919050565b60006116d3601083611acf565b91506116de82611e42565b602082019050919050565b600060c083016000830151611701600086018261147a565b506020830151611714602086018261147a565b506040830151848203604086015261172c82826114f6565b91505060608301516117416060860182611772565b5060808301516117546080860182611772565b5060a083015161176760a0860182611772565b508091505092915050565b61177b81611b12565b82525050565b61178a81611b12565b82525050565b60006020820190506117a56000830184611489565b92915050565b60006040820190506117c06000830185611489565b6117cd6020830184611781565b9392505050565b600060208201905081810360008301526117ee8184611498565b905092915050565b6000602082019050818103600083015261180f81611568565b9050919050565b6000602082019050818103600083015261182f8161158b565b9050919050565b6000602082019050818103600083015261184f816115ae565b9050919050565b6000602082019050818103600083015261186f816115d1565b9050919050565b6000602082019050818103600083015261188f816115f4565b9050919050565b600060208201905081810360008301526118af81611617565b9050919050565b600060208201905081810360008301526118cf8161163a565b9050919050565b600060208201905081810360008301526118ef8161165d565b9050919050565b6000602082019050818103600083015261190f81611680565b9050919050565b6000602082019050818103600083015261192f816116a3565b9050919050565b6000602082019050818103600083015261194f816116c6565b9050919050565b6000602082019050818103600083015261197081846116e9565b905092915050565b600060208201905061198d6000830184611781565b92915050565b60006060820190506119a86000830186611781565b6119b56020830185611781565b6119c26040830184611489565b949350505050565b600060a0820190506119df6000830188611781565b6119ec6020830187611781565b6119f96040830186611489565b611a066060830185611489565b8181036080830152611a18818461152f565b90509695505050505050565b6000611a2e611a3f565b9050611a3a8282611b90565b919050565b6000604051905090565b600067ffffffffffffffff821115611a6457611a63611c68565b5b611a6d82611c97565b9050602081019050919050565b6000819050602082019050919050565b600081519050919050565b600081519050919050565b6000602082019050919050565b600082825260208201905092915050565b600082825260208201905092915050565b600082825260208201905092915050565b6000611aeb82611af2565b9050919050565b600073ffffffffffffffffffffffffffffffffffffffff82169050919050565b6000819050919050565b82818337600083830152505050565b60005b83811015611b49578082015181840152602081019050611b2e565b83811115611b58576000848401525b50505050565b60006002820490506001821680611b7657607f821691505b60208210811415611b8a57611b89611c39565b5b50919050565b611b9982611c97565b810181811067ffffffffffffffff82111715611bb857611bb7611c68565b5b80604052505050565b6000611bcc82611b12565b91507fffffffffffffffffffffffffffffffffffffffffffffffffffffffffffffffff821415611bff57611bfe611c0a565b5b600182019050919050565b7f4e487b7100000000000000000000000000000000000000000000000000000000600052601160045260246000fd5b7f4e487b7100000000000000000000000000000000000000000000000000000000600052602260045260246000fd5b7f4e487b7100000000000000000000000000000000000000000000000000000000600052604160045260246000fd5b6000601f19601f8301169050919050565b7f526563697065696e7420697320746869732077616c6c65742100000000000000600082015250565b7f4e6f74207472616e736665722063726561746f72210000000000000000000000600082015250565b7f5472616e7366657220616d6f756e742069732030210000000000000000000000600082015250565b7f526563697069656e742069732061646472657373203021000000000000000000600082015250565b7f496e73756666696369656e742066756e647320666f72207061796d656e742100600082015250565b7f4e6f7420616e206f776e65722100000000000000000000000000000000000000600082015250565b7f4e6f207375636820726571756573742069642100000000000000000000000000600082015250565b7f416c726561647920676976656e20617070726f76616c21000000000000000000600082015250565b7f4e6f207472616e7366657220746f20617070726f766521000000000000000000600082015250565b7f4e6f2066756e64732073656e7420746f206465706f7369742100000000000000600082015250565b7f4e6f7420616e20617070726f7665722100000000000000000000000000000000600082015250565b611e7481611ae0565b8114611e7f57600080fd5b50565b611e8b81611b12565b8114611e9657600080fd5b5056fea26469706673582212208e4c16eac9ef68cba7aa83d5e09b1d642e9bb2e82789bb5b17813f60b8509d3d64736f6c63430008040033",
  "immutableReferences": {},
  "source": "pragma solidity ^0.8.4;\npragma abicoder v2;\n\nimport \"./MultiOwnable.sol\";\nimport \"./Approvable.sol\";\n\ncontract MultiSigWallet is MultiOwnable, Approvable {\n\n    // STATE VARIABLES\n    address internal _walletCreator;\n\n    struct TxRequest {\n        address requestor;\n        address recipient;\n        string reason;\n        uint amount;\n        uint approvals;\n        uint id;    // request id\n    }\n    \n    TxRequest[] internal _txRequests;  // array's index == request id\n    mapping (uint => address) internal _txRequestors;\n    mapping (address => mapping (uint => bool)) internal _txApprovals;\n        // approver => (requestId => approval?)\n    \n    event DepositReceived(uint amount); \n    event TxRequestCreated(\n        uint id,\n        uint amount,\n        address to,\n        address requestor,\n        string reason\n    );\n    event TxApprovalGiven(uint id, uint approvals, address lastApprover);\n    event TransferSent(address to, uint amount); \n\n    // FUNCTIONS\n    // Public & External functions\n    \n    constructor(address[] memory owners, uint minTxApprovals)\n        MultiOwnable(owners)\n        Approvable(owners, minTxApprovals)\n    {\n        _walletCreator = msg.sender;\n    }\n    \n    \n    function deposit() external payable {\n        require (msg.value > 0, \"No funds sent to deposit!\");\n        emit DepositReceived(msg.value);\n    }\n    \n        \n    function createTransferRequest(\n        address toAddress,\n        string memory reason,\n        uint amountWei\n    )\n        public\n        onlyAnOwner\n        returns (uint txId)\n    {\n        require(toAddress != address(0), \"Recipient is address 0!\");\n        require(toAddress != address(this), \"Recipeint is this wallet!\");\n        require(amountWei > 0, \"Transfer amount is 0!\");\n        \n        TxRequest memory newRequest =\n            TxRequest(\n                msg.sender,\n                toAddress,\n                reason,\n                amountWei,\n                0,\n                _txRequests.length\n            );\n\n        _txRequests.push(newRequest);\n        _txRequestors[newRequest.id] = msg.sender;\n        \n        emit TxRequestCreated(\n            newRequest.id,\n            newRequest.amount,\n            newRequest.recipient,\n            newRequest.requestor,\n            newRequest.reason);\n\n        return newRequest.id;\n    }\n    \n\n    function approveTransferRequest(uint requestId)\n        public\n        onlyAnApprover\n    {\n        require(requestId < _txRequests.length, \"No such request id!\");\n        require(_txRequests[requestId].amount > 0, \"No transfer to approve!\");\n        require(\n            _txApprovals[msg.sender][requestId] != true,\n            \"Already given approval!\"\n        );\n        require(\n            address(this).balance >= _txRequests[requestId].amount,\n            \"Insufficient funds for payment!\"\n        ); // NB.Gas cost not accounted for\n\n        _txApprovals[msg.sender][requestId] = true;\n        _txRequests[requestId].approvals++;\n        \n        emit TxApprovalGiven(requestId, _txRequests[requestId].approvals, msg.sender);\n        \n        if (_txRequests[requestId].approvals >= _minApprovals) {\n            _makeApprovedTransfer(requestId);\n        }\n    }\n    \n    \n    function cancelTransferRequest(uint requestId) public onlyAnOwner {\n        require(requestId < _txRequests.length, \"No such request id!\");\n        require(\n            _txRequestors[requestId] == msg.sender,\n            \"Not transfer creator!\"\n        );\n        _deleteTransferRequest(requestId);\n    }\n    \n\n    // Internal and private functions\n    \n    function _deleteTransferRequest(uint requestId) internal {\n        delete _txRequests[requestId];\n        delete _txRequestors[requestId];\n    }\n    \n    \n    function _makeApprovedTransfer(uint requestId) internal {\n        address sendTo = _txRequests[requestId].recipient;\n        uint amountInWei = _txRequests[requestId].amount;\n        _deleteTransferRequest(requestId);\n\n        _transfer(sendTo, amountInWei);\n            \n        emit TransferSent(sendTo, amountInWei);\n    }\n            \n    \n    function _transfer(address sendTo, uint amountInWei) internal {\n        // address payable to = address(uint160(sendTo));\n        address payable to = payable(sendTo);\n        to.transfer(amountInWei);\n    }\n    \n\n    // Functions for Developer testing \n\n    function getTransferRequest(uint id)\n        public\n        view\n        returns (TxRequest memory transferRequest)\n    {\n        return _txRequests[id];\n    }\n    \n    function getWalletBalance() public view returns (uint balance) {\n        return address(this).balance;\n    }\n    \n    function getWalletCreator() public view returns (address) {\n        return _walletCreator;\n    }\n    \n    function totalTransferRequests() public view returns (uint) {\n        return _txRequests.length; // Includes cancelled & approved requests\n    }\n}",
  "sourcePath": "/Users/Mark/Documents/BlockChain/IvanOnTechAcademy/Solidity - Smart Contract Programming 201/MultiSigWalletUsingTruffle/contracts/MultiSigWallet.sol",
  "compiler": {
    "name": "solc",
    "version": "0.8.4+commit.c7e474f2.Emscripten.clang"
  },
  "schemaVersion": "3.2.0",
  "updatedAt": "2021-04-29T14:25:33.427Z",
  "networkType": "ethereum",
  "devdoc": {
    "kind": "dev",
    "methods": {},
    "version": 1
  },
  "userdoc": {
    "kind": "user",
    "methods": {},
    "version": 1
  }
}