{
  "contractName": "Dex",
  "abi": [
    {
      "anonymous": false,
      "inputs": [
        {
          "indexed": true,
          "internalType": "address",
          "name": "previousOwner",
          "type": "address"
        },
        {
          "indexed": true,
          "internalType": "address",
          "name": "newOwner",
          "type": "address"
        }
      ],
      "name": "OwnershipTransferred",
      "type": "event"
    },
    {
      "inputs": [
        {
          "internalType": "bytes32",
          "name": "ticker",
          "type": "bytes32"
        },
        {
          "internalType": "address",
          "name": "tokenAddress",
          "type": "address"
        }
      ],
      "name": "addToken",
      "outputs": [],
      "stateMutability": "nonpayable",
      "type": "function"
    },
    {
      "inputs": [
        {
          "internalType": "address",
          "name": "",
          "type": "address"
        },
        {
          "internalType": "bytes32",
          "name": "",
          "type": "bytes32"
        }
      ],
      "name": "balances",
      "outputs": [
        {
          "internalType": "uint256",
          "name": "",
          "type": "uint256"
        }
      ],
      "stateMutability": "view",
      "type": "function"
    },
    {
      "inputs": [
        {
          "internalType": "uint256",
          "name": "amount",
          "type": "uint256"
        },
        {
          "internalType": "bytes32",
          "name": "ticker",
          "type": "bytes32"
        }
      ],
      "name": "deposit",
      "outputs": [],
      "stateMutability": "nonpayable",
      "type": "function"
    },
    {
      "inputs": [
        {
          "internalType": "bytes32",
          "name": "",
          "type": "bytes32"
        },
        {
          "internalType": "uint256",
          "name": "",
          "type": "uint256"
        },
        {
          "internalType": "uint256",
          "name": "",
          "type": "uint256"
        }
      ],
      "name": "orderBook",
      "outputs": [
        {
          "internalType": "uint256",
          "name": "id",
          "type": "uint256"
        },
        {
          "internalType": "address",
          "name": "trader",
          "type": "address"
        },
        {
          "internalType": "enum Dex.Side",
          "name": "side",
          "type": "uint8"
        },
        {
          "internalType": "bytes32",
          "name": "ticker",
          "type": "bytes32"
        },
        {
          "internalType": "uint256",
          "name": "amount",
          "type": "uint256"
        },
        {
          "internalType": "uint256",
          "name": "price",
          "type": "uint256"
        }
      ],
      "stateMutability": "view",
      "type": "function"
    },
    {
      "inputs": [],
      "name": "owner",
      "outputs": [
        {
          "internalType": "address",
          "name": "",
          "type": "address"
        }
      ],
      "stateMutability": "view",
      "type": "function"
    },
    {
      "inputs": [],
      "name": "renounceOwnership",
      "outputs": [],
      "stateMutability": "nonpayable",
      "type": "function"
    },
    {
      "inputs": [
        {
          "internalType": "uint256",
          "name": "",
          "type": "uint256"
        }
      ],
      "name": "tokenList",
      "outputs": [
        {
          "internalType": "bytes32",
          "name": "",
          "type": "bytes32"
        }
      ],
      "stateMutability": "view",
      "type": "function"
    },
    {
      "inputs": [
        {
          "internalType": "bytes32",
          "name": "",
          "type": "bytes32"
        }
      ],
      "name": "tokenMapping",
      "outputs": [
        {
          "internalType": "bytes32",
          "name": "ticker",
          "type": "bytes32"
        },
        {
          "internalType": "address",
          "name": "tokenAddress",
          "type": "address"
        }
      ],
      "stateMutability": "view",
      "type": "function"
    },
    {
      "inputs": [
        {
          "internalType": "address",
          "name": "newOwner",
          "type": "address"
        }
      ],
      "name": "transferOwnership",
      "outputs": [],
      "stateMutability": "nonpayable",
      "type": "function"
    },
    {
      "inputs": [
        {
          "internalType": "uint256",
          "name": "amount",
          "type": "uint256"
        },
        {
          "internalType": "bytes32",
          "name": "ticker",
          "type": "bytes32"
        }
      ],
      "name": "withdraw",
      "outputs": [],
      "stateMutability": "nonpayable",
      "type": "function"
    },
    {
      "inputs": [
        {
          "internalType": "bytes32",
          "name": "ticker",
          "type": "bytes32"
        },
        {
          "internalType": "enum Dex.Side",
          "name": "side",
          "type": "uint8"
        }
      ],
      "name": "getOrderBook",
      "outputs": [
        {
          "components": [
            {
              "internalType": "uint256",
              "name": "id",
              "type": "uint256"
            },
            {
              "internalType": "address",
              "name": "trader",
              "type": "address"
            },
            {
              "internalType": "enum Dex.Side",
              "name": "side",
              "type": "uint8"
            },
            {
              "internalType": "bytes32",
              "name": "ticker",
              "type": "bytes32"
            },
            {
              "internalType": "uint256",
              "name": "amount",
              "type": "uint256"
            },
            {
              "internalType": "uint256",
              "name": "price",
              "type": "uint256"
            }
          ],
          "internalType": "struct Dex.Order[]",
          "name": "",
          "type": "tuple[]"
        }
      ],
      "stateMutability": "view",
      "type": "function"
    }
  ],
  "bytecode": "0x608060405234801561001057600080fd5b5060006100216100c460201b60201c565b9050806000806101000a81548173ffffffffffffffffffffffffffffffffffffffff021916908373ffffffffffffffffffffffffffffffffffffffff1602179055508073ffffffffffffffffffffffffffffffffffffffff16600073ffffffffffffffffffffffffffffffffffffffff167f8be0079c531659141344cd1fd0a4f28419497f9722a3daafe3b4186f6b6457e060405160405180910390a3506100cc565b600033905090565b611871806100db6000396000f3fe608060405234801561001057600080fd5b50600436106100a95760003560e01c80639776aacf116100715780639776aacf1461016c5780639ead722214610188578063a8d2021a146101b8578063ba58ea68146101d4578063c9630cb014610204578063f2fde38b14610220576100a9565b80630bb431b6146100ae5780631f14df69146100e3578063667cb4ba14610113578063715018a6146101445780638da5cb5b1461014e575b600080fd5b6100c860048036038101906100c39190611056565b61023c565b6040516100da969594939291906114be565b60405180910390f35b6100fd60048036038101906100f89190610f50565b6102cf565b60405161010a91906114a3565b60405180910390f35b61012d60048036038101906101289190610fb5565b6102f4565b60405161013b9291906113da565b60405180910390f35b61014c610338565b005b610156610472565b6040516101639190611322565b60405180910390f35b61018660048036038101906101819190610fde565b61049b565b005b6101a2600480360381019061019d91906110a5565b6105d6565b6040516101af91906113bf565b60405180910390f35b6101d260048036038101906101cd91906110ce565b6105fa565b005b6101ee60048036038101906101e9919061101a565b6108b4565b6040516101fb919061139d565b60405180910390f35b61021e600480360381019061021991906110ce565b610a75565b005b61023a60048036038101906102359190610f27565b610ce1565b005b6004602052826000526040600020602052816000526040600020818154811061026457600080fd5b906000526020600020906005020160009250925050508060000154908060010160009054906101000a900473ffffffffffffffffffffffffffffffffffffffff16908060010160149054906101000a900460ff16908060020154908060030154908060040154905086565b6003602052816000526040600020602052806000526040600020600091509150505481565b60016020528060005260406000206000915090508060000154908060010160009054906101000a900473ffffffffffffffffffffffffffffffffffffffff16905082565b610340610e8a565b73ffffffffffffffffffffffffffffffffffffffff1661035e610472565b73ffffffffffffffffffffffffffffffffffffffff16146103b4576040517f08c379a00000000000000000000000000000000000000000000000000000000081526004016103ab90611463565b60405180910390fd5b600073ffffffffffffffffffffffffffffffffffffffff1660008054906101000a900473ffffffffffffffffffffffffffffffffffffffff1673ffffffffffffffffffffffffffffffffffffffff167f8be0079c531659141344cd1fd0a4f28419497f9722a3daafe3b4186f6b6457e060405160405180910390a360008060006101000a81548173ffffffffffffffffffffffffffffffffffffffff021916908373ffffffffffffffffffffffffffffffffffffffff160217905550565b60008060009054906101000a900473ffffffffffffffffffffffffffffffffffffffff16905090565b6104a3610e8a565b73ffffffffffffffffffffffffffffffffffffffff166104c1610472565b73ffffffffffffffffffffffffffffffffffffffff1614610517576040517f08c379a000000000000000000000000000000000000000000000000000000000815260040161050e90611463565b60405180910390fd5b60405180604001604052808381526020018273ffffffffffffffffffffffffffffffffffffffff16815250600160008481526020019081526020016000206000820151816000015560208201518160010160006101000a81548173ffffffffffffffffffffffffffffffffffffffff021916908373ffffffffffffffffffffffffffffffffffffffff16021790555090505060028290806001815401808255809150506001900390600052602060002001600090919091909150555050565b600281815481106105e657600080fd5b906000526020600020016000915090505481565b80600073ffffffffffffffffffffffffffffffffffffffff166001600083815260200190815260200160002060010160009054906101000a900473ffffffffffffffffffffffffffffffffffffffff1673ffffffffffffffffffffffffffffffffffffffff1614156106a1576040517f08c379a000000000000000000000000000000000000000000000000000000000815260040161069890611443565b60405180910390fd5b82600360003373ffffffffffffffffffffffffffffffffffffffff1673ffffffffffffffffffffffffffffffffffffffff1681526020019081526020016000206000848152602001908152602001600020541015610734576040517f08c379a000000000000000000000000000000000000000000000000000000000815260040161072b90611403565b60405180910390fd5b61079783600360003373ffffffffffffffffffffffffffffffffffffffff1673ffffffffffffffffffffffffffffffffffffffff168152602001908152602001600020600085815260200190815260200160002054610e9290919063ffffffff16565b600360003373ffffffffffffffffffffffffffffffffffffffff1673ffffffffffffffffffffffffffffffffffffffff1681526020019081526020016000206000848152602001908152602001600020819055506001600083815260200190815260200160002060010160009054906101000a900473ffffffffffffffffffffffffffffffffffffffff1673ffffffffffffffffffffffffffffffffffffffff1663a9059cbb33856040518363ffffffff1660e01b815260040161085c929190611374565b602060405180830381600087803b15801561087657600080fd5b505af115801561088a573d6000803e3d6000fd5b505050506040513d601f19601f820116820180604052508101906108ae9190610f8c565b50505050565b6060600460008481526020019081526020016000206000836001811115610904577f4e487b7100000000000000000000000000000000000000000000000000000000600052602160045260246000fd5b8152602001908152602001600020805480602002602001604051908101604052809291908181526020016000905b82821015610a6957838290600052602060002090600502016040518060c0016040529081600082015481526020016001820160009054906101000a900473ffffffffffffffffffffffffffffffffffffffff1673ffffffffffffffffffffffffffffffffffffffff1673ffffffffffffffffffffffffffffffffffffffff1681526020016001820160149054906101000a900460ff166001811115610a00577f4e487b7100000000000000000000000000000000000000000000000000000000600052602160045260246000fd5b6001811115610a38577f4e487b7100000000000000000000000000000000000000000000000000000000600052602160045260246000fd5b8152602001600282015481526020016003820154815260200160048201548152505081526020019060010190610932565b50505050905092915050565b80600073ffffffffffffffffffffffffffffffffffffffff166001600083815260200190815260200160002060010160009054906101000a900473ffffffffffffffffffffffffffffffffffffffff1673ffffffffffffffffffffffffffffffffffffffff161415610b1c576040517f08c379a0000000000000000000000000000000000000000000000000000000008152600401610b1390611443565b60405180910390fd5b60008311610b5f576040517f08c379a0000000000000000000000000000000000000000000000000000000008152600401610b5690611483565b60405180910390fd5b610bc283600360003373ffffffffffffffffffffffffffffffffffffffff1673ffffffffffffffffffffffffffffffffffffffff168152602001908152602001600020600085815260200190815260200160002054610ea890919063ffffffff16565b600360003373ffffffffffffffffffffffffffffffffffffffff1673ffffffffffffffffffffffffffffffffffffffff1681526020019081526020016000206000848152602001908152602001600020819055506001600083815260200190815260200160002060010160009054906101000a900473ffffffffffffffffffffffffffffffffffffffff1673ffffffffffffffffffffffffffffffffffffffff166323b872dd3330866040518463ffffffff1660e01b8152600401610c899392919061133d565b602060405180830381600087803b158015610ca357600080fd5b505af1158015610cb7573d6000803e3d6000fd5b505050506040513d601f19601f82011682018060405250810190610cdb9190610f8c565b50505050565b610ce9610e8a565b73ffffffffffffffffffffffffffffffffffffffff16610d07610472565b73ffffffffffffffffffffffffffffffffffffffff1614610d5d576040517f08c379a0000000000000000000000000000000000000000000000000000000008152600401610d5490611463565b60405180910390fd5b600073ffffffffffffffffffffffffffffffffffffffff168173ffffffffffffffffffffffffffffffffffffffff161415610dcd576040517f08c379a0000000000000000000000000000000000000000000000000000000008152600401610dc490611423565b60405180910390fd5b8073ffffffffffffffffffffffffffffffffffffffff1660008054906101000a900473ffffffffffffffffffffffffffffffffffffffff1673ffffffffffffffffffffffffffffffffffffffff167f8be0079c531659141344cd1fd0a4f28419497f9722a3daafe3b4186f6b6457e060405160405180910390a3806000806101000a81548173ffffffffffffffffffffffffffffffffffffffff021916908373ffffffffffffffffffffffffffffffffffffffff16021790555050565b600033905090565b60008183610ea091906115bf565b905092915050565b60008183610eb69190611569565b905092915050565b600081359050610ecd816117cf565b92915050565b600081519050610ee2816117e6565b92915050565b600081359050610ef7816117fd565b92915050565b600081359050610f0c81611814565b92915050565b600081359050610f2181611824565b92915050565b600060208284031215610f3957600080fd5b6000610f4784828501610ebe565b91505092915050565b60008060408385031215610f6357600080fd5b6000610f7185828601610ebe565b9250506020610f8285828601610ee8565b9150509250929050565b600060208284031215610f9e57600080fd5b6000610fac84828501610ed3565b91505092915050565b600060208284031215610fc757600080fd5b6000610fd584828501610ee8565b91505092915050565b60008060408385031215610ff157600080fd5b6000610fff85828601610ee8565b925050602061101085828601610ebe565b9150509250929050565b6000806040838503121561102d57600080fd5b600061103b85828601610ee8565b925050602061104c85828601610efd565b9150509250929050565b60008060006060848603121561106b57600080fd5b600061107986828701610ee8565b935050602061108a86828701610f12565b925050604061109b86828701610f12565b9150509250925092565b6000602082840312156110b757600080fd5b60006110c584828501610f12565b91505092915050565b600080604083850312156110e157600080fd5b60006110ef85828601610f12565b925050602061110085828601610ee8565b9150509250929050565b60006111168383611289565b60c08301905092915050565b61112b816115f3565b82525050565b61113a816115f3565b82525050565b600061114b8261152f565b6111558185611547565b93506111608361151f565b8060005b83811015611191578151611178888261110a565b97506111838361153a565b925050600181019050611164565b5085935050505092915050565b6111a781611611565b82525050565b6111b681611611565b82525050565b6111c581611658565b82525050565b6111d481611658565b82525050565b60006111e7601783611558565b91506111f2826116c8565b602082019050919050565b600061120a602683611558565b9150611215826116f1565b604082019050919050565b600061122d601e83611558565b915061123882611740565b602082019050919050565b6000611250602083611558565b915061125b82611769565b602082019050919050565b6000611273601a83611558565b915061127e82611792565b602082019050919050565b60c08201600082015161129f6000850182611304565b5060208201516112b26020850182611122565b5060408201516112c560408501826111bc565b5060608201516112d8606085018261119e565b5060808201516112eb6080850182611304565b5060a08201516112fe60a0850182611304565b50505050565b61130d8161164e565b82525050565b61131c8161164e565b82525050565b60006020820190506113376000830184611131565b92915050565b60006060820190506113526000830186611131565b61135f6020830185611131565b61136c6040830184611313565b949350505050565b60006040820190506113896000830185611131565b6113966020830184611313565b9392505050565b600060208201905081810360008301526113b78184611140565b905092915050565b60006020820190506113d460008301846111ad565b92915050565b60006040820190506113ef60008301856111ad565b6113fc6020830184611131565b9392505050565b6000602082019050818103600083015261141c816111da565b9050919050565b6000602082019050818103600083015261143c816111fd565b9050919050565b6000602082019050818103600083015261145c81611220565b9050919050565b6000602082019050818103600083015261147c81611243565b9050919050565b6000602082019050818103600083015261149c81611266565b9050919050565b60006020820190506114b86000830184611313565b92915050565b600060c0820190506114d36000830189611313565b6114e06020830188611131565b6114ed60408301876111cb565b6114fa60608301866111ad565b6115076080830185611313565b61151460a0830184611313565b979650505050505050565b6000819050602082019050919050565b600081519050919050565b6000602082019050919050565b600082825260208201905092915050565b600082825260208201905092915050565b60006115748261164e565b915061157f8361164e565b9250827fffffffffffffffffffffffffffffffffffffffffffffffffffffffffffffffff038211156115b4576115b361166a565b5b828201905092915050565b60006115ca8261164e565b91506115d58361164e565b9250828210156115e8576115e761166a565b5b828203905092915050565b60006115fe8261162e565b9050919050565b60008115159050919050565b6000819050919050565b6000819050611629826117bb565b919050565b600073ffffffffffffffffffffffffffffffffffffffff82169050919050565b6000819050919050565b60006116638261161b565b9050919050565b7f4e487b7100000000000000000000000000000000000000000000000000000000600052601160045260246000fd5b7f4e487b7100000000000000000000000000000000000000000000000000000000600052602160045260246000fd5b7f42616c616e6365206e6f742073756666696369656e7421000000000000000000600082015250565b7f4f776e61626c653a206e6577206f776e657220697320746865207a65726f206160008201527f6464726573730000000000000000000000000000000000000000000000000000602082015250565b7f556e6b6e6f776e20746f6b656e3b20616464546f6b656e206669727374210000600082015250565b7f4f776e61626c653a2063616c6c6572206973206e6f7420746865206f776e6572600082015250565b7f41736b656420746f206465706f736974203020746f6b656e7321000000000000600082015250565b600281106117cc576117cb611699565b5b50565b6117d8816115f3565b81146117e357600080fd5b50565b6117ef81611605565b81146117fa57600080fd5b50565b61180681611611565b811461181157600080fd5b50565b6002811061182157600080fd5b50565b61182d8161164e565b811461183857600080fd5b5056fea2646970667358221220e9a7a5d5687720f2b5f8aca344b257f2a80fbefb3a60c3acbd353e91e9a2dc7e64736f6c63430008040033",
  "immutableReferences": {},
  "source": "pragma solidity ^0.8.0;\npragma experimental ABIEncoderV2;\n\n// TODO - import Wallet (via an interface??)\nimport \"./Wallet.sol\";\n\ncontract Dex is Wallet {\n\n    enum Side {\n        BUY,\n        SELL\n    }\n\n    struct Order {\n        uint id;\n        address trader;\n        Side side;\n        bytes32 ticker;\n        uint amount;\n        uint price; \n    }\n    // order.side = Side.BUY;\n\n    mapping(bytes32 => mapping(uint => Order[])) public orderBook;    //Ticker => (Side => orders)\n\n    function getOrderBook(bytes32 ticker, Side side) view public returns(Order[] memory) {\n        return(orderBook[ticker][uint(side)]);\n    }\n    // Note: Call would be :\n    //  getOrderBook(bytes32(\"LINK\"), Side.BUY);\n\n\n    // function createLimitOrder() public {\n    //     // TODO\n    // }\n\n}",
  "sourcePath": "/Users/Mark/Documents/BlockChain/IvanOnTechAcademy/Solidity - Smart Contract Programming 201/DEX-Project/contracts/Dex.sol",
  "compiler": {
    "name": "solc",
    "version": "0.8.4+commit.c7e474f2.Emscripten.clang"
  },
  "schemaVersion": "3.4.0",
  "updatedAt": "2021-05-04T20:20:44.094Z",
  "devdoc": {
    "kind": "dev",
    "methods": {
      "owner()": {
        "details": "Returns the address of the current owner."
      },
      "renounceOwnership()": {
        "details": "Leaves the contract without owner. It will not be possible to call `onlyOwner` functions anymore. Can only be called by the current owner. NOTE: Renouncing ownership will leave the contract without an owner, thereby removing any functionality that is only available to the owner."
      },
      "transferOwnership(address)": {
        "details": "Transfers ownership of the contract to a new account (`newOwner`). Can only be called by the current owner."
      }
    },
    "version": 1
  },
  "userdoc": {
    "kind": "user",
    "methods": {},
    "version": 1
  }
}