{
  "contractName": "Dex",
  "abi": [
    {
      "anonymous": false,
      "inputs": [
        {
          "indexed": true,
          "internalType": "address",
          "name": "previousOwner",
          "type": "address"
        },
        {
          "indexed": true,
          "internalType": "address",
          "name": "newOwner",
          "type": "address"
        }
      ],
      "name": "OwnershipTransferred",
      "type": "event"
    },
    {
      "inputs": [
        {
          "internalType": "bytes32",
          "name": "ticker",
          "type": "bytes32"
        },
        {
          "internalType": "address",
          "name": "tokenAddress",
          "type": "address"
        }
      ],
      "name": "addToken",
      "outputs": [],
      "stateMutability": "nonpayable",
      "type": "function"
    },
    {
      "inputs": [
        {
          "internalType": "address",
          "name": "",
          "type": "address"
        },
        {
          "internalType": "bytes32",
          "name": "",
          "type": "bytes32"
        }
      ],
      "name": "balances",
      "outputs": [
        {
          "internalType": "uint256",
          "name": "",
          "type": "uint256"
        }
      ],
      "stateMutability": "view",
      "type": "function",
      "constant": true
    },
    {
      "inputs": [
        {
          "internalType": "uint256",
          "name": "amount",
          "type": "uint256"
        },
        {
          "internalType": "bytes32",
          "name": "ticker",
          "type": "bytes32"
        }
      ],
      "name": "deposit",
      "outputs": [],
      "stateMutability": "nonpayable",
      "type": "function"
    },
    {
      "inputs": [
        {
          "internalType": "bytes32",
          "name": "",
          "type": "bytes32"
        },
        {
          "internalType": "uint256",
          "name": "",
          "type": "uint256"
        },
        {
          "internalType": "uint256",
          "name": "",
          "type": "uint256"
        }
      ],
      "name": "orderBook",
      "outputs": [
        {
          "internalType": "uint256",
          "name": "id",
          "type": "uint256"
        },
        {
          "internalType": "address",
          "name": "trader",
          "type": "address"
        },
        {
          "internalType": "enum Dex.Side",
          "name": "side",
          "type": "uint8"
        },
        {
          "internalType": "bytes32",
          "name": "ticker",
          "type": "bytes32"
        },
        {
          "internalType": "uint256",
          "name": "amount",
          "type": "uint256"
        },
        {
          "internalType": "uint256",
          "name": "price",
          "type": "uint256"
        }
      ],
      "stateMutability": "view",
      "type": "function",
      "constant": true
    },
    {
      "inputs": [],
      "name": "owner",
      "outputs": [
        {
          "internalType": "address",
          "name": "",
          "type": "address"
        }
      ],
      "stateMutability": "view",
      "type": "function",
      "constant": true
    },
    {
      "inputs": [],
      "name": "renounceOwnership",
      "outputs": [],
      "stateMutability": "nonpayable",
      "type": "function"
    },
    {
      "inputs": [
        {
          "internalType": "uint256",
          "name": "",
          "type": "uint256"
        }
      ],
      "name": "tokenList",
      "outputs": [
        {
          "internalType": "bytes32",
          "name": "",
          "type": "bytes32"
        }
      ],
      "stateMutability": "view",
      "type": "function",
      "constant": true
    },
    {
      "inputs": [
        {
          "internalType": "bytes32",
          "name": "",
          "type": "bytes32"
        }
      ],
      "name": "tokenMapping",
      "outputs": [
        {
          "internalType": "bytes32",
          "name": "ticker",
          "type": "bytes32"
        },
        {
          "internalType": "address",
          "name": "tokenAddress",
          "type": "address"
        }
      ],
      "stateMutability": "view",
      "type": "function",
      "constant": true
    },
    {
      "inputs": [
        {
          "internalType": "address",
          "name": "newOwner",
          "type": "address"
        }
      ],
      "name": "transferOwnership",
      "outputs": [],
      "stateMutability": "nonpayable",
      "type": "function"
    },
    {
      "inputs": [
        {
          "internalType": "uint256",
          "name": "amount",
          "type": "uint256"
        },
        {
          "internalType": "bytes32",
          "name": "ticker",
          "type": "bytes32"
        }
      ],
      "name": "withdraw",
      "outputs": [],
      "stateMutability": "nonpayable",
      "type": "function"
    },
    {
      "inputs": [
        {
          "internalType": "bytes32",
          "name": "ticker",
          "type": "bytes32"
        },
        {
          "internalType": "enum Dex.Side",
          "name": "side",
          "type": "uint8"
        }
      ],
      "name": "getOrderBook",
      "outputs": [
        {
          "components": [
            {
              "internalType": "uint256",
              "name": "id",
              "type": "uint256"
            },
            {
              "internalType": "address",
              "name": "trader",
              "type": "address"
            },
            {
              "internalType": "enum Dex.Side",
              "name": "side",
              "type": "uint8"
            },
            {
              "internalType": "bytes32",
              "name": "ticker",
              "type": "bytes32"
            },
            {
              "internalType": "uint256",
              "name": "amount",
              "type": "uint256"
            },
            {
              "internalType": "uint256",
              "name": "price",
              "type": "uint256"
            }
          ],
          "internalType": "struct Dex.Order[]",
          "name": "",
          "type": "tuple[]"
        }
      ],
      "stateMutability": "view",
      "type": "function",
      "constant": true
    },
    {
      "inputs": [
        {
          "internalType": "bytes32",
          "name": "ticker",
          "type": "bytes32"
        },
        {
          "internalType": "enum Dex.Side",
          "name": "side",
          "type": "uint8"
        },
        {
          "internalType": "uint256",
          "name": "price",
          "type": "uint256"
        },
        {
          "internalType": "uint256",
          "name": "amount",
          "type": "uint256"
        }
      ],
      "name": "createLimitOrder",
      "outputs": [
        {
          "components": [
            {
              "internalType": "uint256",
              "name": "id",
              "type": "uint256"
            },
            {
              "internalType": "address",
              "name": "trader",
              "type": "address"
            },
            {
              "internalType": "enum Dex.Side",
              "name": "side",
              "type": "uint8"
            },
            {
              "internalType": "bytes32",
              "name": "ticker",
              "type": "bytes32"
            },
            {
              "internalType": "uint256",
              "name": "amount",
              "type": "uint256"
            },
            {
              "internalType": "uint256",
              "name": "price",
              "type": "uint256"
            }
          ],
          "internalType": "struct Dex.Order",
          "name": "limitOrder",
          "type": "tuple"
        }
      ],
      "stateMutability": "nonpayable",
      "type": "function"
    },
    {
      "inputs": [],
      "name": "depositETH",
      "outputs": [],
      "stateMutability": "payable",
      "type": "function",
      "payable": true
    },
    {
      "inputs": [],
      "name": "getETHBalance",
      "outputs": [
        {
          "internalType": "uint256",
          "name": "ethBalance",
          "type": "uint256"
        }
      ],
      "stateMutability": "view",
      "type": "function",
      "constant": true
    }
  ],
  "bytecode": "0x6080604052600160055534801561001557600080fd5b5060006100266100c960201b60201c565b9050806000806101000a81548173ffffffffffffffffffffffffffffffffffffffff021916908373ffffffffffffffffffffffffffffffffffffffff1602179055508073ffffffffffffffffffffffffffffffffffffffff16600073ffffffffffffffffffffffffffffffffffffffff167f8be0079c531659141344cd1fd0a4f28419497f9722a3daafe3b4186f6b6457e060405160405180910390a3506100d1565b600033905090565b612c9f80620000e16000396000f3fe6080604052600436106100dd5760003560e01c80639ead72221161007f578063c9630cb011610059578063c9630cb0146102d8578063ed25c4d314610301578063f2fde38b1461033e578063f6326fb314610367576100dd565b80639ead722214610235578063a8d2021a14610272578063ba58ea681461029b576100dd565b80636e947298116100bb5780636e9472981461019f578063715018a6146101ca5780638da5cb5b146101e15780639776aacf1461020c576100dd565b80630bb431b6146100e25780631f14df6914610124578063667cb4ba14610161575b600080fd5b3480156100ee57600080fd5b5061010960048036038101906101049190612292565b610371565b60405161011b96959493929190612816565b60405180910390f35b34801561013057600080fd5b5061014b60048036038101906101469190612129565b610404565b60405161015891906127fb565b60405180910390f35b34801561016d57600080fd5b506101886004803603810190610183919061218e565b610429565b6040516101969291906126d7565b60405180910390f35b3480156101ab57600080fd5b506101b461046d565b6040516101c191906127fb565b60405180910390f35b3480156101d657600080fd5b506101df610472565b005b3480156101ed57600080fd5b506101f66105ac565b604051610203919061261f565b60405180910390f35b34801561021857600080fd5b50610233600480360381019061022e91906121b7565b6105d5565b005b34801561024157600080fd5b5061025c600480360381019061025791906122e1565b610710565b60405161026991906126bc565b60405180910390f35b34801561027e57600080fd5b506102996004803603810190610294919061230a565b610734565b005b3480156102a757600080fd5b506102c260048036038101906102bd91906121f3565b6109ee565b6040516102cf919061269a565b60405180910390f35b3480156102e457600080fd5b506102ff60048036038101906102fa919061230a565b610baf565b005b34801561030d57600080fd5b506103286004803603810190610323919061222f565b610e1b565b60405161033591906127e0565b60405180910390f35b34801561034a57600080fd5b5061036560048036038101906103609190612100565b611d24565b005b61036f611ecd565b005b6004602052826000526040600020602052816000526040600020818154811061039957600080fd5b906000526020600020906005020160009250925050508060000154908060010160009054906101000a900473ffffffffffffffffffffffffffffffffffffffff16908060010160149054906101000a900460ff16908060020154908060030154908060040154905086565b6003602052816000526040600020602052806000526040600020600091509150505481565b60016020528060005260406000206000915090508060000154908060010160009054906101000a900473ffffffffffffffffffffffffffffffffffffffff16905082565b600090565b61047a611fc6565b73ffffffffffffffffffffffffffffffffffffffff166104986105ac565b73ffffffffffffffffffffffffffffffffffffffff16146104ee576040517f08c379a00000000000000000000000000000000000000000000000000000000081526004016104e590612760565b60405180910390fd5b600073ffffffffffffffffffffffffffffffffffffffff1660008054906101000a900473ffffffffffffffffffffffffffffffffffffffff1673ffffffffffffffffffffffffffffffffffffffff167f8be0079c531659141344cd1fd0a4f28419497f9722a3daafe3b4186f6b6457e060405160405180910390a360008060006101000a81548173ffffffffffffffffffffffffffffffffffffffff021916908373ffffffffffffffffffffffffffffffffffffffff160217905550565b60008060009054906101000a900473ffffffffffffffffffffffffffffffffffffffff16905090565b6105dd611fc6565b73ffffffffffffffffffffffffffffffffffffffff166105fb6105ac565b73ffffffffffffffffffffffffffffffffffffffff1614610651576040517f08c379a000000000000000000000000000000000000000000000000000000000815260040161064890612760565b60405180910390fd5b60405180604001604052808381526020018273ffffffffffffffffffffffffffffffffffffffff16815250600160008481526020019081526020016000206000820151816000015560208201518160010160006101000a81548173ffffffffffffffffffffffffffffffffffffffff021916908373ffffffffffffffffffffffffffffffffffffffff16021790555090505060028290806001815401808255809150506001900390600052602060002001600090919091909150555050565b6002818154811061072057600080fd5b906000526020600020016000915090505481565b80600073ffffffffffffffffffffffffffffffffffffffff166001600083815260200190815260200160002060010160009054906101000a900473ffffffffffffffffffffffffffffffffffffffff1673ffffffffffffffffffffffffffffffffffffffff1614156107db576040517f08c379a00000000000000000000000000000000000000000000000000000000081526004016107d290612740565b60405180910390fd5b82600360003373ffffffffffffffffffffffffffffffffffffffff1673ffffffffffffffffffffffffffffffffffffffff168152602001908152602001600020600084815260200190815260200160002054101561086e576040517f08c379a000000000000000000000000000000000000000000000000000000000815260040161086590612700565b60405180910390fd5b6108d183600360003373ffffffffffffffffffffffffffffffffffffffff1673ffffffffffffffffffffffffffffffffffffffff168152602001908152602001600020600085815260200190815260200160002054611fce90919063ffffffff16565b600360003373ffffffffffffffffffffffffffffffffffffffff1673ffffffffffffffffffffffffffffffffffffffff1681526020019081526020016000206000848152602001908152602001600020819055506001600083815260200190815260200160002060010160009054906101000a900473ffffffffffffffffffffffffffffffffffffffff1673ffffffffffffffffffffffffffffffffffffffff1663a9059cbb33856040518363ffffffff1660e01b8152600401610996929190612671565b602060405180830381600087803b1580156109b057600080fd5b505af11580156109c4573d6000803e3d6000fd5b505050506040513d601f19601f820116820180604052508101906109e89190612165565b50505050565b6060600460008481526020019081526020016000206000836001811115610a3e577f4e487b7100000000000000000000000000000000000000000000000000000000600052602160045260246000fd5b8152602001908152602001600020805480602002602001604051908101604052809291908181526020016000905b82821015610ba357838290600052602060002090600502016040518060c0016040529081600082015481526020016001820160009054906101000a900473ffffffffffffffffffffffffffffffffffffffff1673ffffffffffffffffffffffffffffffffffffffff1673ffffffffffffffffffffffffffffffffffffffff1681526020016001820160149054906101000a900460ff166001811115610b3a577f4e487b7100000000000000000000000000000000000000000000000000000000600052602160045260246000fd5b6001811115610b72577f4e487b7100000000000000000000000000000000000000000000000000000000600052602160045260246000fd5b8152602001600282015481526020016003820154815260200160048201548152505081526020019060010190610a6c565b50505050905092915050565b80600073ffffffffffffffffffffffffffffffffffffffff166001600083815260200190815260200160002060010160009054906101000a900473ffffffffffffffffffffffffffffffffffffffff1673ffffffffffffffffffffffffffffffffffffffff161415610c56576040517f08c379a0000000000000000000000000000000000000000000000000000000008152600401610c4d90612740565b60405180910390fd5b60008311610c99576040517f08c379a0000000000000000000000000000000000000000000000000000000008152600401610c9090612780565b60405180910390fd5b610cfc83600360003373ffffffffffffffffffffffffffffffffffffffff1673ffffffffffffffffffffffffffffffffffffffff168152602001908152602001600020600085815260200190815260200160002054611fe490919063ffffffff16565b600360003373ffffffffffffffffffffffffffffffffffffffff1673ffffffffffffffffffffffffffffffffffffffff1681526020019081526020016000206000848152602001908152602001600020819055506001600083815260200190815260200160002060010160009054906101000a900473ffffffffffffffffffffffffffffffffffffffff1673ffffffffffffffffffffffffffffffffffffffff166323b872dd3330866040518463ffffffff1660e01b8152600401610dc39392919061263a565b602060405180830381600087803b158015610ddd57600080fd5b505af1158015610df1573d6000803e3d6000fd5b505050506040513d601f19601f82011682018060405250810190610e159190612165565b50505050565b610e23612010565b60006001811115610e5d577f4e487b7100000000000000000000000000000000000000000000000000000000600052602160045260246000fd5b846001811115610e96577f4e487b7100000000000000000000000000000000000000000000000000000000600052602160045260246000fd5b1415610f6657610eaf8383611ffa90919063ffffffff16565b600360003373ffffffffffffffffffffffffffffffffffffffff1673ffffffffffffffffffffffffffffffffffffffff16815260200190815260200160002060007f45544800000000000000000000000000000000000000000000000000000000008152602001908152602001600020541015610f61576040517f08c379a0000000000000000000000000000000000000000000000000000000008152600401610f58906127c0565b60405180910390fd5b611073565b600180811115610f9f577f4e487b7100000000000000000000000000000000000000000000000000000000600052602160045260246000fd5b846001811115610fd8577f4e487b7100000000000000000000000000000000000000000000000000000000600052602160045260246000fd5b14156110725781600360003373ffffffffffffffffffffffffffffffffffffffff1673ffffffffffffffffffffffffffffffffffffffff1681526020019081526020016000206000878152602001908152602001600020541015611071576040517f08c379a0000000000000000000000000000000000000000000000000000000008152600401611068906127a0565b60405180910390fd5b5b5b60006004600087815260200190815260200160002060008660018111156110c3577f4e487b7100000000000000000000000000000000000000000000000000000000600052602160045260246000fd5b81526020019081526020016000209050806040518060c0016040528060055481526020013373ffffffffffffffffffffffffffffffffffffffff16815260200187600181111561113c577f4e487b7100000000000000000000000000000000000000000000000000000000600052602160045260246000fd5b81526020018881526020018581526020018681525090806001815401808255809150506001900390600052602060002090600502016000909190919091506000820151816000015560208201518160010160006101000a81548173ffffffffffffffffffffffffffffffffffffffff021916908373ffffffffffffffffffffffffffffffffffffffff16021790555060408201518160010160146101000a81548160ff0219169083600181111561121c577f4e487b7100000000000000000000000000000000000000000000000000000000600052602160045260246000fd5b0217905550606082015181600201556080820151816003015560a0820151816004015550506112576001600554611fe490919063ffffffff16565b60058190555060006001811115611297577f4e487b7100000000000000000000000000000000000000000000000000000000600052602160045260246000fd5b8560018111156112d0577f4e487b7100000000000000000000000000000000000000000000000000000000600052602160045260246000fd5b14156117be576000600182805490506112e99190612971565b90505b60008111156117b857816001826113039190612971565b8154811061133a577f4e487b7100000000000000000000000000000000000000000000000000000000600052603260045260246000fd5b906000526020600020906005020160040154828281548110611385577f4e487b7100000000000000000000000000000000000000000000000000000000600052603260045260246000fd5b90600052602060002090600502016004015411156117a55760008282815481106113d8577f4e487b7100000000000000000000000000000000000000000000000000000000600052603260045260246000fd5b90600052602060002090600502016040518060c0016040529081600082015481526020016001820160009054906101000a900473ffffffffffffffffffffffffffffffffffffffff1673ffffffffffffffffffffffffffffffffffffffff1673ffffffffffffffffffffffffffffffffffffffff1681526020016001820160149054906101000a900460ff16600181111561149c577f4e487b7100000000000000000000000000000000000000000000000000000000600052602160045260246000fd5b60018111156114d4577f4e487b7100000000000000000000000000000000000000000000000000000000600052602160045260246000fd5b815260200160028201548152602001600382015481526020016004820154815250509050826001836115069190612971565b8154811061153d577f4e487b7100000000000000000000000000000000000000000000000000000000600052603260045260246000fd5b9060005260206000209060050201838381548110611584577f4e487b7100000000000000000000000000000000000000000000000000000000600052603260045260246000fd5b9060005260206000209060050201600082015481600001556001820160009054906101000a900473ffffffffffffffffffffffffffffffffffffffff168160010160006101000a81548173ffffffffffffffffffffffffffffffffffffffff021916908373ffffffffffffffffffffffffffffffffffffffff1602179055506001820160149054906101000a900460ff168160010160146101000a81548160ff02191690836001811115611661577f4e487b7100000000000000000000000000000000000000000000000000000000600052602160045260246000fd5b021790555060028201548160020155600382015481600301556004820154816004015590505080836001846116969190612971565b815481106116cd577f4e487b7100000000000000000000000000000000000000000000000000000000600052603260045260246000fd5b90600052602060002090600502016000820151816000015560208201518160010160006101000a81548173ffffffffffffffffffffffffffffffffffffffff021916908373ffffffffffffffffffffffffffffffffffffffff16021790555060408201518160010160146101000a81548160ff0219169083600181111561177d577f4e487b7100000000000000000000000000000000000000000000000000000000600052602160045260246000fd5b0217905550606082015181600201556080820151816003015560a08201518160040155905050505b80806117b090612a1c565b9150506112ec565b50611d1b565b6001808111156117f7577f4e487b7100000000000000000000000000000000000000000000000000000000600052602160045260246000fd5b856001811115611830577f4e487b7100000000000000000000000000000000000000000000000000000000600052602160045260246000fd5b1415611d1a576000600182805490506118499190612971565b90505b6000811115611d1857816001826118639190612971565b8154811061189a577f4e487b7100000000000000000000000000000000000000000000000000000000600052603260045260246000fd5b9060005260206000209060050201600401548282815481106118e5577f4e487b7100000000000000000000000000000000000000000000000000000000600052603260045260246000fd5b9060005260206000209060050201600401541015611d05576000828281548110611938577f4e487b7100000000000000000000000000000000000000000000000000000000600052603260045260246000fd5b90600052602060002090600502016040518060c0016040529081600082015481526020016001820160009054906101000a900473ffffffffffffffffffffffffffffffffffffffff1673ffffffffffffffffffffffffffffffffffffffff1673ffffffffffffffffffffffffffffffffffffffff1681526020016001820160149054906101000a900460ff1660018111156119fc577f4e487b7100000000000000000000000000000000000000000000000000000000600052602160045260246000fd5b6001811115611a34577f4e487b7100000000000000000000000000000000000000000000000000000000600052602160045260246000fd5b81526020016002820154815260200160038201548152602001600482015481525050905082600183611a669190612971565b81548110611a9d577f4e487b7100000000000000000000000000000000000000000000000000000000600052603260045260246000fd5b9060005260206000209060050201838381548110611ae4577f4e487b7100000000000000000000000000000000000000000000000000000000600052603260045260246000fd5b9060005260206000209060050201600082015481600001556001820160009054906101000a900473ffffffffffffffffffffffffffffffffffffffff168160010160006101000a81548173ffffffffffffffffffffffffffffffffffffffff021916908373ffffffffffffffffffffffffffffffffffffffff1602179055506001820160149054906101000a900460ff168160010160146101000a81548160ff02191690836001811115611bc1577f4e487b7100000000000000000000000000000000000000000000000000000000600052602160045260246000fd5b02179055506002820154816002015560038201548160030155600482015481600401559050508083600184611bf69190612971565b81548110611c2d577f4e487b7100000000000000000000000000000000000000000000000000000000600052603260045260246000fd5b90600052602060002090600502016000820151816000015560208201518160010160006101000a81548173ffffffffffffffffffffffffffffffffffffffff021916908373ffffffffffffffffffffffffffffffffffffffff16021790555060408201518160010160146101000a81548160ff02191690836001811115611cdd577f4e487b7100000000000000000000000000000000000000000000000000000000600052602160045260246000fd5b0217905550606082015181600201556080820151816003015560a08201518160040155905050505b8080611d1090612a1c565b91505061184c565b505b5b50949350505050565b611d2c611fc6565b73ffffffffffffffffffffffffffffffffffffffff16611d4a6105ac565b73ffffffffffffffffffffffffffffffffffffffff1614611da0576040517f08c379a0000000000000000000000000000000000000000000000000000000008152600401611d9790612760565b60405180910390fd5b600073ffffffffffffffffffffffffffffffffffffffff168173ffffffffffffffffffffffffffffffffffffffff161415611e10576040517f08c379a0000000000000000000000000000000000000000000000000000000008152600401611e0790612720565b60405180910390fd5b8073ffffffffffffffffffffffffffffffffffffffff1660008054906101000a900473ffffffffffffffffffffffffffffffffffffffff1673ffffffffffffffffffffffffffffffffffffffff167f8be0079c531659141344cd1fd0a4f28419497f9722a3daafe3b4186f6b6457e060405160405180910390a3806000806101000a81548173ffffffffffffffffffffffffffffffffffffffff021916908373ffffffffffffffffffffffffffffffffffffffff16021790555050565b611f5034600360003373ffffffffffffffffffffffffffffffffffffffff1673ffffffffffffffffffffffffffffffffffffffff16815260200190815260200160002060007f4554480000000000000000000000000000000000000000000000000000000000815260200190815260200160002054611fe490919063ffffffff16565b600360003373ffffffffffffffffffffffffffffffffffffffff1673ffffffffffffffffffffffffffffffffffffffff16815260200190815260200160002060007f4554480000000000000000000000000000000000000000000000000000000000815260200190815260200160002081905550565b600033905090565b60008183611fdc9190612971565b905092915050565b60008183611ff291906128c1565b905092915050565b600081836120089190612917565b905092915050565b6040518060c0016040528060008152602001600073ffffffffffffffffffffffffffffffffffffffff16815260200160006001811115612079577f4e487b7100000000000000000000000000000000000000000000000000000000600052602160045260246000fd5b81526020016000801916815260200160008152602001600081525090565b6000813590506120a681612bfd565b92915050565b6000815190506120bb81612c14565b92915050565b6000813590506120d081612c2b565b92915050565b6000813590506120e581612c42565b92915050565b6000813590506120fa81612c52565b92915050565b60006020828403121561211257600080fd5b600061212084828501612097565b91505092915050565b6000806040838503121561213c57600080fd5b600061214a85828601612097565b925050602061215b858286016120c1565b9150509250929050565b60006020828403121561217757600080fd5b6000612185848285016120ac565b91505092915050565b6000602082840312156121a057600080fd5b60006121ae848285016120c1565b91505092915050565b600080604083850312156121ca57600080fd5b60006121d8858286016120c1565b92505060206121e985828601612097565b9150509250929050565b6000806040838503121561220657600080fd5b6000612214858286016120c1565b9250506020612225858286016120d6565b9150509250929050565b6000806000806080858703121561224557600080fd5b6000612253878288016120c1565b9450506020612264878288016120d6565b9350506040612275878288016120eb565b9250506060612286878288016120eb565b91505092959194509250565b6000806000606084860312156122a757600080fd5b60006122b5868287016120c1565b93505060206122c6868287016120eb565b92505060406122d7868287016120eb565b9150509250925092565b6000602082840312156122f357600080fd5b6000612301848285016120eb565b91505092915050565b6000806040838503121561231d57600080fd5b600061232b858286016120eb565b925050602061233c858286016120c1565b9150509250929050565b6000612352838361250b565b60c08301905092915050565b612367816129a5565b82525050565b612376816129a5565b82525050565b600061238782612887565b612391818561289f565b935061239c83612877565b8060005b838110156123cd5781516123b48882612346565b97506123bf83612892565b9250506001810190506123a0565b5085935050505092915050565b6123e3816129c3565b82525050565b6123f2816129c3565b82525050565b61240181612a0a565b82525050565b61241081612a0a565b82525050565b60006124236017836128b0565b915061242e82612aa4565b602082019050919050565b60006124466026836128b0565b915061245182612acd565b604082019050919050565b6000612469601e836128b0565b915061247482612b1c565b602082019050919050565b600061248c6020836128b0565b915061249782612b45565b602082019050919050565b60006124af601a836128b0565b91506124ba82612b6e565b602082019050919050565b60006124d2601e836128b0565b91506124dd82612b97565b602082019050919050565b60006124f5601a836128b0565b915061250082612bc0565b602082019050919050565b60c0820160008201516125216000850182612601565b506020820151612534602085018261235e565b50604082015161254760408501826123f8565b50606082015161255a60608501826123da565b50608082015161256d6080850182612601565b5060a082015161258060a0850182612601565b50505050565b60c08201600082015161259c6000850182612601565b5060208201516125af602085018261235e565b5060408201516125c260408501826123f8565b5060608201516125d560608501826123da565b5060808201516125e86080850182612601565b5060a08201516125fb60a0850182612601565b50505050565b61260a81612a00565b82525050565b61261981612a00565b82525050565b6000602082019050612634600083018461236d565b92915050565b600060608201905061264f600083018661236d565b61265c602083018561236d565b6126696040830184612610565b949350505050565b6000604082019050612686600083018561236d565b6126936020830184612610565b9392505050565b600060208201905081810360008301526126b4818461237c565b905092915050565b60006020820190506126d160008301846123e9565b92915050565b60006040820190506126ec60008301856123e9565b6126f9602083018461236d565b9392505050565b6000602082019050818103600083015261271981612416565b9050919050565b6000602082019050818103600083015261273981612439565b9050919050565b600060208201905081810360008301526127598161245c565b9050919050565b600060208201905081810360008301526127798161247f565b9050919050565b60006020820190508181036000830152612799816124a2565b9050919050565b600060208201905081810360008301526127b9816124c5565b9050919050565b600060208201905081810360008301526127d9816124e8565b9050919050565b600060c0820190506127f56000830184612586565b92915050565b60006020820190506128106000830184612610565b92915050565b600060c08201905061282b6000830189612610565b612838602083018861236d565b6128456040830187612407565b61285260608301866123e9565b61285f6080830185612610565b61286c60a0830184612610565b979650505050505050565b6000819050602082019050919050565b600081519050919050565b6000602082019050919050565b600082825260208201905092915050565b600082825260208201905092915050565b60006128cc82612a00565b91506128d783612a00565b9250827fffffffffffffffffffffffffffffffffffffffffffffffffffffffffffffffff0382111561290c5761290b612a46565b5b828201905092915050565b600061292282612a00565b915061292d83612a00565b9250817fffffffffffffffffffffffffffffffffffffffffffffffffffffffffffffffff048311821515161561296657612965612a46565b5b828202905092915050565b600061297c82612a00565b915061298783612a00565b92508282101561299a57612999612a46565b5b828203905092915050565b60006129b0826129e0565b9050919050565b60008115159050919050565b6000819050919050565b60008190506129db82612be9565b919050565b600073ffffffffffffffffffffffffffffffffffffffff82169050919050565b6000819050919050565b6000612a15826129cd565b9050919050565b6000612a2782612a00565b91506000821415612a3b57612a3a612a46565b5b600182039050919050565b7f4e487b7100000000000000000000000000000000000000000000000000000000600052601160045260246000fd5b7f4e487b7100000000000000000000000000000000000000000000000000000000600052602160045260246000fd5b7f42616c616e6365206e6f742073756666696369656e7421000000000000000000600082015250565b7f4f776e61626c653a206e6577206f776e657220697320746865207a65726f206160008201527f6464726573730000000000000000000000000000000000000000000000000000602082015250565b7f556e6b6e6f776e20746f6b656e3b20616464546f6b656e206669727374210000600082015250565b7f4f776e61626c653a2063616c6c6572206973206e6f7420746865206f776e6572600082015250565b7f41736b656420746f206465706f736974203020746f6b656e7321000000000000600082015250565b7f546f6f2066657720746f6b656e7320666f722073656c6c206f72646572210000600082015250565b7f4e6f7420656e6f75676820455448206f6e206465706f73697421000000000000600082015250565b60028110612bfa57612bf9612a75565b5b50565b612c06816129a5565b8114612c1157600080fd5b50565b612c1d816129b7565b8114612c2857600080fd5b50565b612c34816129c3565b8114612c3f57600080fd5b50565b60028110612c4f57600080fd5b50565b612c5b81612a00565b8114612c6657600080fd5b5056fea26469706673582212205d0cc8f7fcdef00189739b51b9798c53f10a155ee54046302c22a6501190e45f64736f6c63430008040033",
  "immutableReferences": {},
  "source": "pragma solidity ^0.8.0;\npragma experimental ABIEncoderV2;\n\n// TODO - import Wallet (via an interface??)\nimport \"./Wallet.sol\";\n\ncontract Dex is Wallet {\n\n    using SafeMath for uint256;\n\n    enum Side {\n        BUY,\n        SELL\n    }\n\n    struct Order {\n        uint id;\n        address trader;\n        Side side;\n        bytes32 ticker;\n        uint amount;\n        uint price; \n    }\n    // order.side = Side.BUY;\n\n    mapping(bytes32 => mapping(uint => Order[])) public orderBook;    //Ticker => (Side => orders)\n\n    uint nextOrderId = 1;\n\n    function getOrderBook(bytes32 ticker, Side side) view public returns(Order[] memory) {\n        return(orderBook[ticker][uint(side)]);\n    }\n    // Note: Call would be :\n    //  getOrderBook(bytes32(\"LINK\"), Side.BUY);\n\n/*\n    function createLimitOrder(bytes32 ticker, Side side, uint price, uint amount)\n        external\n        isKnownToken(ticker)\n        returns(Order memory limitOrder) \n    {\n    //     // TODO\n        return limitOrder;\n    }\n*/\n\n    function createLimitOrder(bytes32 ticker, Side side, uint price, uint amount)\n        external\n        returns(Order memory limitOrder) \n    {\n        if (side == Side.BUY) {\n            require(\n                balances[msg.sender][\"ETH\"] >= amount.mul(price),\n                \"Not enough ETH on deposit!\"\n            );\n        }\n        else if (side == Side.SELL) {\n            require(\n                balances[msg.sender][ticker] >= amount,\n                \"Too few tokens for sell order!\"\n            );\n        }\n        \n        Order[] storage orders = orderBook[ticker][uint(side)];\n        orders.push(\n            Order(nextOrderId, msg.sender, side, ticker, amount, price)\n        );\n        nextOrderId = nextOrderId.add(1);\n\n        // Sort the orders on price (employing one-pass bubble sort).\n        // Note: Only new order (last order in array due to push) needs sorting,\n        // since all previous orders have already been sorted.\n        if (side == Side.BUY) {\n        // Buy-side order prices should be ordered highest -> lowest, e.g [10, 7, 5, 3]\n            for (uint i=orders.length-1; i>0; i--) {\n                if (orders[i].price > orders[i-1].price) { // needs sorting\n                    // swap the two elements\n                    Order memory higherPricedOrder = orders[i];\n                    orders[i] = orders[i-1]; \n                    orders[i-1] = higherPricedOrder;\n                } \n            }\n        }\n        else if (side == Side.SELL) {\n        // Sell-side order prices should be ordered lowest -> highest, e.g [3, 5, 7, 10]\n            for (uint i=orders.length-1; i>0; i--) { // Since we push each new order, sort from end of array\n                if (orders[i].price < orders[i-1].price) { /// needs sorting\n                    // swap the two elements\n                    Order memory lowerPricedOrder = orders[i];\n                    orders[i] = orders[i-1]; \n                    orders[i-1] = lowerPricedOrder;\n                } \n            }\n        }\n\n\n    }\n\n\n    function depositETH() public payable {\n        balances[msg.sender][\"ETH\"] = balances[msg.sender][\"ETH\"].add(msg.value);\n    }\n\n\n    function getETHBalance() view public returns(uint ethBalance){\n\n    }\n\n\n\n}",
  "sourcePath": "/Users/Mark/Documents/BlockChain/IvanOnTechAcademy/Solidity - Smart Contract Programming 201/DEX-Project/contracts/Dex.sol",
  "compiler": {
    "name": "solc",
    "version": "0.8.4+commit.c7e474f2.Emscripten.clang"
  },
  "schemaVersion": "3.4.0",
  "updatedAt": "2021-05-10T12:19:55.442Z",
  "networkType": "ethereum",
  "devdoc": {
    "kind": "dev",
    "methods": {
      "owner()": {
        "details": "Returns the address of the current owner."
      },
      "renounceOwnership()": {
        "details": "Leaves the contract without owner. It will not be possible to call `onlyOwner` functions anymore. Can only be called by the current owner. NOTE: Renouncing ownership will leave the contract without an owner, thereby removing any functionality that is only available to the owner."
      },
      "transferOwnership(address)": {
        "details": "Transfers ownership of the contract to a new account (`newOwner`). Can only be called by the current owner."
      }
    },
    "version": 1
  },
  "userdoc": {
    "kind": "user",
    "methods": {},
    "version": 1
  }
}