{
  "contractName": "Dex",
  "abi": [
    {
      "anonymous": false,
      "inputs": [
        {
          "indexed": true,
          "internalType": "address",
          "name": "previousOwner",
          "type": "address"
        },
        {
          "indexed": true,
          "internalType": "address",
          "name": "newOwner",
          "type": "address"
        }
      ],
      "name": "OwnershipTransferred",
      "type": "event"
    },
    {
      "inputs": [
        {
          "internalType": "bytes32",
          "name": "ticker",
          "type": "bytes32"
        },
        {
          "internalType": "address",
          "name": "tokenAddress",
          "type": "address"
        }
      ],
      "name": "addToken",
      "outputs": [],
      "stateMutability": "nonpayable",
      "type": "function"
    },
    {
      "inputs": [
        {
          "internalType": "address",
          "name": "",
          "type": "address"
        },
        {
          "internalType": "bytes32",
          "name": "",
          "type": "bytes32"
        }
      ],
      "name": "balances",
      "outputs": [
        {
          "internalType": "uint256",
          "name": "",
          "type": "uint256"
        }
      ],
      "stateMutability": "view",
      "type": "function"
    },
    {
      "inputs": [
        {
          "internalType": "uint256",
          "name": "amount",
          "type": "uint256"
        },
        {
          "internalType": "bytes32",
          "name": "ticker",
          "type": "bytes32"
        }
      ],
      "name": "deposit",
      "outputs": [],
      "stateMutability": "nonpayable",
      "type": "function"
    },
    {
      "inputs": [
        {
          "internalType": "address",
          "name": "account",
          "type": "address"
        },
        {
          "internalType": "bytes32",
          "name": "ticker",
          "type": "bytes32"
        }
      ],
      "name": "getBalance",
      "outputs": [
        {
          "internalType": "uint256",
          "name": "amount",
          "type": "uint256"
        }
      ],
      "stateMutability": "view",
      "type": "function"
    },
    {
      "inputs": [
        {
          "internalType": "bytes32",
          "name": "",
          "type": "bytes32"
        },
        {
          "internalType": "uint256",
          "name": "",
          "type": "uint256"
        },
        {
          "internalType": "uint256",
          "name": "",
          "type": "uint256"
        }
      ],
      "name": "orderBook",
      "outputs": [
        {
          "internalType": "uint256",
          "name": "id",
          "type": "uint256"
        },
        {
          "internalType": "address",
          "name": "trader",
          "type": "address"
        },
        {
          "internalType": "enum Dex.Side",
          "name": "side",
          "type": "uint8"
        },
        {
          "internalType": "bytes32",
          "name": "ticker",
          "type": "bytes32"
        },
        {
          "internalType": "uint256",
          "name": "amount",
          "type": "uint256"
        },
        {
          "internalType": "uint256",
          "name": "price",
          "type": "uint256"
        },
        {
          "internalType": "uint256",
          "name": "filled",
          "type": "uint256"
        }
      ],
      "stateMutability": "view",
      "type": "function"
    },
    {
      "inputs": [],
      "name": "owner",
      "outputs": [
        {
          "internalType": "address",
          "name": "",
          "type": "address"
        }
      ],
      "stateMutability": "view",
      "type": "function"
    },
    {
      "inputs": [],
      "name": "renounceOwnership",
      "outputs": [],
      "stateMutability": "nonpayable",
      "type": "function"
    },
    {
      "inputs": [
        {
          "internalType": "uint256",
          "name": "",
          "type": "uint256"
        }
      ],
      "name": "tokenList",
      "outputs": [
        {
          "internalType": "bytes32",
          "name": "",
          "type": "bytes32"
        }
      ],
      "stateMutability": "view",
      "type": "function"
    },
    {
      "inputs": [
        {
          "internalType": "bytes32",
          "name": "",
          "type": "bytes32"
        }
      ],
      "name": "tokenMapping",
      "outputs": [
        {
          "internalType": "bytes32",
          "name": "ticker",
          "type": "bytes32"
        },
        {
          "internalType": "address",
          "name": "tokenAddress",
          "type": "address"
        }
      ],
      "stateMutability": "view",
      "type": "function"
    },
    {
      "inputs": [
        {
          "internalType": "address",
          "name": "newOwner",
          "type": "address"
        }
      ],
      "name": "transferOwnership",
      "outputs": [],
      "stateMutability": "nonpayable",
      "type": "function"
    },
    {
      "inputs": [
        {
          "internalType": "uint256",
          "name": "amount",
          "type": "uint256"
        },
        {
          "internalType": "bytes32",
          "name": "ticker",
          "type": "bytes32"
        }
      ],
      "name": "withdraw",
      "outputs": [],
      "stateMutability": "nonpayable",
      "type": "function"
    },
    {
      "inputs": [],
      "name": "depositETH",
      "outputs": [],
      "stateMutability": "payable",
      "type": "function"
    },
    {
      "inputs": [
        {
          "internalType": "bytes32",
          "name": "ticker",
          "type": "bytes32"
        },
        {
          "internalType": "enum Dex.Side",
          "name": "side",
          "type": "uint8"
        }
      ],
      "name": "getOrderBook",
      "outputs": [
        {
          "components": [
            {
              "internalType": "uint256",
              "name": "id",
              "type": "uint256"
            },
            {
              "internalType": "address",
              "name": "trader",
              "type": "address"
            },
            {
              "internalType": "enum Dex.Side",
              "name": "side",
              "type": "uint8"
            },
            {
              "internalType": "bytes32",
              "name": "ticker",
              "type": "bytes32"
            },
            {
              "internalType": "uint256",
              "name": "amount",
              "type": "uint256"
            },
            {
              "internalType": "uint256",
              "name": "price",
              "type": "uint256"
            },
            {
              "internalType": "uint256",
              "name": "filled",
              "type": "uint256"
            }
          ],
          "internalType": "struct Dex.Order[]",
          "name": "",
          "type": "tuple[]"
        }
      ],
      "stateMutability": "view",
      "type": "function"
    },
    {
      "inputs": [
        {
          "internalType": "bytes32",
          "name": "ticker",
          "type": "bytes32"
        },
        {
          "internalType": "enum Dex.Side",
          "name": "side",
          "type": "uint8"
        },
        {
          "internalType": "uint256",
          "name": "price",
          "type": "uint256"
        },
        {
          "internalType": "uint256",
          "name": "amount",
          "type": "uint256"
        }
      ],
      "name": "createLimitOrder",
      "outputs": [],
      "stateMutability": "nonpayable",
      "type": "function"
    },
    {
      "inputs": [
        {
          "internalType": "bytes32",
          "name": "ticker",
          "type": "bytes32"
        },
        {
          "internalType": "enum Dex.Side",
          "name": "side",
          "type": "uint8"
        },
        {
          "internalType": "uint256",
          "name": "amount",
          "type": "uint256"
        }
      ],
      "name": "createMarketOrder",
      "outputs": [],
      "stateMutability": "nonpayable",
      "type": "function"
    }
  ],
  "bytecode": "0x608060405260016005553480156200001657600080fd5b50600062000029620000cd60201b60201c565b9050806000806101000a81548173ffffffffffffffffffffffffffffffffffffffff021916908373ffffffffffffffffffffffffffffffffffffffff1602179055508073ffffffffffffffffffffffffffffffffffffffff16600073ffffffffffffffffffffffffffffffffffffffff167f8be0079c531659141344cd1fd0a4f28419497f9722a3daafe3b4186f6b6457e060405160405180910390a350620000d5565b600033905090565b61372180620000e56000396000f3fe6080604052600436106100e85760003560e01c80639ead72221161008a578063c9630cb011610059578063c9630cb01461031f578063ed25c4d314610348578063f2fde38b14610371578063f6326fb31461039a576100e8565b80639ead72221461023f578063a8d2021a1461027c578063ba58ea68146102a5578063c79d5ec5146102e2576100e8565b8063667cb4ba116100c6578063667cb4ba14610196578063715018a6146101d45780638da5cb5b146101eb5780639776aacf14610216576100e8565b80630bb431b6146100ed5780631f14df691461013057806350b20afd1461016d575b600080fd5b3480156100f957600080fd5b50610114600480360381019061010f9190612c68565b6103a4565b60405161012797969594939291906131ef565b60405180910390f35b34801561013c57600080fd5b5061015760048036038101906101529190612ab0565b61043d565b60405161016491906131d4565b60405180910390f35b34801561017957600080fd5b50610194600480360381019061018f9190612bb6565b610462565b005b3480156101a257600080fd5b506101bd60048036038101906101b89190612b15565b610bd8565b6040516101cb92919061308b565b60405180910390f35b3480156101e057600080fd5b506101e9610c1c565b005b3480156101f757600080fd5b50610200610d56565b60405161020d9190612fd3565b60405180910390f35b34801561022257600080fd5b5061023d60048036038101906102389190612b3e565b610d7f565b005b34801561024b57600080fd5b5061026660048036038101906102619190612cb7565b610eba565b6040516102739190613070565b60405180910390f35b34801561028857600080fd5b506102a3600480360381019061029e9190612ce0565b610ede565b005b3480156102b157600080fd5b506102cc60048036038101906102c79190612b7a565b611148565b6040516102d9919061304e565b60405180910390f35b3480156102ee57600080fd5b5061030960048036038101906103049190612ab0565b611313565b60405161031691906131d4565b60405180910390f35b34801561032b57600080fd5b5061034660048036038101906103419190612ce0565b61136e565b005b34801561035457600080fd5b5061036f600480360381019061036a9190612c05565b61158a565b005b34801561037d57600080fd5b5061039860048036038101906103939190612a87565b611b49565b005b6103a2611cf2565b005b600460205282600052604060002060205281600052604060002081815481106103cc57600080fd5b906000526020600020906006020160009250925050508060000154908060010160009054906101000a900473ffffffffffffffffffffffffffffffffffffffff16908060010160149054906101000a900460ff16908060020154908060030154908060040154908060050154905087565b6003602052816000526040600020602052806000526040600020600091509150505481565b82600073ffffffffffffffffffffffffffffffffffffffff166001600083815260200190815260200160002060010160009054906101000a900473ffffffffffffffffffffffffffffffffffffffff1673ffffffffffffffffffffffffffffffffffffffff161415610509576040517f08c379a000000000000000000000000000000000000000000000000000000000815260040161050090613114565b60405180910390fd5b6000600180811115610544577f4e487b7100000000000000000000000000000000000000000000000000000000600052602160045260246000fd5b84600181111561057d577f4e487b7100000000000000000000000000000000000000000000000000000000600052602160045260246000fd5b14156105e95782600360003373ffffffffffffffffffffffffffffffffffffffff1673ffffffffffffffffffffffffffffffffffffffff16815260200190815260200160002060008781526020019081526020016000205410156105e057600080fd5b600090506106a7565b60006001811115610623577f4e487b7100000000000000000000000000000000000000000000000000000000600052602160045260246000fd5b84600181111561065c577f4e487b7100000000000000000000000000000000000000000000000000000000600052602160045260246000fd5b141561066b57600190506106a6565b6040517f08c379a000000000000000000000000000000000000000000000000000000000815260040161069d906130f4565b60405180910390fd5b5b60006004600087815260200190815260200160002060008381526020019081526020016000209050600080600090505b8280549050811080156106e957508582105b15610bc557600082876106fc9190613358565b905080848381548110610738577f4e487b7100000000000000000000000000000000000000000000000000000000600052603260045260246000fd5b906000526020600020906006020160050154858481548110610783577f4e487b7100000000000000000000000000000000000000000000000000000000600052603260045260246000fd5b90600052602060002090600602016003015461079f9190613358565b1061091057808483815481106107de577f4e487b7100000000000000000000000000000000000000000000000000000000600052603260045260246000fd5b906000526020600020906006020160050160008282546107fe91906132a8565b92505081905550808361081191906132a8565b9250868314610849577f4e487b7100000000000000000000000000000000000000000000000000000000600052600160045260246000fd5b61090b33858481548110610886577f4e487b7100000000000000000000000000000000000000000000000000000000600052603260045260246000fd5b906000526020600020906006020160010160009054906101000a900473ffffffffffffffffffffffffffffffffffffffff168b848887815481106108f3577f4e487b7100000000000000000000000000000000000000000000000000000000600052603260045260246000fd5b9060005260206000209060060201600401548d611d7b565b610bb1565b600084838154811061094b577f4e487b7100000000000000000000000000000000000000000000000000000000600052603260045260246000fd5b906000526020600020906006020160050154858481548110610996577f4e487b7100000000000000000000000000000000000000000000000000000000600052603260045260246000fd5b9060005260206000209060060201600301546109b29190613358565b9050808584815481106109ee577f4e487b7100000000000000000000000000000000000000000000000000000000600052603260045260246000fd5b90600052602060002090600602016005016000828254610a0e91906132a8565b925050819055508084610a2191906132a8565b9350848381548110610a5c577f4e487b7100000000000000000000000000000000000000000000000000000000600052603260045260246000fd5b906000526020600020906006020160030154858481548110610aa7577f4e487b7100000000000000000000000000000000000000000000000000000000600052603260045260246000fd5b90600052602060002090600602016005015414610aed577f4e487b7100000000000000000000000000000000000000000000000000000000600052600160045260246000fd5b610baf33868581548110610b2a577f4e487b7100000000000000000000000000000000000000000000000000000000600052603260045260246000fd5b906000526020600020906006020160010160009054906101000a900473ffffffffffffffffffffffffffffffffffffffff168c84898881548110610b97577f4e487b7100000000000000000000000000000000000000000000000000000000600052603260045260246000fd5b9060005260206000209060060201600401548e611d7b565b505b508080610bbd9061342d565b9150506106d7565b50610bcf82611ee0565b50505050505050565b60016020528060005260406000206000915090508060000154908060010160009054906101000a900473ffffffffffffffffffffffffffffffffffffffff16905082565b610c24612235565b73ffffffffffffffffffffffffffffffffffffffff16610c42610d56565b73ffffffffffffffffffffffffffffffffffffffff1614610c98576040517f08c379a0000000000000000000000000000000000000000000000000000000008152600401610c8f90613134565b60405180910390fd5b600073ffffffffffffffffffffffffffffffffffffffff1660008054906101000a900473ffffffffffffffffffffffffffffffffffffffff1673ffffffffffffffffffffffffffffffffffffffff167f8be0079c531659141344cd1fd0a4f28419497f9722a3daafe3b4186f6b6457e060405160405180910390a360008060006101000a81548173ffffffffffffffffffffffffffffffffffffffff021916908373ffffffffffffffffffffffffffffffffffffffff160217905550565b60008060009054906101000a900473ffffffffffffffffffffffffffffffffffffffff16905090565b610d87612235565b73ffffffffffffffffffffffffffffffffffffffff16610da5610d56565b73ffffffffffffffffffffffffffffffffffffffff1614610dfb576040517f08c379a0000000000000000000000000000000000000000000000000000000008152600401610df290613134565b60405180910390fd5b60405180604001604052808381526020018273ffffffffffffffffffffffffffffffffffffffff16815250600160008481526020019081526020016000206000820151816000015560208201518160010160006101000a81548173ffffffffffffffffffffffffffffffffffffffff021916908373ffffffffffffffffffffffffffffffffffffffff16021790555090505060028290806001815401808255809150506001900390600052602060002001600090919091909150555050565b60028181548110610eca57600080fd5b906000526020600020016000915090505481565b80600073ffffffffffffffffffffffffffffffffffffffff166001600083815260200190815260200160002060010160009054906101000a900473ffffffffffffffffffffffffffffffffffffffff1673ffffffffffffffffffffffffffffffffffffffff161415610f85576040517f08c379a0000000000000000000000000000000000000000000000000000000008152600401610f7c90613114565b60405180910390fd5b82600360003373ffffffffffffffffffffffffffffffffffffffff1673ffffffffffffffffffffffffffffffffffffffff1681526020019081526020016000206000848152602001908152602001600020541015611018576040517f08c379a000000000000000000000000000000000000000000000000000000000815260040161100f906130b4565b60405180910390fd5b82600360003373ffffffffffffffffffffffffffffffffffffffff1673ffffffffffffffffffffffffffffffffffffffff1681526020019081526020016000206000848152602001908152602001600020600082825461107891906132a8565b925050819055506001600083815260200190815260200160002060010160009054906101000a900473ffffffffffffffffffffffffffffffffffffffff1673ffffffffffffffffffffffffffffffffffffffff1663a9059cbb33856040518363ffffffff1660e01b81526004016110f0929190613025565b602060405180830381600087803b15801561110a57600080fd5b505af115801561111e573d6000803e3d6000fd5b505050506040513d601f19601f820116820180604052508101906111429190612aec565b50505050565b6060600460008481526020019081526020016000206000836001811115611198577f4e487b7100000000000000000000000000000000000000000000000000000000600052602160045260246000fd5b8152602001908152602001600020805480602002602001604051908101604052809291908181526020016000905b8282101561130757838290600052602060002090600602016040518060e0016040529081600082015481526020016001820160009054906101000a900473ffffffffffffffffffffffffffffffffffffffff1673ffffffffffffffffffffffffffffffffffffffff1673ffffffffffffffffffffffffffffffffffffffff1681526020016001820160149054906101000a900460ff166001811115611294577f4e487b7100000000000000000000000000000000000000000000000000000000600052602160045260246000fd5b60018111156112cc577f4e487b7100000000000000000000000000000000000000000000000000000000600052602160045260246000fd5b8152602001600282015481526020016003820154815260200160048201548152602001600582015481525050815260200190600101906111c6565b50505050905092915050565b6000600360008473ffffffffffffffffffffffffffffffffffffffff1673ffffffffffffffffffffffffffffffffffffffff168152602001908152602001600020600083815260200190815260200160002054905092915050565b80600073ffffffffffffffffffffffffffffffffffffffff166001600083815260200190815260200160002060010160009054906101000a900473ffffffffffffffffffffffffffffffffffffffff1673ffffffffffffffffffffffffffffffffffffffff161415611415576040517f08c379a000000000000000000000000000000000000000000000000000000000815260040161140c90613114565b60405180910390fd5b60008311611458576040517f08c379a000000000000000000000000000000000000000000000000000000000815260040161144f90613174565b60405180910390fd5b82600360003373ffffffffffffffffffffffffffffffffffffffff1673ffffffffffffffffffffffffffffffffffffffff168152602001908152602001600020600084815260200190815260200160002060008282546114b891906132a8565b925050819055506001600083815260200190815260200160002060010160009054906101000a900473ffffffffffffffffffffffffffffffffffffffff1673ffffffffffffffffffffffffffffffffffffffff166323b872dd3330866040518463ffffffff1660e01b815260040161153293929190612fee565b602060405180830381600087803b15801561154c57600080fd5b505af1158015611560573d6000803e3d6000fd5b505050506040513d601f19601f820116820180604052508101906115849190612aec565b50505050565b83600073ffffffffffffffffffffffffffffffffffffffff166001600083815260200190815260200160002060010160009054906101000a900473ffffffffffffffffffffffffffffffffffffffff1673ffffffffffffffffffffffffffffffffffffffff161415611631576040517f08c379a000000000000000000000000000000000000000000000000000000000815260040161162890613114565b60405180910390fd5b6000600181111561166b577f4e487b7100000000000000000000000000000000000000000000000000000000600052602160045260246000fd5b8460018111156116a4577f4e487b7100000000000000000000000000000000000000000000000000000000600052602160045260246000fd5b141561176d5782826116b691906132fe565b600360003373ffffffffffffffffffffffffffffffffffffffff1673ffffffffffffffffffffffffffffffffffffffff16815260200190815260200160002060007f45544800000000000000000000000000000000000000000000000000000000008152602001908152602001600020541015611768576040517f08c379a000000000000000000000000000000000000000000000000000000000815260040161175f906131b4565b60405180910390fd5b6118b9565b6001808111156117a6577f4e487b7100000000000000000000000000000000000000000000000000000000600052602160045260246000fd5b8460018111156117df577f4e487b7100000000000000000000000000000000000000000000000000000000600052602160045260246000fd5b141561187d5781600360003373ffffffffffffffffffffffffffffffffffffffff1673ffffffffffffffffffffffffffffffffffffffff1681526020019081526020016000206000878152602001908152602001600020541015611878576040517f08c379a000000000000000000000000000000000000000000000000000000000815260040161186f90613194565b60405180910390fd5b6118b8565b6040517f08c379a00000000000000000000000000000000000000000000000000000000081526004016118af906130f4565b60405180910390fd5b5b6000600460008781526020019081526020016000206000866001811115611909577f4e487b7100000000000000000000000000000000000000000000000000000000600052602160045260246000fd5b81526020019081526020016000209050806040518060e0016040528060055481526020013373ffffffffffffffffffffffffffffffffffffffff168152602001876001811115611982577f4e487b7100000000000000000000000000000000000000000000000000000000600052602160045260246000fd5b8152602001888152602001858152602001868152602001600081525090806001815401808255809150506001900390600052602060002090600602016000909190919091506000820151816000015560208201518160010160006101000a81548173ffffffffffffffffffffffffffffffffffffffff021916908373ffffffffffffffffffffffffffffffffffffffff16021790555060408201518160010160146101000a81548160ff02191690836001811115611a69577f4e487b7100000000000000000000000000000000000000000000000000000000600052602160045260246000fd5b0217905550606082015181600201556080820151816003015560a0820151816004015560c08201518160050155505060056000815480929190611aab9061342d565b919050555060006001811115611aea577f4e487b7100000000000000000000000000000000000000000000000000000000600052602160045260246000fd5b856001811115611b23577f4e487b7100000000000000000000000000000000000000000000000000000000600052602160045260246000fd5b1415611b3757611b328161223d565b611b41565b611b4081612333565b5b505050505050565b611b51612235565b73ffffffffffffffffffffffffffffffffffffffff16611b6f610d56565b73ffffffffffffffffffffffffffffffffffffffff1614611bc5576040517f08c379a0000000000000000000000000000000000000000000000000000000008152600401611bbc90613134565b60405180910390fd5b600073ffffffffffffffffffffffffffffffffffffffff168173ffffffffffffffffffffffffffffffffffffffff161415611c35576040517f08c379a0000000000000000000000000000000000000000000000000000000008152600401611c2c906130d4565b60405180910390fd5b8073ffffffffffffffffffffffffffffffffffffffff1660008054906101000a900473ffffffffffffffffffffffffffffffffffffffff1673ffffffffffffffffffffffffffffffffffffffff167f8be0079c531659141344cd1fd0a4f28419497f9722a3daafe3b4186f6b6457e060405160405180910390a3806000806101000a81548173ffffffffffffffffffffffffffffffffffffffff021916908373ffffffffffffffffffffffffffffffffffffffff16021790555050565b34600360003373ffffffffffffffffffffffffffffffffffffffff1673ffffffffffffffffffffffffffffffffffffffff16815260200190815260200160002060007f455448000000000000000000000000000000000000000000000000000000000081526020019081526020016000206000828254611d7291906132a8565b92505081905550565b60008383611d8991906132fe565b905060006001811115611dc5577f4e487b7100000000000000000000000000000000000000000000000000000000600052602160045260246000fd5b826001811115611dfe577f4e487b7100000000000000000000000000000000000000000000000000000000600052602160045260246000fd5b1415611ec95780600360008973ffffffffffffffffffffffffffffffffffffffff1673ffffffffffffffffffffffffffffffffffffffff16815260200190815260200160002060007f45544800000000000000000000000000000000000000000000000000000000008152602001908152602001600020541015611eb7576040517f08c379a0000000000000000000000000000000000000000000000000000000008152600401611eae90613154565b60405180910390fd5b611ec48787878785612429565b611ed7565b611ed68688878785612429565b5b50505050505050565b60005b818181548110611f1c577f4e487b7100000000000000000000000000000000000000000000000000000000600052603260045260246000fd5b906000526020600020906006020160030154828281548110611f67577f4e487b7100000000000000000000000000000000000000000000000000000000600052603260045260246000fd5b906000526020600020906006020160050154148015611f895750818054905081105b15611fa1578080611f999061342d565b915050611ee3565b60008190505b828054905081101561215e57828181548110611fec577f4e487b7100000000000000000000000000000000000000000000000000000000600052603260045260246000fd5b90600052602060002090600602018383836120079190613358565b8154811061203e577f4e487b7100000000000000000000000000000000000000000000000000000000600052603260045260246000fd5b9060005260206000209060060201600082015481600001556001820160009054906101000a900473ffffffffffffffffffffffffffffffffffffffff168160010160006101000a81548173ffffffffffffffffffffffffffffffffffffffff021916908373ffffffffffffffffffffffffffffffffffffffff1602179055506001820160149054906101000a900460ff168160010160146101000a81548160ff0219169083600181111561211b577f4e487b7100000000000000000000000000000000000000000000000000000000600052602160045260246000fd5b02179055506002820154816002015560038201548160030155600482015481600401556005820154816005015590505080806121569061342d565b915050611fa7565b5060005b8181101561223057828054806121a1577f4e487b7100000000000000000000000000000000000000000000000000000000600052603160045260246000fd5b60019003818190600052602060002090600602016000808201600090556001820160006101000a81549073ffffffffffffffffffffffffffffffffffffffff02191690556001820160146101000a81549060ff021916905560028201600090556003820160009055600482016000905560058201600090555050905580806122289061342d565b915050612162565b505050565b600033905090565b6000600182805490506122509190613358565b90505b600081111561232f578160018261226a9190613358565b815481106122a1577f4e487b7100000000000000000000000000000000000000000000000000000000600052603260045260246000fd5b9060005260206000209060060201600401548282815481106122ec577f4e487b7100000000000000000000000000000000000000000000000000000000600052603260045260246000fd5b906000526020600020906006020160040154111561231c5761231b826001836123159190613358565b8361260c565b5b808061232790613403565b915050612253565b5050565b6000600182805490506123469190613358565b90505b600081111561242557816001826123609190613358565b81548110612397577f4e487b7100000000000000000000000000000000000000000000000000000000600052603260045260246000fd5b9060005260206000209060060201600401548282815481106123e2577f4e487b7100000000000000000000000000000000000000000000000000000000600052603260045260246000fd5b9060005260206000209060060201600401541015612412576124118260018361240b9190613358565b8361260c565b5b808061241d90613403565b915050612349565b5050565b80600360008773ffffffffffffffffffffffffffffffffffffffff1673ffffffffffffffffffffffffffffffffffffffff16815260200190815260200160002060007f4554480000000000000000000000000000000000000000000000000000000000815260200190815260200160002060008282546124a99190613358565b9250508190555080600360008673ffffffffffffffffffffffffffffffffffffffff1673ffffffffffffffffffffffffffffffffffffffff16815260200190815260200160002060007f45544800000000000000000000000000000000000000000000000000000000008152602001908152602001600020600082825461253091906132a8565b9250508190555081600360008773ffffffffffffffffffffffffffffffffffffffff1673ffffffffffffffffffffffffffffffffffffffff1681526020019081526020016000206000858152602001908152602001600020600082825461259791906132a8565b9250508190555081600360008673ffffffffffffffffffffffffffffffffffffffff1673ffffffffffffffffffffffffffffffffffffffff168152602001908152602001600020600085815260200190815260200160002060008282546125fe9190613358565b925050819055505050505050565b6000838381548110612647577f4e487b7100000000000000000000000000000000000000000000000000000000600052603260045260246000fd5b90600052602060002090600602016040518060e0016040529081600082015481526020016001820160009054906101000a900473ffffffffffffffffffffffffffffffffffffffff1673ffffffffffffffffffffffffffffffffffffffff1673ffffffffffffffffffffffffffffffffffffffff1681526020016001820160149054906101000a900460ff16600181111561270b577f4e487b7100000000000000000000000000000000000000000000000000000000600052602160045260246000fd5b6001811115612743577f4e487b7100000000000000000000000000000000000000000000000000000000600052602160045260246000fd5b815260200160028201548152602001600382015481526020016004820154815260200160058201548152505090508382815481106127aa577f4e487b7100000000000000000000000000000000000000000000000000000000600052603260045260246000fd5b90600052602060002090600602018484815481106127f1577f4e487b7100000000000000000000000000000000000000000000000000000000600052603260045260246000fd5b9060005260206000209060060201600082015481600001556001820160009054906101000a900473ffffffffffffffffffffffffffffffffffffffff168160010160006101000a81548173ffffffffffffffffffffffffffffffffffffffff021916908373ffffffffffffffffffffffffffffffffffffffff1602179055506001820160149054906101000a900460ff168160010160146101000a81548160ff021916908360018111156128ce577f4e487b7100000000000000000000000000000000000000000000000000000000600052602160045260246000fd5b02179055506002820154816002015560038201548160030155600482015481600401556005820154816005015590505080848381548110612938577f4e487b7100000000000000000000000000000000000000000000000000000000600052603260045260246000fd5b90600052602060002090600602016000820151816000015560208201518160010160006101000a81548173ffffffffffffffffffffffffffffffffffffffff021916908373ffffffffffffffffffffffffffffffffffffffff16021790555060408201518160010160146101000a81548160ff021916908360018111156129e8577f4e487b7100000000000000000000000000000000000000000000000000000000600052602160045260246000fd5b0217905550606082015181600201556080820151816003015560a0820151816004015560c0820151816005015590505050505050565b600081359050612a2d8161367f565b92915050565b600081519050612a4281613696565b92915050565b600081359050612a57816136ad565b92915050565b600081359050612a6c816136c4565b92915050565b600081359050612a81816136d4565b92915050565b600060208284031215612a9957600080fd5b6000612aa784828501612a1e565b91505092915050565b60008060408385031215612ac357600080fd5b6000612ad185828601612a1e565b9250506020612ae285828601612a48565b9150509250929050565b600060208284031215612afe57600080fd5b6000612b0c84828501612a33565b91505092915050565b600060208284031215612b2757600080fd5b6000612b3584828501612a48565b91505092915050565b60008060408385031215612b5157600080fd5b6000612b5f85828601612a48565b9250506020612b7085828601612a1e565b9150509250929050565b60008060408385031215612b8d57600080fd5b6000612b9b85828601612a48565b9250506020612bac85828601612a5d565b9150509250929050565b600080600060608486031215612bcb57600080fd5b6000612bd986828701612a48565b9350506020612bea86828701612a5d565b9250506040612bfb86828701612a72565b9150509250925092565b60008060008060808587031215612c1b57600080fd5b6000612c2987828801612a48565b9450506020612c3a87828801612a5d565b9350506040612c4b87828801612a72565b9250506060612c5c87828801612a72565b91505092959194509250565b600080600060608486031215612c7d57600080fd5b6000612c8b86828701612a48565b9350506020612c9c86828701612a72565b9250506040612cad86828701612a72565b9150509250925092565b600060208284031215612cc957600080fd5b6000612cd784828501612a72565b91505092915050565b60008060408385031215612cf357600080fd5b6000612d0185828601612a72565b9250506020612d1285828601612a48565b9150509250929050565b6000612d288383612f27565b60e08301905092915050565b612d3d8161338c565b82525050565b612d4c8161338c565b82525050565b6000612d5d8261326e565b612d678185613286565b9350612d728361325e565b8060005b83811015612da3578151612d8a8882612d1c565b9750612d9583613279565b925050600181019050612d76565b5085935050505092915050565b612db9816133aa565b82525050565b612dc8816133aa565b82525050565b612dd7816133f1565b82525050565b612de6816133f1565b82525050565b6000612df9601783613297565b9150612e04826134d4565b602082019050919050565b6000612e1c602683613297565b9150612e27826134fd565b604082019050919050565b6000612e3f601a83613297565b9150612e4a8261354c565b602082019050919050565b6000612e62601e83613297565b9150612e6d82613575565b602082019050919050565b6000612e85602083613297565b9150612e908261359e565b602082019050919050565b6000612ea8602083613297565b9150612eb3826135c7565b602082019050919050565b6000612ecb601a83613297565b9150612ed6826135f0565b602082019050919050565b6000612eee601e83613297565b9150612ef982613619565b602082019050919050565b6000612f11601a83613297565b9150612f1c82613642565b602082019050919050565b60e082016000820151612f3d6000850182612fb5565b506020820151612f506020850182612d34565b506040820151612f636040850182612dce565b506060820151612f766060850182612db0565b506080820151612f896080850182612fb5565b5060a0820151612f9c60a0850182612fb5565b5060c0820151612faf60c0850182612fb5565b50505050565b612fbe816133e7565b82525050565b612fcd816133e7565b82525050565b6000602082019050612fe86000830184612d43565b92915050565b60006060820190506130036000830186612d43565b6130106020830185612d43565b61301d6040830184612fc4565b949350505050565b600060408201905061303a6000830185612d43565b6130476020830184612fc4565b9392505050565b600060208201905081810360008301526130688184612d52565b905092915050565b60006020820190506130856000830184612dbf565b92915050565b60006040820190506130a06000830185612dbf565b6130ad6020830184612d43565b9392505050565b600060208201905081810360008301526130cd81612dec565b9050919050565b600060208201905081810360008301526130ed81612e0f565b9050919050565b6000602082019050818103600083015261310d81612e32565b9050919050565b6000602082019050818103600083015261312d81612e55565b9050919050565b6000602082019050818103600083015261314d81612e78565b9050919050565b6000602082019050818103600083015261316d81612e9b565b9050919050565b6000602082019050818103600083015261318d81612ebe565b9050919050565b600060208201905081810360008301526131ad81612ee1565b9050919050565b600060208201905081810360008301526131cd81612f04565b9050919050565b60006020820190506131e96000830184612fc4565b92915050565b600060e082019050613204600083018a612fc4565b6132116020830189612d43565b61321e6040830188612ddd565b61322b6060830187612dbf565b6132386080830186612fc4565b61324560a0830185612fc4565b61325260c0830184612fc4565b98975050505050505050565b6000819050602082019050919050565b600081519050919050565b6000602082019050919050565b600082825260208201905092915050565b600082825260208201905092915050565b60006132b3826133e7565b91506132be836133e7565b9250827fffffffffffffffffffffffffffffffffffffffffffffffffffffffffffffffff038211156132f3576132f2613476565b5b828201905092915050565b6000613309826133e7565b9150613314836133e7565b9250817fffffffffffffffffffffffffffffffffffffffffffffffffffffffffffffffff048311821515161561334d5761334c613476565b5b828202905092915050565b6000613363826133e7565b915061336e836133e7565b92508282101561338157613380613476565b5b828203905092915050565b6000613397826133c7565b9050919050565b60008115159050919050565b6000819050919050565b60008190506133c28261366b565b919050565b600073ffffffffffffffffffffffffffffffffffffffff82169050919050565b6000819050919050565b60006133fc826133b4565b9050919050565b600061340e826133e7565b9150600082141561342257613421613476565b5b600182039050919050565b6000613438826133e7565b91507fffffffffffffffffffffffffffffffffffffffffffffffffffffffffffffffff82141561346b5761346a613476565b5b600182019050919050565b7f4e487b7100000000000000000000000000000000000000000000000000000000600052601160045260246000fd5b7f4e487b7100000000000000000000000000000000000000000000000000000000600052602160045260246000fd5b7f42616c616e6365206e6f742073756666696369656e7421000000000000000000600082015250565b7f4f776e61626c653a206e6577206f776e657220697320746865207a65726f206160008201527f6464726573730000000000000000000000000000000000000000000000000000602082015250565b7f4e65697468657220425559206e6f722053454c4c207369646521000000000000600082015250565b7f556e6b6e6f776e20746f6b656e3b20616464546f6b656e206669727374210000600082015250565b7f4f776e61626c653a2063616c6c6572206973206e6f7420746865206f776e6572600082015250565b7f4e6f7420656e6f7567682045544820746f20636f6d706c6574652066696c6c21600082015250565b7f41736b656420746f206465706f736974203020746f6b656e7321000000000000600082015250565b7f546f6f2066657720746f6b656e7320666f722073656c6c206f72646572210000600082015250565b7f4e6f7420656e6f75676820455448206f6e206465706f73697421000000000000600082015250565b6002811061367c5761367b6134a5565b5b50565b6136888161338c565b811461369357600080fd5b50565b61369f8161339e565b81146136aa57600080fd5b50565b6136b6816133aa565b81146136c157600080fd5b50565b600281106136d157600080fd5b50565b6136dd816133e7565b81146136e857600080fd5b5056fea2646970667358221220284d15ae89915e05c0110674ea3229b7fe98fadf02ad5bf53356e6793c65bab164736f6c63430008040033",
  "immutableReferences": {},
  "source": "// SPDX-License-Identifier: MIT\npragma solidity ^0.8.0;\n\nimport \"./Wallet.sol\";\n\ncontract Dex is Wallet {\n\n    enum Side {\n        BUY,\n        SELL\n    }\n\n    struct Order {\n        uint id;\n        address trader;\n        Side side;\n        bytes32 ticker;\n        uint amount;\n        uint price;\n        uint filled;\n    }\n\n    // State variables\n\n    mapping(bytes32 => mapping(uint => Order[])) public orderBook;    //Ticker => (Side => orders)\n    uint nextId = 1;\n\n\n    // Public & External Functions\n\n    function depositETH() public payable {\n        balances[msg.sender][\"ETH\"] += msg.value;\n    }\n\n\n    function getOrderBook(bytes32 ticker, Side side) view public returns(Order[] memory) {\n        return(orderBook[ticker][uint(side)]);\n    }\n\n\n    function createLimitOrder(bytes32 ticker, Side side, uint price, uint amount)\n        external\n        isKnownToken(ticker)\n    {\n        if (side == Side.BUY)\n            require(\n                balances[msg.sender][\"ETH\"] >= amount * price,\n                \"Not enough ETH on deposit!\"\n            );\n        else if (side == Side.SELL)\n            require(\n                balances[msg.sender][ticker] >= amount,\n                \"Too few tokens for sell order!\"\n            );\n        else revert(\"Neither BUY nor SELL side!\");\n        \n        Order[] storage orders = orderBook[ticker][uint(side)];\n        orders.push(Order(nextId, msg.sender, side, ticker, amount, price, 0));\n        nextId++;\n\n        if (side == Side.BUY)\n            _sortToDescedingPrice(orders);\n        else //Sell-side\n            _sortToAscendingPrice(orders);\n    }\n\n\n    function createMarketOrder(bytes32 ticker, Side side, uint amount)\n        external\n        isKnownToken(ticker)\n    {\n        uint otherSide;\n\n        if (side == Side.SELL) {\n            require(balances[msg.sender][ticker] >= amount);\n            otherSide = 0;  //Buy-side\n        }\n        else if (side == Side.BUY) otherSide = 1; //Sell-side\n        else revert(\"Neither BUY nor SELL side!\");\n\n        Order[] storage orders = orderBook[ticker][otherSide];\n        uint totalFilled;\n\n        for (uint i = 0; i < orders.length && totalFilled < amount; i++) {\n            // How much of market order can we fill from current limit order?\n            uint leftToFill = amount - totalFilled;\n            if ((orders[i].amount - orders[i].filled) >= leftToFill ) {  \n                // Complete market order fill (from current limit order)\n                orders[i].filled += leftToFill;\n                totalFilled += leftToFill;\n                assert(totalFilled == amount); //Error with fill calculation\n\n                _executeTrade(\n                    msg.sender,\n                    orders[i].trader,\n                    ticker,\n                    leftToFill,\n                    orders[i].price,\n                    side\n                );\n            }\n            else {  \n                // Partially fill market order (from current limit order)\n                uint amountAvailable = orders[i].amount - orders[i].filled;\n                orders[i].filled += amountAvailable;\n                totalFilled += amountAvailable;\n                assert(orders[i].filled == orders[i].amount); //Fill calc error\n\n                _executeTrade(\n                    msg.sender,\n                    orders[i].trader,\n                    ticker,\n                    amountAvailable,\n                    orders[i].price,\n                    side\n                );\n            }\n        }\n        // Remove 100% filled orders from the orderbook\n        _removeFilled(orders);\n    }\n\n\n// Internal and private functions\n\n    function _sortToDescedingPrice(Order[] storage orders)\n        internal\n    {\n        for (uint i = orders.length-1; i > 0; i--)\n            if (orders[i].price > orders[i-1].price)\n                _swapOrderPosition(orders, i-1, i);\n    }\n\n\n    function _sortToAscendingPrice(Order[] storage orders)\n        internal\n    {\n        for (uint i = orders.length-1; i > 0; i--)\n            if (orders[i].price < orders[i-1].price)\n                _swapOrderPosition(orders, i-1, i);\n    }\n\n\n    function _swapOrderPosition(\n        Order[] storage orders,\n        uint position1,\n        uint position2\n    )\n        internal\n    {\n        Order memory tempOrder = orders[position1];\n        orders[position1] = orders[position2]; \n        orders[position2] = tempOrder;\n    }\n\n\n    function _executeTrade(\n        address taker,  // creator of market order\n        address maker,  // creator of limit order\n        bytes32 ticker,\n        uint amount,\n        uint price,\n        Side side\n    )\n        internal\n    {\n        uint valueInWei = price * amount;\n        if (side == Side.BUY) {\n            require(\n                balances[taker][\"ETH\"] >= valueInWei,\n                \"Not enough ETH to complete fill!\"\n            );\n            _shiftBalances(taker, maker, ticker, amount, valueInWei);\n        }\n        else //Sell-side\n            _shiftBalances(maker, taker, ticker, amount, valueInWei);\n    }\n\n\n    function _shiftBalances(\n        address buyer,\n        address seller,\n        bytes32 ticker,\n        uint amount,\n        uint valueInWei\n    )\n        internal\n    {\n        balances[buyer][\"ETH\"] -= valueInWei;\n        balances[seller][\"ETH\"] += valueInWei;\n        balances[buyer][ticker] += amount;\n        balances[seller][ticker] -= amount;\n    }\n\n\n    function _removeFilled(Order[] storage orders) internal {\n        // Find where filled orders end in order book\n        uint i;\n        while (orders[i].filled == orders[i].amount && i < orders.length)\n            i++;\n\n        // Move unfilled orders up in order book (overwriting filled orders)\n        for (uint j = i; j < orders.length; j++)\n            orders[j-i] = orders[j];\n\n        // Remove redundant orders (from end of orderbook) \n        for (uint k = 0; k < i; k++) orders.pop();\n    }\n\n}\n",
  "sourcePath": "/Users/Mark/Documents/BlockChain/IvanOnTechAcademy/Solidity - Smart Contract Programming 201/DEX-Project/contracts/Dex.sol",
  "compiler": {
    "name": "solc",
    "version": "0.8.4+commit.c7e474f2.Emscripten.clang"
  },
  "schemaVersion": "3.4.0",
  "updatedAt": "2021-05-13T01:50:37.805Z",
  "devdoc": {
    "kind": "dev",
    "methods": {
      "owner()": {
        "details": "Returns the address of the current owner."
      },
      "renounceOwnership()": {
        "details": "Leaves the contract without owner. It will not be possible to call `onlyOwner` functions anymore. Can only be called by the current owner. NOTE: Renouncing ownership will leave the contract without an owner, thereby removing any functionality that is only available to the owner."
      },
      "transferOwnership(address)": {
        "details": "Transfers ownership of the contract to a new account (`newOwner`). Can only be called by the current owner."
      }
    },
    "version": 1
  },
  "userdoc": {
    "kind": "user",
    "methods": {},
    "version": 1
  }
}