{
  "contractName": "Dex",
  "abi": [
    {
      "anonymous": false,
      "inputs": [
        {
          "indexed": true,
          "internalType": "address",
          "name": "previousOwner",
          "type": "address"
        },
        {
          "indexed": true,
          "internalType": "address",
          "name": "newOwner",
          "type": "address"
        }
      ],
      "name": "OwnershipTransferred",
      "type": "event"
    },
    {
      "inputs": [
        {
          "internalType": "bytes32",
          "name": "ticker",
          "type": "bytes32"
        },
        {
          "internalType": "address",
          "name": "tokenAddress",
          "type": "address"
        }
      ],
      "name": "addToken",
      "outputs": [],
      "stateMutability": "nonpayable",
      "type": "function"
    },
    {
      "inputs": [
        {
          "internalType": "address",
          "name": "",
          "type": "address"
        },
        {
          "internalType": "bytes32",
          "name": "",
          "type": "bytes32"
        }
      ],
      "name": "balances",
      "outputs": [
        {
          "internalType": "uint256",
          "name": "",
          "type": "uint256"
        }
      ],
      "stateMutability": "view",
      "type": "function"
    },
    {
      "inputs": [
        {
          "internalType": "uint256",
          "name": "amount",
          "type": "uint256"
        },
        {
          "internalType": "bytes32",
          "name": "ticker",
          "type": "bytes32"
        }
      ],
      "name": "deposit",
      "outputs": [],
      "stateMutability": "nonpayable",
      "type": "function"
    },
    {
      "inputs": [
        {
          "internalType": "bytes32",
          "name": "",
          "type": "bytes32"
        },
        {
          "internalType": "uint256",
          "name": "",
          "type": "uint256"
        },
        {
          "internalType": "uint256",
          "name": "",
          "type": "uint256"
        }
      ],
      "name": "orderBook",
      "outputs": [
        {
          "internalType": "uint256",
          "name": "id",
          "type": "uint256"
        },
        {
          "internalType": "address",
          "name": "trader",
          "type": "address"
        },
        {
          "internalType": "enum Dex.Side",
          "name": "side",
          "type": "uint8"
        },
        {
          "internalType": "bytes32",
          "name": "ticker",
          "type": "bytes32"
        },
        {
          "internalType": "uint256",
          "name": "amount",
          "type": "uint256"
        },
        {
          "internalType": "uint256",
          "name": "price",
          "type": "uint256"
        }
      ],
      "stateMutability": "view",
      "type": "function"
    },
    {
      "inputs": [],
      "name": "owner",
      "outputs": [
        {
          "internalType": "address",
          "name": "",
          "type": "address"
        }
      ],
      "stateMutability": "view",
      "type": "function"
    },
    {
      "inputs": [],
      "name": "renounceOwnership",
      "outputs": [],
      "stateMutability": "nonpayable",
      "type": "function"
    },
    {
      "inputs": [
        {
          "internalType": "uint256",
          "name": "",
          "type": "uint256"
        }
      ],
      "name": "tokenList",
      "outputs": [
        {
          "internalType": "bytes32",
          "name": "",
          "type": "bytes32"
        }
      ],
      "stateMutability": "view",
      "type": "function"
    },
    {
      "inputs": [
        {
          "internalType": "bytes32",
          "name": "",
          "type": "bytes32"
        }
      ],
      "name": "tokenMapping",
      "outputs": [
        {
          "internalType": "bytes32",
          "name": "ticker",
          "type": "bytes32"
        },
        {
          "internalType": "address",
          "name": "tokenAddress",
          "type": "address"
        }
      ],
      "stateMutability": "view",
      "type": "function"
    },
    {
      "inputs": [
        {
          "internalType": "address",
          "name": "newOwner",
          "type": "address"
        }
      ],
      "name": "transferOwnership",
      "outputs": [],
      "stateMutability": "nonpayable",
      "type": "function"
    },
    {
      "inputs": [
        {
          "internalType": "uint256",
          "name": "amount",
          "type": "uint256"
        },
        {
          "internalType": "bytes32",
          "name": "ticker",
          "type": "bytes32"
        }
      ],
      "name": "withdraw",
      "outputs": [],
      "stateMutability": "nonpayable",
      "type": "function"
    },
    {
      "inputs": [],
      "name": "depositETH",
      "outputs": [],
      "stateMutability": "payable",
      "type": "function"
    },
    {
      "inputs": [
        {
          "internalType": "bytes32",
          "name": "ticker",
          "type": "bytes32"
        },
        {
          "internalType": "enum Dex.Side",
          "name": "side",
          "type": "uint8"
        }
      ],
      "name": "getOrderBook",
      "outputs": [
        {
          "components": [
            {
              "internalType": "uint256",
              "name": "id",
              "type": "uint256"
            },
            {
              "internalType": "address",
              "name": "trader",
              "type": "address"
            },
            {
              "internalType": "enum Dex.Side",
              "name": "side",
              "type": "uint8"
            },
            {
              "internalType": "bytes32",
              "name": "ticker",
              "type": "bytes32"
            },
            {
              "internalType": "uint256",
              "name": "amount",
              "type": "uint256"
            },
            {
              "internalType": "uint256",
              "name": "price",
              "type": "uint256"
            }
          ],
          "internalType": "struct Dex.Order[]",
          "name": "",
          "type": "tuple[]"
        }
      ],
      "stateMutability": "view",
      "type": "function"
    },
    {
      "inputs": [
        {
          "internalType": "bytes32",
          "name": "ticker",
          "type": "bytes32"
        },
        {
          "internalType": "enum Dex.Side",
          "name": "side",
          "type": "uint8"
        },
        {
          "internalType": "uint256",
          "name": "price",
          "type": "uint256"
        },
        {
          "internalType": "uint256",
          "name": "amount",
          "type": "uint256"
        }
      ],
      "name": "createLimitOrder",
      "outputs": [],
      "stateMutability": "nonpayable",
      "type": "function"
    },
    {
      "inputs": [
        {
          "internalType": "bytes32",
          "name": "ticker",
          "type": "bytes32"
        },
        {
          "internalType": "enum Dex.Side",
          "name": "side",
          "type": "uint8"
        },
        {
          "internalType": "uint256",
          "name": "amount",
          "type": "uint256"
        }
      ],
      "name": "createMarketOrder",
      "outputs": [],
      "stateMutability": "nonpayable",
      "type": "function"
    }
  ],
  "bytecode": "0x6080604052600160055534801561001557600080fd5b5060006100266100c960201b60201c565b9050806000806101000a81548173ffffffffffffffffffffffffffffffffffffffff021916908373ffffffffffffffffffffffffffffffffffffffff1602179055508073ffffffffffffffffffffffffffffffffffffffff16600073ffffffffffffffffffffffffffffffffffffffff167f8be0079c531659141344cd1fd0a4f28419497f9722a3daafe3b4186f6b6457e060405160405180910390a3506100d1565b600033905090565b6128c4806100e06000396000f3fe6080604052600436106100dd5760003560e01c80639ead72221161007f578063c9630cb011610059578063c9630cb0146102d6578063ed25c4d3146102ff578063f2fde38b14610328578063f6326fb314610351576100dd565b80639ead722214610233578063a8d2021a14610270578063ba58ea6814610299576100dd565b8063667cb4ba116100bb578063667cb4ba1461018a578063715018a6146101c85780638da5cb5b146101df5780639776aacf1461020a576100dd565b80630bb431b6146100e25780631f14df691461012457806350b20afd14610161575b600080fd5b3480156100ee57600080fd5b5061010960048036038101906101049190611e98565b61035b565b60405161011b969594939291906123c9565b60405180910390f35b34801561013057600080fd5b5061014b60048036038101906101469190611ce0565b6103ee565b60405161015891906123ae565b60405180910390f35b34801561016d57600080fd5b5061018860048036038101906101839190611de6565b610413565b005b34801561019657600080fd5b506101b160048036038101906101ac9190611d45565b6104c0565b6040516101bf929190612285565b60405180910390f35b3480156101d457600080fd5b506101dd610504565b005b3480156101eb57600080fd5b506101f461063e565b60405161020191906121cd565b60405180910390f35b34801561021657600080fd5b50610231600480360381019061022c9190611d6e565b610667565b005b34801561023f57600080fd5b5061025a60048036038101906102559190611ee7565b6107a2565b604051610267919061226a565b60405180910390f35b34801561027c57600080fd5b5061029760048036038101906102929190611f10565b6107c6565b005b3480156102a557600080fd5b506102c060048036038101906102bb9190611daa565b610a30565b6040516102cd9190612248565b60405180910390f35b3480156102e257600080fd5b506102fd60048036038101906102f89190611f10565b610bf1565b005b34801561030b57600080fd5b5061032660048036038101906103219190611e35565b610e0d565b005b34801561033457600080fd5b5061034f600480360381019061034a9190611cb7565b611434565b005b6103596115dd565b005b6004602052826000526040600020602052816000526040600020818154811061038357600080fd5b906000526020600020906005020160009250925050508060000154908060010160009054906101000a900473ffffffffffffffffffffffffffffffffffffffff16908060010160149054906101000a900460ff16908060020154908060030154908060040154905086565b6003602052816000526040600020602052806000526040600020600091509150505481565b82600073ffffffffffffffffffffffffffffffffffffffff166001600083815260200190815260200160002060010160009054906101000a900473ffffffffffffffffffffffffffffffffffffffff1673ffffffffffffffffffffffffffffffffffffffff1614156104ba576040517f08c379a00000000000000000000000000000000000000000000000000000000081526004016104b19061230e565b60405180910390fd5b50505050565b60016020528060005260406000206000915090508060000154908060010160009054906101000a900473ffffffffffffffffffffffffffffffffffffffff16905082565b61050c611666565b73ffffffffffffffffffffffffffffffffffffffff1661052a61063e565b73ffffffffffffffffffffffffffffffffffffffff1614610580576040517f08c379a00000000000000000000000000000000000000000000000000000000081526004016105779061232e565b60405180910390fd5b600073ffffffffffffffffffffffffffffffffffffffff1660008054906101000a900473ffffffffffffffffffffffffffffffffffffffff1673ffffffffffffffffffffffffffffffffffffffff167f8be0079c531659141344cd1fd0a4f28419497f9722a3daafe3b4186f6b6457e060405160405180910390a360008060006101000a81548173ffffffffffffffffffffffffffffffffffffffff021916908373ffffffffffffffffffffffffffffffffffffffff160217905550565b60008060009054906101000a900473ffffffffffffffffffffffffffffffffffffffff16905090565b61066f611666565b73ffffffffffffffffffffffffffffffffffffffff1661068d61063e565b73ffffffffffffffffffffffffffffffffffffffff16146106e3576040517f08c379a00000000000000000000000000000000000000000000000000000000081526004016106da9061232e565b60405180910390fd5b60405180604001604052808381526020018273ffffffffffffffffffffffffffffffffffffffff16815250600160008481526020019081526020016000206000820151816000015560208201518160010160006101000a81548173ffffffffffffffffffffffffffffffffffffffff021916908373ffffffffffffffffffffffffffffffffffffffff16021790555090505060028290806001815401808255809150506001900390600052602060002001600090919091909150555050565b600281815481106107b257600080fd5b906000526020600020016000915090505481565b80600073ffffffffffffffffffffffffffffffffffffffff166001600083815260200190815260200160002060010160009054906101000a900473ffffffffffffffffffffffffffffffffffffffff1673ffffffffffffffffffffffffffffffffffffffff16141561086d576040517f08c379a00000000000000000000000000000000000000000000000000000000081526004016108649061230e565b60405180910390fd5b82600360003373ffffffffffffffffffffffffffffffffffffffff1673ffffffffffffffffffffffffffffffffffffffff1681526020019081526020016000206000848152602001908152602001600020541015610900576040517f08c379a00000000000000000000000000000000000000000000000000000000081526004016108f7906122ae565b60405180910390fd5b82600360003373ffffffffffffffffffffffffffffffffffffffff1673ffffffffffffffffffffffffffffffffffffffff168152602001908152602001600020600084815260200190815260200160002060008282546109609190612474565b925050819055506001600083815260200190815260200160002060010160009054906101000a900473ffffffffffffffffffffffffffffffffffffffff1673ffffffffffffffffffffffffffffffffffffffff1663a9059cbb33856040518363ffffffff1660e01b81526004016109d892919061221f565b602060405180830381600087803b1580156109f257600080fd5b505af1158015610a06573d6000803e3d6000fd5b505050506040513d601f19601f82011682018060405250810190610a2a9190611d1c565b50505050565b6060600460008481526020019081526020016000206000836001811115610a80577f4e487b7100000000000000000000000000000000000000000000000000000000600052602160045260246000fd5b8152602001908152602001600020805480602002602001604051908101604052809291908181526020016000905b82821015610be557838290600052602060002090600502016040518060c0016040529081600082015481526020016001820160009054906101000a900473ffffffffffffffffffffffffffffffffffffffff1673ffffffffffffffffffffffffffffffffffffffff1673ffffffffffffffffffffffffffffffffffffffff1681526020016001820160149054906101000a900460ff166001811115610b7c577f4e487b7100000000000000000000000000000000000000000000000000000000600052602160045260246000fd5b6001811115610bb4577f4e487b7100000000000000000000000000000000000000000000000000000000600052602160045260246000fd5b8152602001600282015481526020016003820154815260200160048201548152505081526020019060010190610aae565b50505050905092915050565b80600073ffffffffffffffffffffffffffffffffffffffff166001600083815260200190815260200160002060010160009054906101000a900473ffffffffffffffffffffffffffffffffffffffff1673ffffffffffffffffffffffffffffffffffffffff161415610c98576040517f08c379a0000000000000000000000000000000000000000000000000000000008152600401610c8f9061230e565b60405180910390fd5b60008311610cdb576040517f08c379a0000000000000000000000000000000000000000000000000000000008152600401610cd29061234e565b60405180910390fd5b82600360003373ffffffffffffffffffffffffffffffffffffffff1673ffffffffffffffffffffffffffffffffffffffff16815260200190815260200160002060008481526020019081526020016000206000828254610d3b9190612474565b925050819055506001600083815260200190815260200160002060010160009054906101000a900473ffffffffffffffffffffffffffffffffffffffff1673ffffffffffffffffffffffffffffffffffffffff166323b872dd3330866040518463ffffffff1660e01b8152600401610db5939291906121e8565b602060405180830381600087803b158015610dcf57600080fd5b505af1158015610de3573d6000803e3d6000fd5b505050506040513d601f19601f82011682018060405250810190610e079190611d1c565b50505050565b83600073ffffffffffffffffffffffffffffffffffffffff166001600083815260200190815260200160002060010160009054906101000a900473ffffffffffffffffffffffffffffffffffffffff1673ffffffffffffffffffffffffffffffffffffffff161415610eb4576040517f08c379a0000000000000000000000000000000000000000000000000000000008152600401610eab9061230e565b60405180910390fd5b60006001811115610eee577f4e487b7100000000000000000000000000000000000000000000000000000000600052602160045260246000fd5b846001811115610f27577f4e487b7100000000000000000000000000000000000000000000000000000000600052602160045260246000fd5b1415610ff0578282610f3991906124ca565b600360003373ffffffffffffffffffffffffffffffffffffffff1673ffffffffffffffffffffffffffffffffffffffff16815260200190815260200160002060007f45544800000000000000000000000000000000000000000000000000000000008152602001908152602001600020541015610feb576040517f08c379a0000000000000000000000000000000000000000000000000000000008152600401610fe29061238e565b60405180910390fd5b61113c565b600180811115611029577f4e487b7100000000000000000000000000000000000000000000000000000000600052602160045260246000fd5b846001811115611062577f4e487b7100000000000000000000000000000000000000000000000000000000600052602160045260246000fd5b14156111005781600360003373ffffffffffffffffffffffffffffffffffffffff1673ffffffffffffffffffffffffffffffffffffffff16815260200190815260200160002060008781526020019081526020016000205410156110fb576040517f08c379a00000000000000000000000000000000000000000000000000000000081526004016110f29061236e565b60405180910390fd5b61113b565b6040517f08c379a0000000000000000000000000000000000000000000000000000000008152600401611132906122ee565b60405180910390fd5b5b600060046000878152602001908152602001600020600086600181111561118c577f4e487b7100000000000000000000000000000000000000000000000000000000600052602160045260246000fd5b81526020019081526020016000209050806040518060c0016040528060055481526020013373ffffffffffffffffffffffffffffffffffffffff168152602001876001811115611205577f4e487b7100000000000000000000000000000000000000000000000000000000600052602160045260246000fd5b81526020018881526020018581526020018681525090806001815401808255809150506001900390600052602060002090600502016000909190919091506000820151816000015560208201518160010160006101000a81548173ffffffffffffffffffffffffffffffffffffffff021916908373ffffffffffffffffffffffffffffffffffffffff16021790555060408201518160010160146101000a81548160ff021916908360018111156112e5577f4e487b7100000000000000000000000000000000000000000000000000000000600052602160045260246000fd5b0217905550606082015181600201556080820151816003015560a0820151816004015550506005600081548092919061131d906125f9565b91905055506000600181111561135c577f4e487b7100000000000000000000000000000000000000000000000000000000600052602160045260246000fd5b856001811115611395577f4e487b7100000000000000000000000000000000000000000000000000000000600052602160045260246000fd5b14156113a9576113a48161166e565b61142c565b6001808111156113e2577f4e487b7100000000000000000000000000000000000000000000000000000000600052602160045260246000fd5b85600181111561141b577f4e487b7100000000000000000000000000000000000000000000000000000000600052602160045260246000fd5b141561142b5761142a81611764565b5b5b505050505050565b61143c611666565b73ffffffffffffffffffffffffffffffffffffffff1661145a61063e565b73ffffffffffffffffffffffffffffffffffffffff16146114b0576040517f08c379a00000000000000000000000000000000000000000000000000000000081526004016114a79061232e565b60405180910390fd5b600073ffffffffffffffffffffffffffffffffffffffff168173ffffffffffffffffffffffffffffffffffffffff161415611520576040517f08c379a0000000000000000000000000000000000000000000000000000000008152600401611517906122ce565b60405180910390fd5b8073ffffffffffffffffffffffffffffffffffffffff1660008054906101000a900473ffffffffffffffffffffffffffffffffffffffff1673ffffffffffffffffffffffffffffffffffffffff167f8be0079c531659141344cd1fd0a4f28419497f9722a3daafe3b4186f6b6457e060405160405180910390a3806000806101000a81548173ffffffffffffffffffffffffffffffffffffffff021916908373ffffffffffffffffffffffffffffffffffffffff16021790555050565b34600360003373ffffffffffffffffffffffffffffffffffffffff1673ffffffffffffffffffffffffffffffffffffffff16815260200190815260200160002060007f45544800000000000000000000000000000000000000000000000000000000008152602001908152602001600020600082825461165d9190612474565b92505081905550565b600033905090565b6000600182805490506116819190612524565b90505b6000811115611760578160018261169b9190612524565b815481106116d2577f4e487b7100000000000000000000000000000000000000000000000000000000600052603260045260246000fd5b90600052602060002090600502016004015482828154811061171d577f4e487b7100000000000000000000000000000000000000000000000000000000600052603260045260246000fd5b906000526020600020906005020160040154111561174d5761174c826001836117469190612524565b8361185a565b5b8080611758906125cf565b915050611684565b5050565b6000600182805490506117779190612524565b90505b600081111561185657816001826117919190612524565b815481106117c8577f4e487b7100000000000000000000000000000000000000000000000000000000600052603260045260246000fd5b906000526020600020906005020160040154828281548110611813577f4e487b7100000000000000000000000000000000000000000000000000000000600052603260045260246000fd5b9060005260206000209060050201600401541015611843576118428260018361183c9190612524565b8361185a565b5b808061184e906125cf565b91505061177a565b5050565b6000838381548110611895577f4e487b7100000000000000000000000000000000000000000000000000000000600052603260045260246000fd5b90600052602060002090600502016040518060c0016040529081600082015481526020016001820160009054906101000a900473ffffffffffffffffffffffffffffffffffffffff1673ffffffffffffffffffffffffffffffffffffffff1673ffffffffffffffffffffffffffffffffffffffff1681526020016001820160149054906101000a900460ff166001811115611959577f4e487b7100000000000000000000000000000000000000000000000000000000600052602160045260246000fd5b6001811115611991577f4e487b7100000000000000000000000000000000000000000000000000000000600052602160045260246000fd5b8152602001600282015481526020016003820154815260200160048201548152505090508382815481106119ee577f4e487b7100000000000000000000000000000000000000000000000000000000600052603260045260246000fd5b9060005260206000209060050201848481548110611a35577f4e487b7100000000000000000000000000000000000000000000000000000000600052603260045260246000fd5b9060005260206000209060050201600082015481600001556001820160009054906101000a900473ffffffffffffffffffffffffffffffffffffffff168160010160006101000a81548173ffffffffffffffffffffffffffffffffffffffff021916908373ffffffffffffffffffffffffffffffffffffffff1602179055506001820160149054906101000a900460ff168160010160146101000a81548160ff02191690836001811115611b12577f4e487b7100000000000000000000000000000000000000000000000000000000600052602160045260246000fd5b021790555060028201548160020155600382015481600301556004820154816004015590505080848381548110611b72577f4e487b7100000000000000000000000000000000000000000000000000000000600052603260045260246000fd5b90600052602060002090600502016000820151816000015560208201518160010160006101000a81548173ffffffffffffffffffffffffffffffffffffffff021916908373ffffffffffffffffffffffffffffffffffffffff16021790555060408201518160010160146101000a81548160ff02191690836001811115611c22577f4e487b7100000000000000000000000000000000000000000000000000000000600052602160045260246000fd5b0217905550606082015181600201556080820151816003015560a0820151816004015590505050505050565b600081359050611c5d81612822565b92915050565b600081519050611c7281612839565b92915050565b600081359050611c8781612850565b92915050565b600081359050611c9c81612867565b92915050565b600081359050611cb181612877565b92915050565b600060208284031215611cc957600080fd5b6000611cd784828501611c4e565b91505092915050565b60008060408385031215611cf357600080fd5b6000611d0185828601611c4e565b9250506020611d1285828601611c78565b9150509250929050565b600060208284031215611d2e57600080fd5b6000611d3c84828501611c63565b91505092915050565b600060208284031215611d5757600080fd5b6000611d6584828501611c78565b91505092915050565b60008060408385031215611d8157600080fd5b6000611d8f85828601611c78565b9250506020611da085828601611c4e565b9150509250929050565b60008060408385031215611dbd57600080fd5b6000611dcb85828601611c78565b9250506020611ddc85828601611c8d565b9150509250929050565b600080600060608486031215611dfb57600080fd5b6000611e0986828701611c78565b9350506020611e1a86828701611c8d565b9250506040611e2b86828701611ca2565b9150509250925092565b60008060008060808587031215611e4b57600080fd5b6000611e5987828801611c78565b9450506020611e6a87828801611c8d565b9350506040611e7b87828801611ca2565b9250506060611e8c87828801611ca2565b91505092959194509250565b600080600060608486031215611ead57600080fd5b6000611ebb86828701611c78565b9350506020611ecc86828701611ca2565b9250506040611edd86828701611ca2565b9150509250925092565b600060208284031215611ef957600080fd5b6000611f0784828501611ca2565b91505092915050565b60008060408385031215611f2357600080fd5b6000611f3185828601611ca2565b9250506020611f4285828601611c78565b9150509250929050565b6000611f588383612134565b60c08301905092915050565b611f6d81612558565b82525050565b611f7c81612558565b82525050565b6000611f8d8261243a565b611f978185612452565b9350611fa28361242a565b8060005b83811015611fd3578151611fba8882611f4c565b9750611fc583612445565b925050600181019050611fa6565b5085935050505092915050565b611fe981612576565b82525050565b611ff881612576565b82525050565b612007816125bd565b82525050565b612016816125bd565b82525050565b6000612029601783612463565b9150612034826126a0565b602082019050919050565b600061204c602683612463565b9150612057826126c9565b604082019050919050565b600061206f601a83612463565b915061207a82612718565b602082019050919050565b6000612092601e83612463565b915061209d82612741565b602082019050919050565b60006120b5602083612463565b91506120c08261276a565b602082019050919050565b60006120d8601a83612463565b91506120e382612793565b602082019050919050565b60006120fb601e83612463565b9150612106826127bc565b602082019050919050565b600061211e601a83612463565b9150612129826127e5565b602082019050919050565b60c08201600082015161214a60008501826121af565b50602082015161215d6020850182611f64565b5060408201516121706040850182611ffe565b5060608201516121836060850182611fe0565b50608082015161219660808501826121af565b5060a08201516121a960a08501826121af565b50505050565b6121b8816125b3565b82525050565b6121c7816125b3565b82525050565b60006020820190506121e26000830184611f73565b92915050565b60006060820190506121fd6000830186611f73565b61220a6020830185611f73565b61221760408301846121be565b949350505050565b60006040820190506122346000830185611f73565b61224160208301846121be565b9392505050565b600060208201905081810360008301526122628184611f82565b905092915050565b600060208201905061227f6000830184611fef565b92915050565b600060408201905061229a6000830185611fef565b6122a76020830184611f73565b9392505050565b600060208201905081810360008301526122c78161201c565b9050919050565b600060208201905081810360008301526122e78161203f565b9050919050565b6000602082019050818103600083015261230781612062565b9050919050565b6000602082019050818103600083015261232781612085565b9050919050565b60006020820190508181036000830152612347816120a8565b9050919050565b60006020820190508181036000830152612367816120cb565b9050919050565b60006020820190508181036000830152612387816120ee565b9050919050565b600060208201905081810360008301526123a781612111565b9050919050565b60006020820190506123c360008301846121be565b92915050565b600060c0820190506123de60008301896121be565b6123eb6020830188611f73565b6123f8604083018761200d565b6124056060830186611fef565b61241260808301856121be565b61241f60a08301846121be565b979650505050505050565b6000819050602082019050919050565b600081519050919050565b6000602082019050919050565b600082825260208201905092915050565b600082825260208201905092915050565b600061247f826125b3565b915061248a836125b3565b9250827fffffffffffffffffffffffffffffffffffffffffffffffffffffffffffffffff038211156124bf576124be612642565b5b828201905092915050565b60006124d5826125b3565b91506124e0836125b3565b9250817fffffffffffffffffffffffffffffffffffffffffffffffffffffffffffffffff048311821515161561251957612518612642565b5b828202905092915050565b600061252f826125b3565b915061253a836125b3565b92508282101561254d5761254c612642565b5b828203905092915050565b600061256382612593565b9050919050565b60008115159050919050565b6000819050919050565b600081905061258e8261280e565b919050565b600073ffffffffffffffffffffffffffffffffffffffff82169050919050565b6000819050919050565b60006125c882612580565b9050919050565b60006125da826125b3565b915060008214156125ee576125ed612642565b5b600182039050919050565b6000612604826125b3565b91507fffffffffffffffffffffffffffffffffffffffffffffffffffffffffffffffff82141561263757612636612642565b5b600182019050919050565b7f4e487b7100000000000000000000000000000000000000000000000000000000600052601160045260246000fd5b7f4e487b7100000000000000000000000000000000000000000000000000000000600052602160045260246000fd5b7f42616c616e6365206e6f742073756666696369656e7421000000000000000000600082015250565b7f4f776e61626c653a206e6577206f776e657220697320746865207a65726f206160008201527f6464726573730000000000000000000000000000000000000000000000000000602082015250565b7f4e65697468657220425559206e6f722053454c4c207369646521000000000000600082015250565b7f556e6b6e6f776e20746f6b656e3b20616464546f6b656e206669727374210000600082015250565b7f4f776e61626c653a2063616c6c6572206973206e6f7420746865206f776e6572600082015250565b7f41736b656420746f206465706f736974203020746f6b656e7321000000000000600082015250565b7f546f6f2066657720746f6b656e7320666f722073656c6c206f72646572210000600082015250565b7f4e6f7420656e6f75676820455448206f6e206465706f73697421000000000000600082015250565b6002811061281f5761281e612671565b5b50565b61282b81612558565b811461283657600080fd5b50565b6128428161256a565b811461284d57600080fd5b50565b61285981612576565b811461286457600080fd5b50565b6002811061287457600080fd5b50565b612880816125b3565b811461288b57600080fd5b5056fea2646970667358221220ef045e830d4477efa53e481b013d1fdf5405dc6773a040712133a8cee113114f64736f6c63430008040033",
  "immutableReferences": {},
  "source": "// SPDX-License-Identifier: MIT\npragma solidity ^0.8.0;\n\nimport \"./Wallet.sol\";\n\ncontract Dex is Wallet {\n\n    enum Side {\n        BUY,\n        SELL\n    }\n\n    struct Order {\n        uint id;\n        address trader;\n        Side side;\n        bytes32 ticker;\n        uint amount;\n        uint price; \n    }\n\n    // State variables\n\n    mapping(bytes32 => mapping(uint => Order[])) public orderBook;    //Ticker => (Side => orders)\n    uint nextId = 1;\n\n\n    // Public & External Functions\n\n    function depositETH() public payable {\n        balances[msg.sender][\"ETH\"] += msg.value;\n    }\n\n\n    function getOrderBook(bytes32 ticker, Side side) view public returns(Order[] memory) {\n        return(orderBook[ticker][uint(side)]);\n    }\n\n\n    function createLimitOrder(bytes32 ticker, Side side, uint price, uint amount)\n        external\n        isKnownToken(ticker)\n    {\n        if (side == Side.BUY)\n            require(\n                balances[msg.sender][\"ETH\"] >= amount * price,\n                \"Not enough ETH on deposit!\"\n            );\n        else if (side == Side.SELL)\n            require(\n                balances[msg.sender][ticker] >= amount,\n                \"Too few tokens for sell order!\"\n            );\n        else revert(\"Neither BUY nor SELL side!\");\n        \n        Order[] storage orders = orderBook[ticker][uint(side)];\n        orders.push(Order(nextId, msg.sender, side, ticker, amount, price));\n        nextId++;\n\n        if (side == Side.BUY) sortToDescedingPrice(orders);\n        else if (side == Side.SELL) sortToAscendingPrice(orders);\n    }\n\n\n    function createMarketOrder(bytes32 ticker, Side side, uint amount)\n        external\n        isKnownToken(ticker)\n    {\n\n\n    }\n\n// Internal and private functions\n\n    function sortToDescedingPrice(Order[] storage orders)\n        internal\n    {\n        for (uint i=orders.length-1; i>0; i--)\n            if (orders[i].price > orders[i-1].price)\n                swapOrderPosition(orders, i-1, i);\n    }\n\n\n    function sortToAscendingPrice(Order[] storage orders)\n        internal\n    {\n            for (uint i=orders.length-1; i>0; i--)\n                if (orders[i].price < orders[i-1].price)\n                    swapOrderPosition(orders, i-1, i);\n    }\n\n\n    function swapOrderPosition(Order[] storage orders, uint pos1, uint pos2)\n        internal\n    {\n        Order memory tempOrder = orders[pos1];\n        orders[pos1] = orders[pos2]; \n        orders[pos2] = tempOrder;\n    }\n\n}\n",
  "sourcePath": "/Users/Mark/Documents/BlockChain/IvanOnTechAcademy/Solidity - Smart Contract Programming 201/DEX-Project/contracts/Dex.sol",
  "compiler": {
    "name": "solc",
    "version": "0.8.4+commit.c7e474f2.Emscripten.clang"
  },
  "schemaVersion": "3.4.0",
  "updatedAt": "2021-05-11T23:52:55.134Z",
  "devdoc": {
    "kind": "dev",
    "methods": {
      "owner()": {
        "details": "Returns the address of the current owner."
      },
      "renounceOwnership()": {
        "details": "Leaves the contract without owner. It will not be possible to call `onlyOwner` functions anymore. Can only be called by the current owner. NOTE: Renouncing ownership will leave the contract without an owner, thereby removing any functionality that is only available to the owner."
      },
      "transferOwnership(address)": {
        "details": "Transfers ownership of the contract to a new account (`newOwner`). Can only be called by the current owner."
      }
    },
    "version": 1
  },
  "userdoc": {
    "kind": "user",
    "methods": {},
    "version": 1
  }
}