{
  "contractName": "Dex",
  "abi": [
    {
      "anonymous": false,
      "inputs": [
        {
          "indexed": true,
          "internalType": "address",
          "name": "previousOwner",
          "type": "address"
        },
        {
          "indexed": true,
          "internalType": "address",
          "name": "newOwner",
          "type": "address"
        }
      ],
      "name": "OwnershipTransferred",
      "type": "event"
    },
    {
      "inputs": [
        {
          "internalType": "bytes32",
          "name": "ticker",
          "type": "bytes32"
        },
        {
          "internalType": "address",
          "name": "tokenAddress",
          "type": "address"
        }
      ],
      "name": "addToken",
      "outputs": [],
      "stateMutability": "nonpayable",
      "type": "function"
    },
    {
      "inputs": [
        {
          "internalType": "address",
          "name": "",
          "type": "address"
        },
        {
          "internalType": "bytes32",
          "name": "",
          "type": "bytes32"
        }
      ],
      "name": "balances",
      "outputs": [
        {
          "internalType": "uint256",
          "name": "",
          "type": "uint256"
        }
      ],
      "stateMutability": "view",
      "type": "function"
    },
    {
      "inputs": [
        {
          "internalType": "uint256",
          "name": "amount",
          "type": "uint256"
        },
        {
          "internalType": "bytes32",
          "name": "ticker",
          "type": "bytes32"
        }
      ],
      "name": "deposit",
      "outputs": [],
      "stateMutability": "nonpayable",
      "type": "function"
    },
    {
      "inputs": [],
      "name": "owner",
      "outputs": [
        {
          "internalType": "address",
          "name": "",
          "type": "address"
        }
      ],
      "stateMutability": "view",
      "type": "function"
    },
    {
      "inputs": [],
      "name": "renounceOwnership",
      "outputs": [],
      "stateMutability": "nonpayable",
      "type": "function"
    },
    {
      "inputs": [
        {
          "internalType": "uint256",
          "name": "",
          "type": "uint256"
        }
      ],
      "name": "tokenList",
      "outputs": [
        {
          "internalType": "bytes32",
          "name": "",
          "type": "bytes32"
        }
      ],
      "stateMutability": "view",
      "type": "function"
    },
    {
      "inputs": [
        {
          "internalType": "bytes32",
          "name": "",
          "type": "bytes32"
        }
      ],
      "name": "tokenMapping",
      "outputs": [
        {
          "internalType": "bytes32",
          "name": "ticker",
          "type": "bytes32"
        },
        {
          "internalType": "address",
          "name": "tokenAddress",
          "type": "address"
        }
      ],
      "stateMutability": "view",
      "type": "function"
    },
    {
      "inputs": [
        {
          "internalType": "address",
          "name": "newOwner",
          "type": "address"
        }
      ],
      "name": "transferOwnership",
      "outputs": [],
      "stateMutability": "nonpayable",
      "type": "function"
    },
    {
      "inputs": [
        {
          "internalType": "uint256",
          "name": "amount",
          "type": "uint256"
        },
        {
          "internalType": "bytes32",
          "name": "ticker",
          "type": "bytes32"
        }
      ],
      "name": "withdraw",
      "outputs": [],
      "stateMutability": "nonpayable",
      "type": "function"
    },
    {
      "inputs": [
        {
          "internalType": "bytes32",
          "name": "ticker",
          "type": "bytes32"
        },
        {
          "internalType": "enum Dex.Side",
          "name": "side",
          "type": "uint8"
        }
      ],
      "name": "getOrderBook",
      "outputs": [
        {
          "components": [
            {
              "internalType": "uint256",
              "name": "id",
              "type": "uint256"
            },
            {
              "internalType": "address",
              "name": "trader",
              "type": "address"
            },
            {
              "internalType": "enum Dex.Side",
              "name": "side",
              "type": "uint8"
            },
            {
              "internalType": "bytes32",
              "name": "ticker",
              "type": "bytes32"
            },
            {
              "internalType": "uint256",
              "name": "amount",
              "type": "uint256"
            },
            {
              "internalType": "uint256",
              "name": "price",
              "type": "uint256"
            }
          ],
          "internalType": "struct Dex.Order[]",
          "name": "",
          "type": "tuple[]"
        }
      ],
      "stateMutability": "view",
      "type": "function"
    },
    {
      "inputs": [],
      "name": "createLimitOrder",
      "outputs": [],
      "stateMutability": "nonpayable",
      "type": "function"
    }
  ],
  "bytecode": "0x608060405234801561001057600080fd5b5060006100216100c460201b60201c565b9050806000806101000a81548173ffffffffffffffffffffffffffffffffffffffff021916908373ffffffffffffffffffffffffffffffffffffffff1602179055508073ffffffffffffffffffffffffffffffffffffffff16600073ffffffffffffffffffffffffffffffffffffffff167f8be0079c531659141344cd1fd0a4f28419497f9722a3daafe3b4186f6b6457e060405160405180910390a3506100cc565b600033905090565b6116f6806100db6000396000f3fe608060405234801561001057600080fd5b50600436106100a95760003560e01c80639ead7222116100715780639ead722214610153578063a87f014614610183578063a8d2021a1461018d578063ba58ea68146101a9578063c9630cb0146101d9578063f2fde38b146101f5576100a9565b80631f14df69146100ae578063667cb4ba146100de578063715018a61461010f5780638da5cb5b146101195780639776aacf14610137575b600080fd5b6100c860048036038101906100c39190610e94565b610211565b6040516100d59190611389565b60405180910390f35b6100f860048036038101906100f39190610ef9565b610236565b6040516101069291906112c0565b60405180910390f35b61011761027a565b005b6101216103b4565b60405161012e9190611208565b60405180910390f35b610151600480360381019061014c9190610f22565b6103dd565b005b61016d60048036038101906101689190610f9a565b610518565b60405161017a91906112a5565b60405180910390f35b61018b61053c565b005b6101a760048036038101906101a29190610fc3565b61053e565b005b6101c360048036038101906101be9190610f5e565b6107f8565b6040516101d09190611283565b60405180910390f35b6101f360048036038101906101ee9190610fc3565b6109b9565b005b61020f600480360381019061020a9190610e6b565b610c25565b005b6003602052816000526040600020602052806000526040600020600091509150505481565b60016020528060005260406000206000915090508060000154908060010160009054906101000a900473ffffffffffffffffffffffffffffffffffffffff16905082565b610282610dce565b73ffffffffffffffffffffffffffffffffffffffff166102a06103b4565b73ffffffffffffffffffffffffffffffffffffffff16146102f6576040517f08c379a00000000000000000000000000000000000000000000000000000000081526004016102ed90611349565b60405180910390fd5b600073ffffffffffffffffffffffffffffffffffffffff1660008054906101000a900473ffffffffffffffffffffffffffffffffffffffff1673ffffffffffffffffffffffffffffffffffffffff167f8be0079c531659141344cd1fd0a4f28419497f9722a3daafe3b4186f6b6457e060405160405180910390a360008060006101000a81548173ffffffffffffffffffffffffffffffffffffffff021916908373ffffffffffffffffffffffffffffffffffffffff160217905550565b60008060009054906101000a900473ffffffffffffffffffffffffffffffffffffffff16905090565b6103e5610dce565b73ffffffffffffffffffffffffffffffffffffffff166104036103b4565b73ffffffffffffffffffffffffffffffffffffffff1614610459576040517f08c379a000000000000000000000000000000000000000000000000000000000815260040161045090611349565b60405180910390fd5b60405180604001604052808381526020018273ffffffffffffffffffffffffffffffffffffffff16815250600160008481526020019081526020016000206000820151816000015560208201518160010160006101000a81548173ffffffffffffffffffffffffffffffffffffffff021916908373ffffffffffffffffffffffffffffffffffffffff16021790555090505060028290806001815401808255809150506001900390600052602060002001600090919091909150555050565b6002818154811061052857600080fd5b906000526020600020016000915090505481565b565b80600073ffffffffffffffffffffffffffffffffffffffff166001600083815260200190815260200160002060010160009054906101000a900473ffffffffffffffffffffffffffffffffffffffff1673ffffffffffffffffffffffffffffffffffffffff1614156105e5576040517f08c379a00000000000000000000000000000000000000000000000000000000081526004016105dc90611329565b60405180910390fd5b82600360003373ffffffffffffffffffffffffffffffffffffffff1673ffffffffffffffffffffffffffffffffffffffff1681526020019081526020016000206000848152602001908152602001600020541015610678576040517f08c379a000000000000000000000000000000000000000000000000000000000815260040161066f906112e9565b60405180910390fd5b6106db83600360003373ffffffffffffffffffffffffffffffffffffffff1673ffffffffffffffffffffffffffffffffffffffff168152602001908152602001600020600085815260200190815260200160002054610dd690919063ffffffff16565b600360003373ffffffffffffffffffffffffffffffffffffffff1673ffffffffffffffffffffffffffffffffffffffff1681526020019081526020016000206000848152602001908152602001600020819055506001600083815260200190815260200160002060010160009054906101000a900473ffffffffffffffffffffffffffffffffffffffff1673ffffffffffffffffffffffffffffffffffffffff1663a9059cbb33856040518363ffffffff1660e01b81526004016107a092919061125a565b602060405180830381600087803b1580156107ba57600080fd5b505af11580156107ce573d6000803e3d6000fd5b505050506040513d601f19601f820116820180604052508101906107f29190610ed0565b50505050565b6060600460008481526020019081526020016000206000836001811115610848577f4e487b7100000000000000000000000000000000000000000000000000000000600052602160045260246000fd5b8152602001908152602001600020805480602002602001604051908101604052809291908181526020016000905b828210156109ad57838290600052602060002090600502016040518060c0016040529081600082015481526020016001820160009054906101000a900473ffffffffffffffffffffffffffffffffffffffff1673ffffffffffffffffffffffffffffffffffffffff1673ffffffffffffffffffffffffffffffffffffffff1681526020016001820160149054906101000a900460ff166001811115610944577f4e487b7100000000000000000000000000000000000000000000000000000000600052602160045260246000fd5b600181111561097c577f4e487b7100000000000000000000000000000000000000000000000000000000600052602160045260246000fd5b8152602001600282015481526020016003820154815260200160048201548152505081526020019060010190610876565b50505050905092915050565b80600073ffffffffffffffffffffffffffffffffffffffff166001600083815260200190815260200160002060010160009054906101000a900473ffffffffffffffffffffffffffffffffffffffff1673ffffffffffffffffffffffffffffffffffffffff161415610a60576040517f08c379a0000000000000000000000000000000000000000000000000000000008152600401610a5790611329565b60405180910390fd5b60008311610aa3576040517f08c379a0000000000000000000000000000000000000000000000000000000008152600401610a9a90611369565b60405180910390fd5b610b0683600360003373ffffffffffffffffffffffffffffffffffffffff1673ffffffffffffffffffffffffffffffffffffffff168152602001908152602001600020600085815260200190815260200160002054610dec90919063ffffffff16565b600360003373ffffffffffffffffffffffffffffffffffffffff1673ffffffffffffffffffffffffffffffffffffffff1681526020019081526020016000206000848152602001908152602001600020819055506001600083815260200190815260200160002060010160009054906101000a900473ffffffffffffffffffffffffffffffffffffffff1673ffffffffffffffffffffffffffffffffffffffff166323b872dd3330866040518463ffffffff1660e01b8152600401610bcd93929190611223565b602060405180830381600087803b158015610be757600080fd5b505af1158015610bfb573d6000803e3d6000fd5b505050506040513d601f19601f82011682018060405250810190610c1f9190610ed0565b50505050565b610c2d610dce565b73ffffffffffffffffffffffffffffffffffffffff16610c4b6103b4565b73ffffffffffffffffffffffffffffffffffffffff1614610ca1576040517f08c379a0000000000000000000000000000000000000000000000000000000008152600401610c9890611349565b60405180910390fd5b600073ffffffffffffffffffffffffffffffffffffffff168173ffffffffffffffffffffffffffffffffffffffff161415610d11576040517f08c379a0000000000000000000000000000000000000000000000000000000008152600401610d0890611309565b60405180910390fd5b8073ffffffffffffffffffffffffffffffffffffffff1660008054906101000a900473ffffffffffffffffffffffffffffffffffffffff1673ffffffffffffffffffffffffffffffffffffffff167f8be0079c531659141344cd1fd0a4f28419497f9722a3daafe3b4186f6b6457e060405160405180910390a3806000806101000a81548173ffffffffffffffffffffffffffffffffffffffff021916908373ffffffffffffffffffffffffffffffffffffffff16021790555050565b600033905090565b60008183610de49190611444565b905092915050565b60008183610dfa91906113ee565b905092915050565b600081359050610e1181611654565b92915050565b600081519050610e268161166b565b92915050565b600081359050610e3b81611682565b92915050565b600081359050610e5081611699565b92915050565b600081359050610e65816116a9565b92915050565b600060208284031215610e7d57600080fd5b6000610e8b84828501610e02565b91505092915050565b60008060408385031215610ea757600080fd5b6000610eb585828601610e02565b9250506020610ec685828601610e2c565b9150509250929050565b600060208284031215610ee257600080fd5b6000610ef084828501610e17565b91505092915050565b600060208284031215610f0b57600080fd5b6000610f1984828501610e2c565b91505092915050565b60008060408385031215610f3557600080fd5b6000610f4385828601610e2c565b9250506020610f5485828601610e02565b9150509250929050565b60008060408385031215610f7157600080fd5b6000610f7f85828601610e2c565b9250506020610f9085828601610e41565b9150509250929050565b600060208284031215610fac57600080fd5b6000610fba84828501610e56565b91505092915050565b60008060408385031215610fd657600080fd5b6000610fe485828601610e56565b9250506020610ff585828601610e2c565b9150509250929050565b600061100b838361116f565b60c08301905092915050565b61102081611478565b82525050565b61102f81611478565b82525050565b6000611040826113b4565b61104a81856113cc565b9350611055836113a4565b8060005b8381101561108657815161106d8882610fff565b9750611078836113bf565b925050600181019050611059565b5085935050505092915050565b61109c81611496565b82525050565b6110ab81611496565b82525050565b6110ba816114dd565b82525050565b60006110cd6017836113dd565b91506110d88261154d565b602082019050919050565b60006110f06026836113dd565b91506110fb82611576565b604082019050919050565b6000611113601e836113dd565b915061111e826115c5565b602082019050919050565b60006111366020836113dd565b9150611141826115ee565b602082019050919050565b6000611159601a836113dd565b915061116482611617565b602082019050919050565b60c08201600082015161118560008501826111ea565b5060208201516111986020850182611017565b5060408201516111ab60408501826110b1565b5060608201516111be6060850182611093565b5060808201516111d160808501826111ea565b5060a08201516111e460a08501826111ea565b50505050565b6111f3816114d3565b82525050565b611202816114d3565b82525050565b600060208201905061121d6000830184611026565b92915050565b60006060820190506112386000830186611026565b6112456020830185611026565b61125260408301846111f9565b949350505050565b600060408201905061126f6000830185611026565b61127c60208301846111f9565b9392505050565b6000602082019050818103600083015261129d8184611035565b905092915050565b60006020820190506112ba60008301846110a2565b92915050565b60006040820190506112d560008301856110a2565b6112e26020830184611026565b9392505050565b60006020820190508181036000830152611302816110c0565b9050919050565b60006020820190508181036000830152611322816110e3565b9050919050565b6000602082019050818103600083015261134281611106565b9050919050565b6000602082019050818103600083015261136281611129565b9050919050565b600060208201905081810360008301526113828161114c565b9050919050565b600060208201905061139e60008301846111f9565b92915050565b6000819050602082019050919050565b600081519050919050565b6000602082019050919050565b600082825260208201905092915050565b600082825260208201905092915050565b60006113f9826114d3565b9150611404836114d3565b9250827fffffffffffffffffffffffffffffffffffffffffffffffffffffffffffffffff03821115611439576114386114ef565b5b828201905092915050565b600061144f826114d3565b915061145a836114d3565b92508282101561146d5761146c6114ef565b5b828203905092915050565b6000611483826114b3565b9050919050565b60008115159050919050565b6000819050919050565b60008190506114ae82611640565b919050565b600073ffffffffffffffffffffffffffffffffffffffff82169050919050565b6000819050919050565b60006114e8826114a0565b9050919050565b7f4e487b7100000000000000000000000000000000000000000000000000000000600052601160045260246000fd5b7f4e487b7100000000000000000000000000000000000000000000000000000000600052602160045260246000fd5b7f42616c616e6365206e6f742073756666696369656e7421000000000000000000600082015250565b7f4f776e61626c653a206e6577206f776e657220697320746865207a65726f206160008201527f6464726573730000000000000000000000000000000000000000000000000000602082015250565b7f556e6b6e6f776e20746f6b656e3b20616464546f6b656e206669727374210000600082015250565b7f4f776e61626c653a2063616c6c6572206973206e6f7420746865206f776e6572600082015250565b7f41736b656420746f206465706f736974203020746f6b656e7321000000000000600082015250565b600281106116515761165061151e565b5b50565b61165d81611478565b811461166857600080fd5b50565b6116748161148a565b811461167f57600080fd5b50565b61168b81611496565b811461169657600080fd5b50565b600281106116a657600080fd5b50565b6116b2816114d3565b81146116bd57600080fd5b5056fea264697066735822122029c0566f26c2bde5ed94af1ac67ffc23f07fef15012caa68062665ef7b30c4c264736f6c63430008040033",
  "immutableReferences": {},
  "source": "pragma solidity ^0.8.0;\npragma experimental ABIEncoderV2;\n\n// TODO - import Wallet (via an interface??)\nimport \"./Wallet.sol\";\n\ncontract Dex is Wallet {\n\n    enum Side {\n        BUY,\n        SELL\n    }\n\n    struct Order {\n        uint id;\n        address trader;\n        Side side;\n        bytes32 ticker;\n        uint amount;\n        uint price; \n    }\n    // order.side = Side.BUY;\n\n    mapping(bytes32 => mapping(uint => Order[])) orderBook;    //Ticker => (Side => orders)\n\n    function getOrderBook(bytes32 ticker, Side side) view public returns(Order[] memory) {\n        return(orderBook[ticker][uint(side)]);\n    }\n    // Note: Call would be :\n    //  getOrderBook(bytes32(\"LINK\"), Side.BUY);\n\n\n    function createLimitOrder() public {\n        // TODO\n    }\n\n}",
  "sourcePath": "/Users/Mark/Documents/BlockChain/IvanOnTechAcademy/Solidity - Smart Contract Programming 201/DEX-Project/contracts/Dex.sol",
  "compiler": {
    "name": "solc",
    "version": "0.8.4+commit.c7e474f2.Emscripten.clang"
  },
  "schemaVersion": "3.4.0",
  "updatedAt": "2021-05-04T19:29:24.524Z",
  "devdoc": {
    "kind": "dev",
    "methods": {
      "owner()": {
        "details": "Returns the address of the current owner."
      },
      "renounceOwnership()": {
        "details": "Leaves the contract without owner. It will not be possible to call `onlyOwner` functions anymore. Can only be called by the current owner. NOTE: Renouncing ownership will leave the contract without an owner, thereby removing any functionality that is only available to the owner."
      },
      "transferOwnership(address)": {
        "details": "Transfers ownership of the contract to a new account (`newOwner`). Can only be called by the current owner."
      }
    },
    "version": 1
  },
  "userdoc": {
    "kind": "user",
    "methods": {},
    "version": 1
  }
}