{
  "contractName": "Wallet",
  "abi": [
    {
      "anonymous": false,
      "inputs": [
        {
          "indexed": true,
          "internalType": "address",
          "name": "previousOwner",
          "type": "address"
        },
        {
          "indexed": true,
          "internalType": "address",
          "name": "newOwner",
          "type": "address"
        }
      ],
      "name": "OwnershipTransferred",
      "type": "event"
    },
    {
      "inputs": [
        {
          "internalType": "address",
          "name": "",
          "type": "address"
        },
        {
          "internalType": "bytes32",
          "name": "",
          "type": "bytes32"
        }
      ],
      "name": "balances",
      "outputs": [
        {
          "internalType": "uint256",
          "name": "",
          "type": "uint256"
        }
      ],
      "stateMutability": "view",
      "type": "function"
    },
    {
      "inputs": [],
      "name": "owner",
      "outputs": [
        {
          "internalType": "address",
          "name": "",
          "type": "address"
        }
      ],
      "stateMutability": "view",
      "type": "function"
    },
    {
      "inputs": [],
      "name": "renounceOwnership",
      "outputs": [],
      "stateMutability": "nonpayable",
      "type": "function"
    },
    {
      "inputs": [
        {
          "internalType": "uint256",
          "name": "",
          "type": "uint256"
        }
      ],
      "name": "tokenList",
      "outputs": [
        {
          "internalType": "bytes32",
          "name": "",
          "type": "bytes32"
        }
      ],
      "stateMutability": "view",
      "type": "function"
    },
    {
      "inputs": [
        {
          "internalType": "bytes32",
          "name": "",
          "type": "bytes32"
        }
      ],
      "name": "tokenMapping",
      "outputs": [
        {
          "internalType": "bytes32",
          "name": "ticker",
          "type": "bytes32"
        },
        {
          "internalType": "address",
          "name": "tokenAddress",
          "type": "address"
        }
      ],
      "stateMutability": "view",
      "type": "function"
    },
    {
      "inputs": [
        {
          "internalType": "address",
          "name": "newOwner",
          "type": "address"
        }
      ],
      "name": "transferOwnership",
      "outputs": [],
      "stateMutability": "nonpayable",
      "type": "function"
    },
    {
      "inputs": [
        {
          "internalType": "bytes32",
          "name": "ticker",
          "type": "bytes32"
        },
        {
          "internalType": "address",
          "name": "tokenAddress",
          "type": "address"
        }
      ],
      "name": "addToken",
      "outputs": [],
      "stateMutability": "nonpayable",
      "type": "function"
    },
    {
      "inputs": [
        {
          "internalType": "uint256",
          "name": "amount",
          "type": "uint256"
        },
        {
          "internalType": "bytes32",
          "name": "ticker",
          "type": "bytes32"
        }
      ],
      "name": "deposit",
      "outputs": [],
      "stateMutability": "nonpayable",
      "type": "function"
    },
    {
      "inputs": [
        {
          "internalType": "uint256",
          "name": "amount",
          "type": "uint256"
        },
        {
          "internalType": "bytes32",
          "name": "ticker",
          "type": "bytes32"
        }
      ],
      "name": "withdraw",
      "outputs": [],
      "stateMutability": "nonpayable",
      "type": "function"
    }
  ],
  "bytecode": "0x608060405234801561001057600080fd5b5060006100216100c460201b60201c565b9050806000806101000a81548173ffffffffffffffffffffffffffffffffffffffff021916908373ffffffffffffffffffffffffffffffffffffffff1602179055508073ffffffffffffffffffffffffffffffffffffffff16600073ffffffffffffffffffffffffffffffffffffffff167f8be0079c531659141344cd1fd0a4f28419497f9722a3daafe3b4186f6b6457e060405160405180910390a3506100cc565b600033905090565b611192806100db6000396000f3fe608060405234801561001057600080fd5b50600436106100935760003560e01c80639776aacf116100665780639776aacf146101215780639ead72221461013d578063a8d2021a1461016d578063c9630cb014610189578063f2fde38b146101a557610093565b80631f14df6914610098578063667cb4ba146100c8578063715018a6146100f95780638da5cb5b14610103575b600080fd5b6100b260048036038101906100ad9190610ba0565b6101c1565b6040516100bf9190610f0a565b60405180910390f35b6100e260048036038101906100dd9190610c05565b6101e6565b6040516100f0929190610e41565b60405180910390f35b61010161022a565b005b61010b610364565b6040516101189190610dab565b60405180910390f35b61013b60048036038101906101369190610c2e565b61038d565b005b61015760048036038101906101529190610c6a565b6104c8565b6040516101649190610e26565b60405180910390f35b61018760048036038101906101829190610c93565b6104ec565b005b6101a3600480360381019061019e9190610c93565b610756565b005b6101bf60048036038101906101ba9190610b77565b610972565b005b6003602052816000526040600020602052806000526040600020600091509150505481565b60016020528060005260406000206000915090508060000154908060010160009054906101000a900473ffffffffffffffffffffffffffffffffffffffff16905082565b610232610b1b565b73ffffffffffffffffffffffffffffffffffffffff16610250610364565b73ffffffffffffffffffffffffffffffffffffffff16146102a6576040517f08c379a000000000000000000000000000000000000000000000000000000000815260040161029d90610eca565b60405180910390fd5b600073ffffffffffffffffffffffffffffffffffffffff1660008054906101000a900473ffffffffffffffffffffffffffffffffffffffff1673ffffffffffffffffffffffffffffffffffffffff167f8be0079c531659141344cd1fd0a4f28419497f9722a3daafe3b4186f6b6457e060405160405180910390a360008060006101000a81548173ffffffffffffffffffffffffffffffffffffffff021916908373ffffffffffffffffffffffffffffffffffffffff160217905550565b60008060009054906101000a900473ffffffffffffffffffffffffffffffffffffffff16905090565b610395610b1b565b73ffffffffffffffffffffffffffffffffffffffff166103b3610364565b73ffffffffffffffffffffffffffffffffffffffff1614610409576040517f08c379a000000000000000000000000000000000000000000000000000000000815260040161040090610eca565b60405180910390fd5b60405180604001604052808381526020018273ffffffffffffffffffffffffffffffffffffffff16815250600160008481526020019081526020016000206000820151816000015560208201518160010160006101000a81548173ffffffffffffffffffffffffffffffffffffffff021916908373ffffffffffffffffffffffffffffffffffffffff16021790555090505060028290806001815401808255809150506001900390600052602060002001600090919091909150555050565b600281815481106104d857600080fd5b906000526020600020016000915090505481565b80600073ffffffffffffffffffffffffffffffffffffffff166001600083815260200190815260200160002060010160009054906101000a900473ffffffffffffffffffffffffffffffffffffffff1673ffffffffffffffffffffffffffffffffffffffff161415610593576040517f08c379a000000000000000000000000000000000000000000000000000000000815260040161058a90610eaa565b60405180910390fd5b82600360003373ffffffffffffffffffffffffffffffffffffffff1673ffffffffffffffffffffffffffffffffffffffff1681526020019081526020016000206000848152602001908152602001600020541015610626576040517f08c379a000000000000000000000000000000000000000000000000000000000815260040161061d90610e6a565b60405180910390fd5b82600360003373ffffffffffffffffffffffffffffffffffffffff1673ffffffffffffffffffffffffffffffffffffffff168152602001908152602001600020600084815260200190815260200160002060008282546106869190610f36565b925050819055506001600083815260200190815260200160002060010160009054906101000a900473ffffffffffffffffffffffffffffffffffffffff1673ffffffffffffffffffffffffffffffffffffffff1663a9059cbb33856040518363ffffffff1660e01b81526004016106fe929190610dfd565b602060405180830381600087803b15801561071857600080fd5b505af115801561072c573d6000803e3d6000fd5b505050506040513d601f19601f820116820180604052508101906107509190610bdc565b50505050565b80600073ffffffffffffffffffffffffffffffffffffffff166001600083815260200190815260200160002060010160009054906101000a900473ffffffffffffffffffffffffffffffffffffffff1673ffffffffffffffffffffffffffffffffffffffff1614156107fd576040517f08c379a00000000000000000000000000000000000000000000000000000000081526004016107f490610eaa565b60405180910390fd5b60008311610840576040517f08c379a000000000000000000000000000000000000000000000000000000000815260040161083790610eea565b60405180910390fd5b82600360003373ffffffffffffffffffffffffffffffffffffffff1673ffffffffffffffffffffffffffffffffffffffff168152602001908152602001600020600084815260200190815260200160002060008282546108a09190610f36565b925050819055506001600083815260200190815260200160002060010160009054906101000a900473ffffffffffffffffffffffffffffffffffffffff1673ffffffffffffffffffffffffffffffffffffffff166323b872dd3330866040518463ffffffff1660e01b815260040161091a93929190610dc6565b602060405180830381600087803b15801561093457600080fd5b505af1158015610948573d6000803e3d6000fd5b505050506040513d601f19601f8201168201806040525081019061096c9190610bdc565b50505050565b61097a610b1b565b73ffffffffffffffffffffffffffffffffffffffff16610998610364565b73ffffffffffffffffffffffffffffffffffffffff16146109ee576040517f08c379a00000000000000000000000000000000000000000000000000000000081526004016109e590610eca565b60405180910390fd5b600073ffffffffffffffffffffffffffffffffffffffff168173ffffffffffffffffffffffffffffffffffffffff161415610a5e576040517f08c379a0000000000000000000000000000000000000000000000000000000008152600401610a5590610e8a565b60405180910390fd5b8073ffffffffffffffffffffffffffffffffffffffff1660008054906101000a900473ffffffffffffffffffffffffffffffffffffffff1673ffffffffffffffffffffffffffffffffffffffff167f8be0079c531659141344cd1fd0a4f28419497f9722a3daafe3b4186f6b6457e060405160405180910390a3806000806101000a81548173ffffffffffffffffffffffffffffffffffffffff021916908373ffffffffffffffffffffffffffffffffffffffff16021790555050565b600033905090565b600081359050610b3281611100565b92915050565b600081519050610b4781611117565b92915050565b600081359050610b5c8161112e565b92915050565b600081359050610b7181611145565b92915050565b600060208284031215610b8957600080fd5b6000610b9784828501610b23565b91505092915050565b60008060408385031215610bb357600080fd5b6000610bc185828601610b23565b9250506020610bd285828601610b4d565b9150509250929050565b600060208284031215610bee57600080fd5b6000610bfc84828501610b38565b91505092915050565b600060208284031215610c1757600080fd5b6000610c2584828501610b4d565b91505092915050565b60008060408385031215610c4157600080fd5b6000610c4f85828601610b4d565b9250506020610c6085828601610b23565b9150509250929050565b600060208284031215610c7c57600080fd5b6000610c8a84828501610b62565b91505092915050565b60008060408385031215610ca657600080fd5b6000610cb485828601610b62565b9250506020610cc585828601610b4d565b9150509250929050565b610cd881610f8c565b82525050565b610ce781610faa565b82525050565b6000610cfa601783610f25565b9150610d058261100d565b602082019050919050565b6000610d1d602683610f25565b9150610d2882611036565b604082019050919050565b6000610d40601e83610f25565b9150610d4b82611085565b602082019050919050565b6000610d63602083610f25565b9150610d6e826110ae565b602082019050919050565b6000610d86601a83610f25565b9150610d91826110d7565b602082019050919050565b610da581610fd4565b82525050565b6000602082019050610dc06000830184610ccf565b92915050565b6000606082019050610ddb6000830186610ccf565b610de86020830185610ccf565b610df56040830184610d9c565b949350505050565b6000604082019050610e126000830185610ccf565b610e1f6020830184610d9c565b9392505050565b6000602082019050610e3b6000830184610cde565b92915050565b6000604082019050610e566000830185610cde565b610e636020830184610ccf565b9392505050565b60006020820190508181036000830152610e8381610ced565b9050919050565b60006020820190508181036000830152610ea381610d10565b9050919050565b60006020820190508181036000830152610ec381610d33565b9050919050565b60006020820190508181036000830152610ee381610d56565b9050919050565b60006020820190508181036000830152610f0381610d79565b9050919050565b6000602082019050610f1f6000830184610d9c565b92915050565b600082825260208201905092915050565b6000610f4182610fd4565b9150610f4c83610fd4565b9250827fffffffffffffffffffffffffffffffffffffffffffffffffffffffffffffffff03821115610f8157610f80610fde565b5b828201905092915050565b6000610f9782610fb4565b9050919050565b60008115159050919050565b6000819050919050565b600073ffffffffffffffffffffffffffffffffffffffff82169050919050565b6000819050919050565b7f4e487b7100000000000000000000000000000000000000000000000000000000600052601160045260246000fd5b7f42616c616e6365206e6f742073756666696369656e7421000000000000000000600082015250565b7f4f776e61626c653a206e6577206f776e657220697320746865207a65726f206160008201527f6464726573730000000000000000000000000000000000000000000000000000602082015250565b7f556e6b6e6f776e20746f6b656e3b20616464546f6b656e206669727374210000600082015250565b7f4f776e61626c653a2063616c6c6572206973206e6f7420746865206f776e6572600082015250565b7f41736b656420746f206465706f736974203020746f6b656e7321000000000000600082015250565b61110981610f8c565b811461111457600080fd5b50565b61112081610f9e565b811461112b57600080fd5b50565b61113781610faa565b811461114257600080fd5b50565b61114e81610fd4565b811461115957600080fd5b5056fea26469706673582212200fffb59ddb0cff883e2d856028255895d16dcc17b0b488097780f1bcd4a8955f64736f6c63430008040033",
  "immutableReferences": {},
  "source": "// SPDX-License-Identifier: MIT\npragma solidity ^0.8.0;\n\nimport \"../node_modules/@openzeppelin/contracts/token/ERC20/IERC20.sol\";\nimport \"../node_modules/@openzeppelin/contracts/access/Ownable.sol\";\n\ncontract Wallet is Ownable {\n\n    struct Token {\n        bytes32 ticker;\n        address tokenAddress;   // Token's ERC20 Contract address \n    }\n    mapping(bytes32 => Token) public tokenMapping;  // Ticker => Token Struct\n    bytes32[] public tokenList;                     // List of all the token Tickers\n    \n    mapping(address=>mapping(bytes32 => uint256)) public balances; // owner's address? => (tokenTicker => balance)\n\n\n    modifier isKnownToken(bytes32 ticker){\n        require(\n            tokenMapping[ticker].tokenAddress != address(0),\n            \"Unknown token; addToken first!\"\n        );\n        _;\n    }\n\n    function addToken(bytes32 ticker, address tokenAddress) external onlyOwner {\n        tokenMapping[ticker] = Token(ticker, tokenAddress);\n        tokenList.push(ticker);\n    }\n\n\n    // Deposit tokens into the wallet (must be the owner of token in ERC20 token contract).\n    // Ie. The wallet contact needs to instruct the token contract to transfer the amount\n    // of tokens from the owner's address to the wallet contract's address.\n    // The wallet must have been granted operator privlidges beforehand in order for the\n    // token contract to perform this transfer of token ownership (ie. update its' internal\n    // token balances)\n    function deposit(uint amount, bytes32 ticker) external isKnownToken(ticker) {\n        require(amount > 0, \"Asked to deposit 0 tokens!\");          // Checks\n\n        balances[msg.sender][ticker] += amount;                     // Effects\n\n        IERC20(tokenMapping[ticker].tokenAddress).transferFrom(     // Interact\n            msg.sender,\n            address(this),\n            amount\n        );                                                                       \n    }\n    \n    function withdraw(uint amount, bytes32 ticker) external isKnownToken(ticker) {\n        require(balances[msg.sender][ticker] >= amount, \"Balance not sufficient!\");\n\n        balances[msg.sender][ticker] += amount;\n\n        IERC20(tokenMapping[ticker].tokenAddress).transfer(msg.sender, amount);\n    }\n}",
  "sourcePath": "/Users/Mark/Documents/BlockChain/IvanOnTechAcademy/Solidity - Smart Contract Programming 201/DEX-Project/contracts/Wallet.sol",
  "compiler": {
    "name": "solc",
    "version": "0.8.4+commit.c7e474f2.Emscripten.clang"
  },
  "schemaVersion": "3.4.0",
  "updatedAt": "2021-05-11T23:52:55.334Z",
  "devdoc": {
    "kind": "dev",
    "methods": {
      "owner()": {
        "details": "Returns the address of the current owner."
      },
      "renounceOwnership()": {
        "details": "Leaves the contract without owner. It will not be possible to call `onlyOwner` functions anymore. Can only be called by the current owner. NOTE: Renouncing ownership will leave the contract without an owner, thereby removing any functionality that is only available to the owner."
      },
      "transferOwnership(address)": {
        "details": "Transfers ownership of the contract to a new account (`newOwner`). Can only be called by the current owner."
      }
    },
    "version": 1
  },
  "userdoc": {
    "kind": "user",
    "methods": {},
    "version": 1
  }
}