{
  "contractName": "Wallet",
  "abi": [
    {
      "anonymous": false,
      "inputs": [
        {
          "indexed": true,
          "internalType": "address",
          "name": "previousOwner",
          "type": "address"
        },
        {
          "indexed": true,
          "internalType": "address",
          "name": "newOwner",
          "type": "address"
        }
      ],
      "name": "OwnershipTransferred",
      "type": "event"
    },
    {
      "inputs": [
        {
          "internalType": "address",
          "name": "",
          "type": "address"
        },
        {
          "internalType": "bytes32",
          "name": "",
          "type": "bytes32"
        }
      ],
      "name": "balances",
      "outputs": [
        {
          "internalType": "uint256",
          "name": "",
          "type": "uint256"
        }
      ],
      "stateMutability": "view",
      "type": "function"
    },
    {
      "inputs": [],
      "name": "owner",
      "outputs": [
        {
          "internalType": "address",
          "name": "",
          "type": "address"
        }
      ],
      "stateMutability": "view",
      "type": "function"
    },
    {
      "inputs": [],
      "name": "renounceOwnership",
      "outputs": [],
      "stateMutability": "nonpayable",
      "type": "function"
    },
    {
      "inputs": [
        {
          "internalType": "uint256",
          "name": "",
          "type": "uint256"
        }
      ],
      "name": "tokenList",
      "outputs": [
        {
          "internalType": "bytes32",
          "name": "",
          "type": "bytes32"
        }
      ],
      "stateMutability": "view",
      "type": "function"
    },
    {
      "inputs": [
        {
          "internalType": "bytes32",
          "name": "",
          "type": "bytes32"
        }
      ],
      "name": "tokenMapping",
      "outputs": [
        {
          "internalType": "bytes32",
          "name": "ticker",
          "type": "bytes32"
        },
        {
          "internalType": "address",
          "name": "tokenAddress",
          "type": "address"
        }
      ],
      "stateMutability": "view",
      "type": "function"
    },
    {
      "inputs": [
        {
          "internalType": "address",
          "name": "newOwner",
          "type": "address"
        }
      ],
      "name": "transferOwnership",
      "outputs": [],
      "stateMutability": "nonpayable",
      "type": "function"
    },
    {
      "inputs": [
        {
          "internalType": "bytes32",
          "name": "ticker",
          "type": "bytes32"
        },
        {
          "internalType": "address",
          "name": "tokenAddress",
          "type": "address"
        }
      ],
      "name": "addToken",
      "outputs": [],
      "stateMutability": "nonpayable",
      "type": "function"
    },
    {
      "inputs": [
        {
          "internalType": "address",
          "name": "account",
          "type": "address"
        },
        {
          "internalType": "bytes32",
          "name": "ticker",
          "type": "bytes32"
        }
      ],
      "name": "getBalance",
      "outputs": [
        {
          "internalType": "uint256",
          "name": "amount",
          "type": "uint256"
        }
      ],
      "stateMutability": "view",
      "type": "function"
    },
    {
      "inputs": [
        {
          "internalType": "uint256",
          "name": "amount",
          "type": "uint256"
        },
        {
          "internalType": "bytes32",
          "name": "ticker",
          "type": "bytes32"
        }
      ],
      "name": "deposit",
      "outputs": [],
      "stateMutability": "nonpayable",
      "type": "function"
    },
    {
      "inputs": [
        {
          "internalType": "uint256",
          "name": "amount",
          "type": "uint256"
        },
        {
          "internalType": "bytes32",
          "name": "ticker",
          "type": "bytes32"
        }
      ],
      "name": "withdraw",
      "outputs": [],
      "stateMutability": "nonpayable",
      "type": "function"
    }
  ],
  "bytecode": "0x608060405234801561001057600080fd5b5060006100216100c460201b60201c565b9050806000806101000a81548173ffffffffffffffffffffffffffffffffffffffff021916908373ffffffffffffffffffffffffffffffffffffffff1602179055508073ffffffffffffffffffffffffffffffffffffffff16600073ffffffffffffffffffffffffffffffffffffffff167f8be0079c531659141344cd1fd0a4f28419497f9722a3daafe3b4186f6b6457e060405160405180910390a3506100cc565b600033905090565b611228806100db6000396000f3fe608060405234801561001057600080fd5b506004361061009e5760003560e01c80639ead7222116100665780639ead722214610148578063a8d2021a14610178578063c79d5ec514610194578063c9630cb0146101c4578063f2fde38b146101e05761009e565b80631f14df69146100a3578063667cb4ba146100d3578063715018a6146101045780638da5cb5b1461010e5780639776aacf1461012c575b600080fd5b6100bd60048036038101906100b89190610c36565b6101fc565b6040516100ca9190610fa0565b60405180910390f35b6100ed60048036038101906100e89190610c9b565b610221565b6040516100fb929190610ed7565b60405180910390f35b61010c610265565b005b61011661039f565b6040516101239190610e41565b60405180910390f35b61014660048036038101906101419190610cc4565b6103c8565b005b610162600480360381019061015d9190610d00565b610503565b60405161016f9190610ebc565b60405180910390f35b610192600480360381019061018d9190610d29565b610527565b005b6101ae60048036038101906101a99190610c36565b610791565b6040516101bb9190610fa0565b60405180910390f35b6101de60048036038101906101d99190610d29565b6107ec565b005b6101fa60048036038101906101f59190610c0d565b610a08565b005b6003602052816000526040600020602052806000526040600020600091509150505481565b60016020528060005260406000206000915090508060000154908060010160009054906101000a900473ffffffffffffffffffffffffffffffffffffffff16905082565b61026d610bb1565b73ffffffffffffffffffffffffffffffffffffffff1661028b61039f565b73ffffffffffffffffffffffffffffffffffffffff16146102e1576040517f08c379a00000000000000000000000000000000000000000000000000000000081526004016102d890610f60565b60405180910390fd5b600073ffffffffffffffffffffffffffffffffffffffff1660008054906101000a900473ffffffffffffffffffffffffffffffffffffffff1673ffffffffffffffffffffffffffffffffffffffff167f8be0079c531659141344cd1fd0a4f28419497f9722a3daafe3b4186f6b6457e060405160405180910390a360008060006101000a81548173ffffffffffffffffffffffffffffffffffffffff021916908373ffffffffffffffffffffffffffffffffffffffff160217905550565b60008060009054906101000a900473ffffffffffffffffffffffffffffffffffffffff16905090565b6103d0610bb1565b73ffffffffffffffffffffffffffffffffffffffff166103ee61039f565b73ffffffffffffffffffffffffffffffffffffffff1614610444576040517f08c379a000000000000000000000000000000000000000000000000000000000815260040161043b90610f60565b60405180910390fd5b60405180604001604052808381526020018273ffffffffffffffffffffffffffffffffffffffff16815250600160008481526020019081526020016000206000820151816000015560208201518160010160006101000a81548173ffffffffffffffffffffffffffffffffffffffff021916908373ffffffffffffffffffffffffffffffffffffffff16021790555090505060028290806001815401808255809150506001900390600052602060002001600090919091909150555050565b6002818154811061051357600080fd5b906000526020600020016000915090505481565b80600073ffffffffffffffffffffffffffffffffffffffff166001600083815260200190815260200160002060010160009054906101000a900473ffffffffffffffffffffffffffffffffffffffff1673ffffffffffffffffffffffffffffffffffffffff1614156105ce576040517f08c379a00000000000000000000000000000000000000000000000000000000081526004016105c590610f40565b60405180910390fd5b82600360003373ffffffffffffffffffffffffffffffffffffffff1673ffffffffffffffffffffffffffffffffffffffff1681526020019081526020016000206000848152602001908152602001600020541015610661576040517f08c379a000000000000000000000000000000000000000000000000000000000815260040161065890610f00565b60405180910390fd5b82600360003373ffffffffffffffffffffffffffffffffffffffff1673ffffffffffffffffffffffffffffffffffffffff168152602001908152602001600020600084815260200190815260200160002060008282546106c19190610fcc565b925050819055506001600083815260200190815260200160002060010160009054906101000a900473ffffffffffffffffffffffffffffffffffffffff1673ffffffffffffffffffffffffffffffffffffffff1663a9059cbb33856040518363ffffffff1660e01b8152600401610739929190610e93565b602060405180830381600087803b15801561075357600080fd5b505af1158015610767573d6000803e3d6000fd5b505050506040513d601f19601f8201168201806040525081019061078b9190610c72565b50505050565b6000600360008473ffffffffffffffffffffffffffffffffffffffff1673ffffffffffffffffffffffffffffffffffffffff168152602001908152602001600020600083815260200190815260200160002054905092915050565b80600073ffffffffffffffffffffffffffffffffffffffff166001600083815260200190815260200160002060010160009054906101000a900473ffffffffffffffffffffffffffffffffffffffff1673ffffffffffffffffffffffffffffffffffffffff161415610893576040517f08c379a000000000000000000000000000000000000000000000000000000000815260040161088a90610f40565b60405180910390fd5b600083116108d6576040517f08c379a00000000000000000000000000000000000000000000000000000000081526004016108cd90610f80565b60405180910390fd5b82600360003373ffffffffffffffffffffffffffffffffffffffff1673ffffffffffffffffffffffffffffffffffffffff168152602001908152602001600020600084815260200190815260200160002060008282546109369190610fcc565b925050819055506001600083815260200190815260200160002060010160009054906101000a900473ffffffffffffffffffffffffffffffffffffffff1673ffffffffffffffffffffffffffffffffffffffff166323b872dd3330866040518463ffffffff1660e01b81526004016109b093929190610e5c565b602060405180830381600087803b1580156109ca57600080fd5b505af11580156109de573d6000803e3d6000fd5b505050506040513d601f19601f82011682018060405250810190610a029190610c72565b50505050565b610a10610bb1565b73ffffffffffffffffffffffffffffffffffffffff16610a2e61039f565b73ffffffffffffffffffffffffffffffffffffffff1614610a84576040517f08c379a0000000000000000000000000000000000000000000000000000000008152600401610a7b90610f60565b60405180910390fd5b600073ffffffffffffffffffffffffffffffffffffffff168173ffffffffffffffffffffffffffffffffffffffff161415610af4576040517f08c379a0000000000000000000000000000000000000000000000000000000008152600401610aeb90610f20565b60405180910390fd5b8073ffffffffffffffffffffffffffffffffffffffff1660008054906101000a900473ffffffffffffffffffffffffffffffffffffffff1673ffffffffffffffffffffffffffffffffffffffff167f8be0079c531659141344cd1fd0a4f28419497f9722a3daafe3b4186f6b6457e060405160405180910390a3806000806101000a81548173ffffffffffffffffffffffffffffffffffffffff021916908373ffffffffffffffffffffffffffffffffffffffff16021790555050565b600033905090565b600081359050610bc881611196565b92915050565b600081519050610bdd816111ad565b92915050565b600081359050610bf2816111c4565b92915050565b600081359050610c07816111db565b92915050565b600060208284031215610c1f57600080fd5b6000610c2d84828501610bb9565b91505092915050565b60008060408385031215610c4957600080fd5b6000610c5785828601610bb9565b9250506020610c6885828601610be3565b9150509250929050565b600060208284031215610c8457600080fd5b6000610c9284828501610bce565b91505092915050565b600060208284031215610cad57600080fd5b6000610cbb84828501610be3565b91505092915050565b60008060408385031215610cd757600080fd5b6000610ce585828601610be3565b9250506020610cf685828601610bb9565b9150509250929050565b600060208284031215610d1257600080fd5b6000610d2084828501610bf8565b91505092915050565b60008060408385031215610d3c57600080fd5b6000610d4a85828601610bf8565b9250506020610d5b85828601610be3565b9150509250929050565b610d6e81611022565b82525050565b610d7d81611040565b82525050565b6000610d90601783610fbb565b9150610d9b826110a3565b602082019050919050565b6000610db3602683610fbb565b9150610dbe826110cc565b604082019050919050565b6000610dd6601e83610fbb565b9150610de18261111b565b602082019050919050565b6000610df9602083610fbb565b9150610e0482611144565b602082019050919050565b6000610e1c601a83610fbb565b9150610e278261116d565b602082019050919050565b610e3b8161106a565b82525050565b6000602082019050610e566000830184610d65565b92915050565b6000606082019050610e716000830186610d65565b610e7e6020830185610d65565b610e8b6040830184610e32565b949350505050565b6000604082019050610ea86000830185610d65565b610eb56020830184610e32565b9392505050565b6000602082019050610ed16000830184610d74565b92915050565b6000604082019050610eec6000830185610d74565b610ef96020830184610d65565b9392505050565b60006020820190508181036000830152610f1981610d83565b9050919050565b60006020820190508181036000830152610f3981610da6565b9050919050565b60006020820190508181036000830152610f5981610dc9565b9050919050565b60006020820190508181036000830152610f7981610dec565b9050919050565b60006020820190508181036000830152610f9981610e0f565b9050919050565b6000602082019050610fb56000830184610e32565b92915050565b600082825260208201905092915050565b6000610fd78261106a565b9150610fe28361106a565b9250827fffffffffffffffffffffffffffffffffffffffffffffffffffffffffffffffff0382111561101757611016611074565b5b828201905092915050565b600061102d8261104a565b9050919050565b60008115159050919050565b6000819050919050565b600073ffffffffffffffffffffffffffffffffffffffff82169050919050565b6000819050919050565b7f4e487b7100000000000000000000000000000000000000000000000000000000600052601160045260246000fd5b7f42616c616e6365206e6f742073756666696369656e7421000000000000000000600082015250565b7f4f776e61626c653a206e6577206f776e657220697320746865207a65726f206160008201527f6464726573730000000000000000000000000000000000000000000000000000602082015250565b7f556e6b6e6f776e20746f6b656e3b20616464546f6b656e206669727374210000600082015250565b7f4f776e61626c653a2063616c6c6572206973206e6f7420746865206f776e6572600082015250565b7f41736b656420746f206465706f736974203020746f6b656e7321000000000000600082015250565b61119f81611022565b81146111aa57600080fd5b50565b6111b681611034565b81146111c157600080fd5b50565b6111cd81611040565b81146111d857600080fd5b50565b6111e48161106a565b81146111ef57600080fd5b5056fea264697066735822122064c6dba7fae1272fa2e12fb7d50554d364e9e76bc693e59e3e6682f9bfaaf07f64736f6c63430008040033",
  "immutableReferences": {},
  "source": "// SPDX-License-Identifier: MIT\npragma solidity ^0.8.0;\n\nimport \"../node_modules/@openzeppelin/contracts/token/ERC20/IERC20.sol\";\nimport \"../node_modules/@openzeppelin/contracts/access/Ownable.sol\";\n\ncontract Wallet is Ownable {\n\n    struct Token {\n        bytes32 ticker;\n        address tokenAddress;   // Token's ERC20 Contract address \n    }\n    mapping(bytes32 => Token) public tokenMapping;  // Ticker => Token Struct\n    bytes32[] public tokenList;                     // List of all the token Tickers\n    \n    mapping(address=>mapping(bytes32 => uint256)) public balances; // owner's address? => (tokenTicker => balance)\n\n\n    modifier isKnownToken(bytes32 ticker){\n        require(\n            tokenMapping[ticker].tokenAddress != address(0),\n            \"Unknown token; addToken first!\"\n        );\n        _;\n    }\n\n    function addToken(bytes32 ticker, address tokenAddress) external onlyOwner {\n        tokenMapping[ticker] = Token(ticker, tokenAddress);\n        tokenList.push(ticker);\n    }\n\n\n    function getBalance(address account, bytes32 ticker)\n        view\n        external\n        returns(uint amount)\n    {\n        return balances[account][ticker];\n    }\n\n    // Deposit tokens into the wallet (must be the owner of token in ERC20 token contract).\n    // Ie. The wallet contact needs to instruct the token contract to transfer the amount\n    // of tokens from the owner's address to the wallet contract's address.\n    // The wallet must have been granted operator privlidges beforehand in order for the\n    // token contract to perform this transfer of token ownership (ie. update its' internal\n    // token balances)\n    function deposit(uint amount, bytes32 ticker) external isKnownToken(ticker) {\n        require(amount > 0, \"Asked to deposit 0 tokens!\");          // Checks\n\n        balances[msg.sender][ticker] += amount;                     // Effects\n\n        IERC20(tokenMapping[ticker].tokenAddress).transferFrom(     // Interact\n            msg.sender,\n            address(this),\n            amount\n        );                                                                       \n    }\n    \n    function withdraw(uint amount, bytes32 ticker) external isKnownToken(ticker) {\n        require(balances[msg.sender][ticker] >= amount, \"Balance not sufficient!\");\n\n        balances[msg.sender][ticker] += amount;\n\n        IERC20(tokenMapping[ticker].tokenAddress).transfer(msg.sender, amount);\n    }\n}",
  "sourcePath": "/Users/Mark/Documents/BlockChain/IvanOnTechAcademy/Solidity - Smart Contract Programming 201/DEX-Project/contracts/Wallet.sol",
  "compiler": {
    "name": "solc",
    "version": "0.8.4+commit.c7e474f2.Emscripten.clang"
  },
  "schemaVersion": "3.4.0",
  "updatedAt": "2021-05-13T01:50:37.870Z",
  "devdoc": {
    "kind": "dev",
    "methods": {
      "owner()": {
        "details": "Returns the address of the current owner."
      },
      "renounceOwnership()": {
        "details": "Leaves the contract without owner. It will not be possible to call `onlyOwner` functions anymore. Can only be called by the current owner. NOTE: Renouncing ownership will leave the contract without an owner, thereby removing any functionality that is only available to the owner."
      },
      "transferOwnership(address)": {
        "details": "Transfers ownership of the contract to a new account (`newOwner`). Can only be called by the current owner."
      }
    },
    "version": 1
  },
  "userdoc": {
    "kind": "user",
    "methods": {},
    "version": 1
  }
}