{
  "contractName": "MyToken",
  "abi": [
    {
      "inputs": [
        {
          "internalType": "string",
          "name": "name",
          "type": "string"
        },
        {
          "internalType": "string",
          "name": "symbol",
          "type": "string"
        },
        {
          "internalType": "uint256",
          "name": "cap_",
          "type": "uint256"
        }
      ],
      "stateMutability": "nonpayable",
      "type": "constructor"
    },
    {
      "anonymous": false,
      "inputs": [
        {
          "indexed": true,
          "internalType": "address",
          "name": "owner",
          "type": "address"
        },
        {
          "indexed": true,
          "internalType": "address",
          "name": "spender",
          "type": "address"
        },
        {
          "indexed": false,
          "internalType": "uint256",
          "name": "value",
          "type": "uint256"
        }
      ],
      "name": "Approval",
      "type": "event"
    },
    {
      "anonymous": false,
      "inputs": [
        {
          "indexed": false,
          "internalType": "address",
          "name": "account",
          "type": "address"
        }
      ],
      "name": "Paused",
      "type": "event"
    },
    {
      "anonymous": false,
      "inputs": [
        {
          "indexed": true,
          "internalType": "bytes32",
          "name": "role",
          "type": "bytes32"
        },
        {
          "indexed": true,
          "internalType": "bytes32",
          "name": "previousAdminRole",
          "type": "bytes32"
        },
        {
          "indexed": true,
          "internalType": "bytes32",
          "name": "newAdminRole",
          "type": "bytes32"
        }
      ],
      "name": "RoleAdminChanged",
      "type": "event"
    },
    {
      "anonymous": false,
      "inputs": [
        {
          "indexed": true,
          "internalType": "bytes32",
          "name": "role",
          "type": "bytes32"
        },
        {
          "indexed": true,
          "internalType": "address",
          "name": "account",
          "type": "address"
        },
        {
          "indexed": true,
          "internalType": "address",
          "name": "sender",
          "type": "address"
        }
      ],
      "name": "RoleGranted",
      "type": "event"
    },
    {
      "anonymous": false,
      "inputs": [
        {
          "indexed": true,
          "internalType": "bytes32",
          "name": "role",
          "type": "bytes32"
        },
        {
          "indexed": true,
          "internalType": "address",
          "name": "account",
          "type": "address"
        },
        {
          "indexed": true,
          "internalType": "address",
          "name": "sender",
          "type": "address"
        }
      ],
      "name": "RoleRevoked",
      "type": "event"
    },
    {
      "anonymous": false,
      "inputs": [
        {
          "indexed": true,
          "internalType": "address",
          "name": "from",
          "type": "address"
        },
        {
          "indexed": true,
          "internalType": "address",
          "name": "to",
          "type": "address"
        },
        {
          "indexed": false,
          "internalType": "uint256",
          "name": "value",
          "type": "uint256"
        }
      ],
      "name": "Transfer",
      "type": "event"
    },
    {
      "anonymous": false,
      "inputs": [
        {
          "indexed": false,
          "internalType": "address",
          "name": "account",
          "type": "address"
        }
      ],
      "name": "Unpaused",
      "type": "event"
    },
    {
      "inputs": [],
      "name": "CAP_ADMIN_ROLE",
      "outputs": [
        {
          "internalType": "bytes32",
          "name": "",
          "type": "bytes32"
        }
      ],
      "stateMutability": "view",
      "type": "function",
      "constant": true
    },
    {
      "inputs": [],
      "name": "DEFAULT_ADMIN_ROLE",
      "outputs": [
        {
          "internalType": "bytes32",
          "name": "",
          "type": "bytes32"
        }
      ],
      "stateMutability": "view",
      "type": "function",
      "constant": true
    },
    {
      "inputs": [],
      "name": "MINTER_ROLE",
      "outputs": [
        {
          "internalType": "bytes32",
          "name": "",
          "type": "bytes32"
        }
      ],
      "stateMutability": "view",
      "type": "function",
      "constant": true
    },
    {
      "inputs": [],
      "name": "PAUSER_ROLE",
      "outputs": [
        {
          "internalType": "bytes32",
          "name": "",
          "type": "bytes32"
        }
      ],
      "stateMutability": "view",
      "type": "function",
      "constant": true
    },
    {
      "inputs": [
        {
          "internalType": "address",
          "name": "owner",
          "type": "address"
        },
        {
          "internalType": "address",
          "name": "spender",
          "type": "address"
        }
      ],
      "name": "allowance",
      "outputs": [
        {
          "internalType": "uint256",
          "name": "",
          "type": "uint256"
        }
      ],
      "stateMutability": "view",
      "type": "function",
      "constant": true
    },
    {
      "inputs": [
        {
          "internalType": "address",
          "name": "spender",
          "type": "address"
        },
        {
          "internalType": "uint256",
          "name": "amount",
          "type": "uint256"
        }
      ],
      "name": "approve",
      "outputs": [
        {
          "internalType": "bool",
          "name": "",
          "type": "bool"
        }
      ],
      "stateMutability": "nonpayable",
      "type": "function"
    },
    {
      "inputs": [
        {
          "internalType": "address",
          "name": "account",
          "type": "address"
        }
      ],
      "name": "balanceOf",
      "outputs": [
        {
          "internalType": "uint256",
          "name": "",
          "type": "uint256"
        }
      ],
      "stateMutability": "view",
      "type": "function",
      "constant": true
    },
    {
      "inputs": [
        {
          "internalType": "uint256",
          "name": "amount",
          "type": "uint256"
        }
      ],
      "name": "burn",
      "outputs": [],
      "stateMutability": "nonpayable",
      "type": "function"
    },
    {
      "inputs": [
        {
          "internalType": "address",
          "name": "account",
          "type": "address"
        },
        {
          "internalType": "uint256",
          "name": "amount",
          "type": "uint256"
        }
      ],
      "name": "burnFrom",
      "outputs": [],
      "stateMutability": "nonpayable",
      "type": "function"
    },
    {
      "inputs": [],
      "name": "decimals",
      "outputs": [
        {
          "internalType": "uint8",
          "name": "",
          "type": "uint8"
        }
      ],
      "stateMutability": "view",
      "type": "function",
      "constant": true
    },
    {
      "inputs": [
        {
          "internalType": "address",
          "name": "spender",
          "type": "address"
        },
        {
          "internalType": "uint256",
          "name": "subtractedValue",
          "type": "uint256"
        }
      ],
      "name": "decreaseAllowance",
      "outputs": [
        {
          "internalType": "bool",
          "name": "",
          "type": "bool"
        }
      ],
      "stateMutability": "nonpayable",
      "type": "function"
    },
    {
      "inputs": [
        {
          "internalType": "bytes32",
          "name": "role",
          "type": "bytes32"
        }
      ],
      "name": "getRoleAdmin",
      "outputs": [
        {
          "internalType": "bytes32",
          "name": "",
          "type": "bytes32"
        }
      ],
      "stateMutability": "view",
      "type": "function",
      "constant": true
    },
    {
      "inputs": [
        {
          "internalType": "bytes32",
          "name": "role",
          "type": "bytes32"
        },
        {
          "internalType": "uint256",
          "name": "index",
          "type": "uint256"
        }
      ],
      "name": "getRoleMember",
      "outputs": [
        {
          "internalType": "address",
          "name": "",
          "type": "address"
        }
      ],
      "stateMutability": "view",
      "type": "function",
      "constant": true
    },
    {
      "inputs": [
        {
          "internalType": "bytes32",
          "name": "role",
          "type": "bytes32"
        }
      ],
      "name": "getRoleMemberCount",
      "outputs": [
        {
          "internalType": "uint256",
          "name": "",
          "type": "uint256"
        }
      ],
      "stateMutability": "view",
      "type": "function",
      "constant": true
    },
    {
      "inputs": [
        {
          "internalType": "bytes32",
          "name": "role",
          "type": "bytes32"
        },
        {
          "internalType": "address",
          "name": "account",
          "type": "address"
        }
      ],
      "name": "grantRole",
      "outputs": [],
      "stateMutability": "nonpayable",
      "type": "function"
    },
    {
      "inputs": [
        {
          "internalType": "bytes32",
          "name": "role",
          "type": "bytes32"
        },
        {
          "internalType": "address",
          "name": "account",
          "type": "address"
        }
      ],
      "name": "hasRole",
      "outputs": [
        {
          "internalType": "bool",
          "name": "",
          "type": "bool"
        }
      ],
      "stateMutability": "view",
      "type": "function",
      "constant": true
    },
    {
      "inputs": [
        {
          "internalType": "address",
          "name": "spender",
          "type": "address"
        },
        {
          "internalType": "uint256",
          "name": "addedValue",
          "type": "uint256"
        }
      ],
      "name": "increaseAllowance",
      "outputs": [
        {
          "internalType": "bool",
          "name": "",
          "type": "bool"
        }
      ],
      "stateMutability": "nonpayable",
      "type": "function"
    },
    {
      "inputs": [],
      "name": "name",
      "outputs": [
        {
          "internalType": "string",
          "name": "",
          "type": "string"
        }
      ],
      "stateMutability": "view",
      "type": "function",
      "constant": true
    },
    {
      "inputs": [],
      "name": "paused",
      "outputs": [
        {
          "internalType": "bool",
          "name": "",
          "type": "bool"
        }
      ],
      "stateMutability": "view",
      "type": "function",
      "constant": true
    },
    {
      "inputs": [
        {
          "internalType": "bytes32",
          "name": "role",
          "type": "bytes32"
        },
        {
          "internalType": "address",
          "name": "account",
          "type": "address"
        }
      ],
      "name": "renounceRole",
      "outputs": [],
      "stateMutability": "nonpayable",
      "type": "function"
    },
    {
      "inputs": [
        {
          "internalType": "bytes32",
          "name": "role",
          "type": "bytes32"
        },
        {
          "internalType": "address",
          "name": "account",
          "type": "address"
        }
      ],
      "name": "revokeRole",
      "outputs": [],
      "stateMutability": "nonpayable",
      "type": "function"
    },
    {
      "inputs": [
        {
          "internalType": "bytes4",
          "name": "interfaceId",
          "type": "bytes4"
        }
      ],
      "name": "supportsInterface",
      "outputs": [
        {
          "internalType": "bool",
          "name": "",
          "type": "bool"
        }
      ],
      "stateMutability": "view",
      "type": "function",
      "constant": true
    },
    {
      "inputs": [],
      "name": "symbol",
      "outputs": [
        {
          "internalType": "string",
          "name": "",
          "type": "string"
        }
      ],
      "stateMutability": "view",
      "type": "function",
      "constant": true
    },
    {
      "inputs": [],
      "name": "totalSupply",
      "outputs": [
        {
          "internalType": "uint256",
          "name": "",
          "type": "uint256"
        }
      ],
      "stateMutability": "view",
      "type": "function",
      "constant": true
    },
    {
      "inputs": [
        {
          "internalType": "address",
          "name": "recipient",
          "type": "address"
        },
        {
          "internalType": "uint256",
          "name": "amount",
          "type": "uint256"
        }
      ],
      "name": "transfer",
      "outputs": [
        {
          "internalType": "bool",
          "name": "",
          "type": "bool"
        }
      ],
      "stateMutability": "nonpayable",
      "type": "function"
    },
    {
      "inputs": [
        {
          "internalType": "address",
          "name": "sender",
          "type": "address"
        },
        {
          "internalType": "address",
          "name": "recipient",
          "type": "address"
        },
        {
          "internalType": "uint256",
          "name": "amount",
          "type": "uint256"
        }
      ],
      "name": "transferFrom",
      "outputs": [
        {
          "internalType": "bool",
          "name": "",
          "type": "bool"
        }
      ],
      "stateMutability": "nonpayable",
      "type": "function"
    },
    {
      "inputs": [
        {
          "internalType": "address",
          "name": "to",
          "type": "address"
        },
        {
          "internalType": "uint256",
          "name": "amount",
          "type": "uint256"
        }
      ],
      "name": "mint",
      "outputs": [],
      "stateMutability": "nonpayable",
      "type": "function"
    },
    {
      "inputs": [],
      "name": "pause",
      "outputs": [],
      "stateMutability": "nonpayable",
      "type": "function"
    },
    {
      "inputs": [],
      "name": "unpause",
      "outputs": [],
      "stateMutability": "nonpayable",
      "type": "function"
    },
    {
      "inputs": [],
      "name": "cap",
      "outputs": [
        {
          "internalType": "uint256",
          "name": "",
          "type": "uint256"
        }
      ],
      "stateMutability": "view",
      "type": "function",
      "constant": true
    },
    {
      "inputs": [
        {
          "internalType": "uint256",
          "name": "newCap",
          "type": "uint256"
        }
      ],
      "name": "setCap",
      "outputs": [],
      "stateMutability": "nonpayable",
      "type": "function"
    }
  ],
  "bytecode": "0x60806040523480156200001157600080fd5b5060405162003fa638038062003fa6833981810160405281019062000037919062000594565b82828160059080519060200190620000519291906200045b565b5080600690805190602001906200006a9291906200045b565b5050506000600760006101000a81548160ff02191690831515021790555060008111620000ce576040517f08c379a0000000000000000000000000000000000000000000000000000000008152600401620000c59062000643565b60405180910390fd5b80600881905550620000f96000801b620000ed620001c560201b60201c565b620001cd60201b60201c565b6200013a7f9f2df0fed2c77648de5860a4cc508cd0818c85b8b8a1ab4ceeef8d981c8956a66200012e620001c560201b60201c565b620001cd60201b60201c565b6200017b7f65d7a28e3265b37a6474929f336521b332c1681b933f6cb9f3376673440d862a6200016f620001c560201b60201c565b620001cd60201b60201c565b620001bc7fd1024deac75b45d64e785736223896516e028718da30d1a94ab170c44f4f52c7620001b0620001c560201b60201c565b620001cd60201b60201c565b50505062000833565b600033905090565b620001e482826200021560201b6200101e1760201c565b6200021081600160008581526020019081526020016000206200022b60201b6200102c1790919060201c565b505050565b6200022782826200026360201b60201c565b5050565b60006200025b836000018373ffffffffffffffffffffffffffffffffffffffff1660001b6200035460201b60201c565b905092915050565b620002758282620003ce60201b60201c565b6200035057600160008084815260200190815260200160002060000160008373ffffffffffffffffffffffffffffffffffffffff1673ffffffffffffffffffffffffffffffffffffffff16815260200190815260200160002060006101000a81548160ff021916908315150217905550620002f5620001c560201b60201c565b73ffffffffffffffffffffffffffffffffffffffff168173ffffffffffffffffffffffffffffffffffffffff16837f2f8788117e7eff1d82e926ec794901d17c78024a50270940304540a733656f0d60405160405180910390a45b5050565b60006200036883836200043860201b60201c565b620003c3578260000182908060018154018082558091505060019003906000526020600020016000909190919091505582600001805490508360010160008481526020019081526020016000208190555060019050620003c8565b600090505b92915050565b600080600084815260200190815260200160002060000160008373ffffffffffffffffffffffffffffffffffffffff1673ffffffffffffffffffffffffffffffffffffffff16815260200190815260200160002060009054906101000a900460ff16905092915050565b600080836001016000848152602001908152602001600020541415905092915050565b828054620004699062000715565b90600052602060002090601f0160209004810192826200048d5760008555620004d9565b82601f10620004a857805160ff1916838001178555620004d9565b82800160010185558215620004d9579182015b82811115620004d8578251825591602001919060010190620004bb565b5b509050620004e89190620004ec565b5090565b5b8082111562000507576000816000905550600101620004ed565b5090565b6000620005226200051c846200068e565b62000665565b9050828152602081018484840111156200053b57600080fd5b62000548848285620006df565b509392505050565b600082601f8301126200056257600080fd5b8151620005748482602086016200050b565b91505092915050565b6000815190506200058e8162000819565b92915050565b600080600060608486031215620005aa57600080fd5b600084015167ffffffffffffffff811115620005c557600080fd5b620005d38682870162000550565b935050602084015167ffffffffffffffff811115620005f157600080fd5b620005ff8682870162000550565b925050604062000612868287016200057d565b9150509250925092565b60006200062b601583620006c4565b91506200063882620007f0565b602082019050919050565b600060208201905081810360008301526200065e816200061c565b9050919050565b60006200067162000684565b90506200067f82826200074b565b919050565b6000604051905090565b600067ffffffffffffffff821115620006ac57620006ab620007b0565b5b620006b782620007df565b9050602081019050919050565b600082825260208201905092915050565b6000819050919050565b60005b83811015620006ff578082015181840152602081019050620006e2565b838111156200070f576000848401525b50505050565b600060028204905060018216806200072e57607f821691505b6020821081141562000745576200074462000781565b5b50919050565b6200075682620007df565b810181811067ffffffffffffffff82111715620007785762000777620007b0565b5b80604052505050565b7f4e487b7100000000000000000000000000000000000000000000000000000000600052602260045260246000fd5b7f4e487b7100000000000000000000000000000000000000000000000000000000600052604160045260246000fd5b6000601f19601f8301169050919050565b7f45524332304361707065643a2063617020697320300000000000000000000000600082015250565b6200082481620006d5565b81146200083057600080fd5b50565b61376380620008436000396000f3fe608060405234801561001057600080fd5b50600436106101e55760003560e01c806347786d371161010f578063a217fddf116100a2578063d539139311610071578063d5391393146105a6578063d547741f146105c4578063dd62ed3e146105e0578063e63ab1e914610610576101e5565b8063a217fddf146104f8578063a457c2d714610516578063a9059cbb14610546578063ca15c87314610576576101e5565b80638456cb59116100de5780638456cb59146104705780639010d07c1461047a57806391d14854146104aa57806395d89b41146104da576101e5565b806347786d37146103ea5780635c975abb1461040657806370a082311461042457806379cc679014610454576101e5565b8063313ce56711610187578063395093511161015657806339509351146103785780633f4ba83a146103a857806340c10f19146103b257806342966c68146103ce576101e5565b8063313ce56714610302578063355274ea1461032057806336568abe1461033e578063366e6a371461035a576101e5565b806318160ddd116101c357806318160ddd1461026857806323b872dd14610286578063248a9ca3146102b65780632f2ff15d146102e6576101e5565b806301ffc9a7146101ea57806306fdde031461021a578063095ea7b314610238575b600080fd5b61020460048036038101906101ff9190612613565b61062e565b6040516102119190612ab7565b60405180910390f35b6102226106a8565b60405161022f9190612aed565b60405180910390f35b610252600480360381019061024d9190612536565b61073a565b60405161025f9190612ab7565b60405180910390f35b610270610758565b60405161027d9190612dcf565b60405180910390f35b6102a0600480360381019061029b91906124e7565b610762565b6040516102ad9190612ab7565b60405180910390f35b6102d060048036038101906102cb9190612572565b610863565b6040516102dd9190612ad2565b60405180910390f35b61030060048036038101906102fb919061259b565b610882565b005b61030a6108b6565b6040516103179190612dea565b60405180910390f35b6103286108bf565b6040516103359190612dcf565b60405180910390f35b6103586004803603810190610353919061259b565b6108c9565b005b6103626108fd565b60405161036f9190612ad2565b60405180910390f35b610392600480360381019061038d9190612536565b610921565b60405161039f9190612ab7565b60405180910390f35b6103b06109cd565b005b6103cc60048036038101906103c79190612536565b610a47565b005b6103e860048036038101906103e3919061263c565b610ac5565b005b61040460048036038101906103ff919061263c565b610ad9565b005b61040e610b55565b60405161041b9190612ab7565b60405180910390f35b61043e60048036038101906104399190612482565b610b6c565b60405161044b9190612dcf565b60405180910390f35b61046e60048036038101906104699190612536565b610bb5565b005b610478610c39565b005b610494600480360381019061048f91906125d7565b610cb3565b6040516104a19190612a9c565b60405180910390f35b6104c460048036038101906104bf919061259b565b610ce2565b6040516104d19190612ab7565b60405180910390f35b6104e2610d4c565b6040516104ef9190612aed565b60405180910390f35b610500610dde565b60405161050d9190612ad2565b60405180910390f35b610530600480360381019061052b9190612536565b610de5565b60405161053d9190612ab7565b60405180910390f35b610560600480360381019061055b9190612536565b610ed9565b60405161056d9190612ab7565b60405180910390f35b610590600480360381019061058b9190612572565b610ef7565b60405161059d9190612dcf565b60405180910390f35b6105ae610f1b565b6040516105bb9190612ad2565b60405180910390f35b6105de60048036038101906105d9919061259b565b610f3f565b005b6105fa60048036038101906105f591906124ab565b610f73565b6040516106079190612dcf565b60405180910390f35b610618610ffa565b6040516106259190612ad2565b60405180910390f35b60007f5a05180f000000000000000000000000000000000000000000000000000000007bffffffffffffffffffffffffffffffffffffffffffffffffffffffff1916827bffffffffffffffffffffffffffffffffffffffffffffffffffffffff191614806106a157506106a08261105c565b5b9050919050565b6060600580546106b790612ff8565b80601f01602080910402602001604051908101604052809291908181526020018280546106e390612ff8565b80156107305780601f1061070557610100808354040283529160200191610730565b820191906000526020600020905b81548152906001019060200180831161071357829003601f168201915b5050505050905090565b600061074e6107476110d6565b84846110de565b6001905092915050565b6000600454905090565b600061076f8484846112a9565b6000600360008673ffffffffffffffffffffffffffffffffffffffff1673ffffffffffffffffffffffffffffffffffffffff16815260200190815260200160002060006107ba6110d6565b73ffffffffffffffffffffffffffffffffffffffff1673ffffffffffffffffffffffffffffffffffffffff1681526020019081526020016000205490508281101561083a576040517f08c379a000000000000000000000000000000000000000000000000000000000815260040161083190612c2f565b60405180910390fd5b610857856108466110d6565b85846108529190612edc565b6110de565b60019150509392505050565b6000806000838152602001908152602001600020600101549050919050565b61088c828261152b565b6108b1816001600085815260200190815260200160002061102c90919063ffffffff16565b505050565b60006012905090565b6000600854905090565b6108d38282611554565b6108f881600160008581526020019081526020016000206115d790919063ffffffff16565b505050565b7fd1024deac75b45d64e785736223896516e028718da30d1a94ab170c44f4f52c781565b60006109c361092e6110d6565b84846003600061093c6110d6565b73ffffffffffffffffffffffffffffffffffffffff1673ffffffffffffffffffffffffffffffffffffffff16815260200190815260200160002060008873ffffffffffffffffffffffffffffffffffffffff1673ffffffffffffffffffffffffffffffffffffffff168152602001908152602001600020546109be9190612e2c565b6110de565b6001905092915050565b6109fe7f65d7a28e3265b37a6474929f336521b332c1681b933f6cb9f3376673440d862a6109f96110d6565b610ce2565b610a3d576040517f08c379a0000000000000000000000000000000000000000000000000000000008152600401610a3490612baf565b60405180910390fd5b610a45611607565b565b610a787f9f2df0fed2c77648de5860a4cc508cd0818c85b8b8a1ab4ceeef8d981c8956a6610a736110d6565b610ce2565b610ab7576040517f08c379a0000000000000000000000000000000000000000000000000000000008152600401610aae90612c4f565b60405180910390fd5b610ac182826116a9565b5050565b610ad6610ad06110d6565b82611713565b50565b610b0a7fd1024deac75b45d64e785736223896516e028718da30d1a94ab170c44f4f52c7610b056110d6565b610ce2565b610b49576040517f08c379a0000000000000000000000000000000000000000000000000000000008152600401610b4090612d2f565b60405180910390fd5b610b52816118e9565b50565b6000600760009054906101000a900460ff16905090565b6000600260008373ffffffffffffffffffffffffffffffffffffffff1673ffffffffffffffffffffffffffffffffffffffff168152602001908152602001600020549050919050565b6000610bc883610bc36110d6565b610f73565b905081811015610c0d576040517f08c379a0000000000000000000000000000000000000000000000000000000008152600401610c0490612c6f565b60405180910390fd5b610c2a83610c196110d6565b8484610c259190612edc565b6110de565b610c348383611713565b505050565b610c6a7f65d7a28e3265b37a6474929f336521b332c1681b933f6cb9f3376673440d862a610c656110d6565b610ce2565b610ca9576040517f08c379a0000000000000000000000000000000000000000000000000000000008152600401610ca090612d0f565b60405180910390fd5b610cb16118f3565b565b6000610cda826001600086815260200190815260200160002061199690919063ffffffff16565b905092915050565b600080600084815260200190815260200160002060000160008373ffffffffffffffffffffffffffffffffffffffff1673ffffffffffffffffffffffffffffffffffffffff16815260200190815260200160002060009054906101000a900460ff16905092915050565b606060068054610d5b90612ff8565b80601f0160208091040260200160405190810160405280929190818152602001828054610d8790612ff8565b8015610dd45780601f10610da957610100808354040283529160200191610dd4565b820191906000526020600020905b815481529060010190602001808311610db757829003601f168201915b5050505050905090565b6000801b81565b60008060036000610df46110d6565b73ffffffffffffffffffffffffffffffffffffffff1673ffffffffffffffffffffffffffffffffffffffff16815260200190815260200160002060008573ffffffffffffffffffffffffffffffffffffffff1673ffffffffffffffffffffffffffffffffffffffff16815260200190815260200160002054905082811015610eb1576040517f08c379a0000000000000000000000000000000000000000000000000000000008152600401610ea890612d4f565b60405180910390fd5b610ece610ebc6110d6565b858584610ec99190612edc565b6110de565b600191505092915050565b6000610eed610ee66110d6565b84846112a9565b6001905092915050565b6000610f14600160008481526020019081526020016000206119b0565b9050919050565b7f9f2df0fed2c77648de5860a4cc508cd0818c85b8b8a1ab4ceeef8d981c8956a681565b610f4982826119c5565b610f6e81600160008581526020019081526020016000206115d790919063ffffffff16565b505050565b6000600360008473ffffffffffffffffffffffffffffffffffffffff1673ffffffffffffffffffffffffffffffffffffffff16815260200190815260200160002060008373ffffffffffffffffffffffffffffffffffffffff1673ffffffffffffffffffffffffffffffffffffffff16815260200190815260200160002054905092915050565b7f65d7a28e3265b37a6474929f336521b332c1681b933f6cb9f3376673440d862a81565b61102882826119ee565b5050565b6000611054836000018373ffffffffffffffffffffffffffffffffffffffff1660001b611ace565b905092915050565b60007f7965db0b000000000000000000000000000000000000000000000000000000007bffffffffffffffffffffffffffffffffffffffffffffffffffffffff1916827bffffffffffffffffffffffffffffffffffffffffffffffffffffffff191614806110cf57506110ce82611b3e565b5b9050919050565b600033905090565b600073ffffffffffffffffffffffffffffffffffffffff168373ffffffffffffffffffffffffffffffffffffffff16141561114e576040517f08c379a000000000000000000000000000000000000000000000000000000000815260040161114590612cef565b60405180910390fd5b600073ffffffffffffffffffffffffffffffffffffffff168273ffffffffffffffffffffffffffffffffffffffff1614156111be576040517f08c379a00000000000000000000000000000000000000000000000000000000081526004016111b590612bcf565b60405180910390fd5b80600360008573ffffffffffffffffffffffffffffffffffffffff1673ffffffffffffffffffffffffffffffffffffffff16815260200190815260200160002060008473ffffffffffffffffffffffffffffffffffffffff1673ffffffffffffffffffffffffffffffffffffffff168152602001908152602001600020819055508173ffffffffffffffffffffffffffffffffffffffff168373ffffffffffffffffffffffffffffffffffffffff167f8c5be1e5ebec7d5bd14f71427d1e84f3dd0314c0f7b2291e5b200ac8c7c3b9258360405161129c9190612dcf565b60405180910390a3505050565b600073ffffffffffffffffffffffffffffffffffffffff168373ffffffffffffffffffffffffffffffffffffffff161415611319576040517f08c379a000000000000000000000000000000000000000000000000000000000815260040161131090612caf565b60405180910390fd5b600073ffffffffffffffffffffffffffffffffffffffff168273ffffffffffffffffffffffffffffffffffffffff161415611389576040517f08c379a000000000000000000000000000000000000000000000000000000000815260040161138090612b4f565b60405180910390fd5b611394838383611ba8565b6000600260008573ffffffffffffffffffffffffffffffffffffffff1673ffffffffffffffffffffffffffffffffffffffff1681526020019081526020016000205490508181101561141b576040517f08c379a000000000000000000000000000000000000000000000000000000000815260040161141290612bef565b60405180910390fd5b81816114279190612edc565b600260008673ffffffffffffffffffffffffffffffffffffffff1673ffffffffffffffffffffffffffffffffffffffff1681526020019081526020016000208190555081600260008573ffffffffffffffffffffffffffffffffffffffff1673ffffffffffffffffffffffffffffffffffffffff16815260200190815260200160002060008282546114b99190612e2c565b925050819055508273ffffffffffffffffffffffffffffffffffffffff168473ffffffffffffffffffffffffffffffffffffffff167fddf252ad1be2c89b69c2b068fc378daa952ba7f163c4a11628f55a4df523b3ef8460405161151d9190612dcf565b60405180910390a350505050565b61153482610863565b611545816115406110d6565b611bb8565b61154f83836119ee565b505050565b61155c6110d6565b73ffffffffffffffffffffffffffffffffffffffff168173ffffffffffffffffffffffffffffffffffffffff16146115c9576040517f08c379a00000000000000000000000000000000000000000000000000000000081526004016115c090612d6f565b60405180910390fd5b6115d38282611c55565b5050565b60006115ff836000018373ffffffffffffffffffffffffffffffffffffffff1660001b611d36565b905092915050565b61160f610b55565b61164e576040517f08c379a000000000000000000000000000000000000000000000000000000000815260040161164590612b6f565b60405180910390fd5b6000600760006101000a81548160ff0219169083151502179055507f5db9ee0a495bf2e6ff9c91a7834c1ba4fdd244a5e8aa4e537bd38aeae4b073aa6116926110d6565b60405161169f9190612a9c565b60405180910390a1565b6116b16108bf565b816116ba610758565b6116c49190612e2c565b1115611705576040517f08c379a00000000000000000000000000000000000000000000000000000000081526004016116fc90612ccf565b60405180910390fd5b61170f8282611eb4565b5050565b600073ffffffffffffffffffffffffffffffffffffffff168273ffffffffffffffffffffffffffffffffffffffff161415611783576040517f08c379a000000000000000000000000000000000000000000000000000000000815260040161177a90612c8f565b60405180910390fd5b61178f82600083611ba8565b6000600260008473ffffffffffffffffffffffffffffffffffffffff1673ffffffffffffffffffffffffffffffffffffffff16815260200190815260200160002054905081811015611816576040517f08c379a000000000000000000000000000000000000000000000000000000000815260040161180d90612b8f565b60405180910390fd5b81816118229190612edc565b600260008573ffffffffffffffffffffffffffffffffffffffff1673ffffffffffffffffffffffffffffffffffffffff1681526020019081526020016000208190555081600460008282546118779190612edc565b92505081905550600073ffffffffffffffffffffffffffffffffffffffff168373ffffffffffffffffffffffffffffffffffffffff167fddf252ad1be2c89b69c2b068fc378daa952ba7f163c4a11628f55a4df523b3ef846040516118dc9190612dcf565b60405180910390a3505050565b8060088190555050565b6118fb610b55565b1561193b576040517f08c379a000000000000000000000000000000000000000000000000000000000815260040161193290612c0f565b60405180910390fd5b6001600760006101000a81548160ff0219169083151502179055507f62e78cea01bee320cd4e420270b5ea74000d11b0c9f74754ebdbfc544b05a25861197f6110d6565b60405161198c9190612a9c565b60405180910390a1565b60006119a58360000183612009565b60001c905092915050565b60006119be826000016120a3565b9050919050565b6119ce82610863565b6119df816119da6110d6565b611bb8565b6119e98383611c55565b505050565b6119f88282610ce2565b611aca57600160008084815260200190815260200160002060000160008373ffffffffffffffffffffffffffffffffffffffff1673ffffffffffffffffffffffffffffffffffffffff16815260200190815260200160002060006101000a81548160ff021916908315150217905550611a6f6110d6565b73ffffffffffffffffffffffffffffffffffffffff168173ffffffffffffffffffffffffffffffffffffffff16837f2f8788117e7eff1d82e926ec794901d17c78024a50270940304540a733656f0d60405160405180910390a45b5050565b6000611ada83836120b4565b611b33578260000182908060018154018082558091505060019003906000526020600020016000909190919091505582600001805490508360010160008481526020019081526020016000208190555060019050611b38565b600090505b92915050565b60007f01ffc9a7000000000000000000000000000000000000000000000000000000007bffffffffffffffffffffffffffffffffffffffffffffffffffffffff1916827bffffffffffffffffffffffffffffffffffffffffffffffffffffffff1916149050919050565b611bb38383836120d7565b505050565b611bc28282610ce2565b611c5157611be78173ffffffffffffffffffffffffffffffffffffffff16601461212f565b611bf58360001c602061212f565b604051602001611c06929190612a62565b6040516020818303038152906040526040517f08c379a0000000000000000000000000000000000000000000000000000000008152600401611c489190612aed565b60405180910390fd5b5050565b611c5f8282610ce2565b15611d3257600080600084815260200190815260200160002060000160008373ffffffffffffffffffffffffffffffffffffffff1673ffffffffffffffffffffffffffffffffffffffff16815260200190815260200160002060006101000a81548160ff021916908315150217905550611cd76110d6565b73ffffffffffffffffffffffffffffffffffffffff168173ffffffffffffffffffffffffffffffffffffffff16837ff6391f5c32d9c69d2a47ea670b442974b53935d1edc7fd64eb21e047a839171b60405160405180910390a45b5050565b60008083600101600084815260200190815260200160002054905060008114611ea8576000600182611d689190612edc565b9050600060018660000180549050611d809190612edc565b90506000866000018281548110611dc0577f4e487b7100000000000000000000000000000000000000000000000000000000600052603260045260246000fd5b9060005260206000200154905080876000018481548110611e0a577f4e487b7100000000000000000000000000000000000000000000000000000000600052603260045260246000fd5b9060005260206000200181905550838760010160008381526020019081526020016000208190555086600001805480611e6c577f4e487b7100000000000000000000000000000000000000000000000000000000600052603160045260246000fd5b60019003818190600052602060002001600090559055866001016000878152602001908152602001600020600090556001945050505050611eae565b60009150505b92915050565b600073ffffffffffffffffffffffffffffffffffffffff168273ffffffffffffffffffffffffffffffffffffffff161415611f24576040517f08c379a0000000000000000000000000000000000000000000000000000000008152600401611f1b90612d8f565b60405180910390fd5b611f3060008383611ba8565b8060046000828254611f429190612e2c565b9250508190555080600260008473ffffffffffffffffffffffffffffffffffffffff1673ffffffffffffffffffffffffffffffffffffffff1681526020019081526020016000206000828254611f989190612e2c565b925050819055508173ffffffffffffffffffffffffffffffffffffffff16600073ffffffffffffffffffffffffffffffffffffffff167fddf252ad1be2c89b69c2b068fc378daa952ba7f163c4a11628f55a4df523b3ef83604051611ffd9190612dcf565b60405180910390a35050565b600081836000018054905011612054576040517f08c379a000000000000000000000000000000000000000000000000000000000815260040161204b90612b0f565b60405180910390fd5b826000018281548110612090577f4e487b7100000000000000000000000000000000000000000000000000000000600052603260045260246000fd5b9060005260206000200154905092915050565b600081600001805490509050919050565b600080836001016000848152602001908152602001600020541415905092915050565b6120e2838383612429565b6120ea610b55565b1561212a576040517f08c379a000000000000000000000000000000000000000000000000000000000815260040161212190612daf565b60405180910390fd5b505050565b6060600060028360026121429190612e82565b61214c9190612e2c565b67ffffffffffffffff81111561218b577f4e487b7100000000000000000000000000000000000000000000000000000000600052604160045260246000fd5b6040519080825280601f01601f1916602001820160405280156121bd5781602001600182028036833780820191505090505b5090507f30000000000000000000000000000000000000000000000000000000000000008160008151811061221b577f4e487b7100000000000000000000000000000000000000000000000000000000600052603260045260246000fd5b60200101907effffffffffffffffffffffffffffffffffffffffffffffffffffffffffffff1916908160001a9053507f7800000000000000000000000000000000000000000000000000000000000000816001815181106122a5577f4e487b7100000000000000000000000000000000000000000000000000000000600052603260045260246000fd5b60200101907effffffffffffffffffffffffffffffffffffffffffffffffffffffffffffff1916908160001a905350600060018460026122e59190612e82565b6122ef9190612e2c565b90505b60018111156123db577f3031323334353637383961626364656600000000000000000000000000000000600f861660108110612357577f4e487b7100000000000000000000000000000000000000000000000000000000600052603260045260246000fd5b1a60f81b828281518110612394577f4e487b7100000000000000000000000000000000000000000000000000000000600052603260045260246000fd5b60200101907effffffffffffffffffffffffffffffffffffffffffffffffffffffffffffff1916908160001a905350600485901c9450806123d490612fce565b90506122f2565b506000841461241f576040517f08c379a000000000000000000000000000000000000000000000000000000000815260040161241690612b2f565b60405180910390fd5b8091505092915050565b505050565b60008135905061243d816136d1565b92915050565b600081359050612452816136e8565b92915050565b600081359050612467816136ff565b92915050565b60008135905061247c81613716565b92915050565b60006020828403121561249457600080fd5b60006124a28482850161242e565b91505092915050565b600080604083850312156124be57600080fd5b60006124cc8582860161242e565b92505060206124dd8582860161242e565b9150509250929050565b6000806000606084860312156124fc57600080fd5b600061250a8682870161242e565b935050602061251b8682870161242e565b925050604061252c8682870161246d565b9150509250925092565b6000806040838503121561254957600080fd5b60006125578582860161242e565b92505060206125688582860161246d565b9150509250929050565b60006020828403121561258457600080fd5b600061259284828501612443565b91505092915050565b600080604083850312156125ae57600080fd5b60006125bc85828601612443565b92505060206125cd8582860161242e565b9150509250929050565b600080604083850312156125ea57600080fd5b60006125f885828601612443565b92505060206126098582860161246d565b9150509250929050565b60006020828403121561262557600080fd5b600061263384828501612458565b91505092915050565b60006020828403121561264e57600080fd5b600061265c8482850161246d565b91505092915050565b61266e81612f10565b82525050565b61267d81612f22565b82525050565b61268c81612f2e565b82525050565b600061269d82612e05565b6126a78185612e10565b93506126b7818560208601612f9b565b6126c081613088565b840191505092915050565b60006126d682612e05565b6126e08185612e21565b93506126f0818560208601612f9b565b80840191505092915050565b6000612709602283612e10565b915061271482613099565b604082019050919050565b600061272c602083612e10565b9150612737826130e8565b602082019050919050565b600061274f602383612e10565b915061275a82613111565b604082019050919050565b6000612772601483612e10565b915061277d82613160565b602082019050919050565b6000612795602283612e10565b91506127a082613189565b604082019050919050565b60006127b8603983612e10565b91506127c3826131d8565b604082019050919050565b60006127db602283612e10565b91506127e682613227565b604082019050919050565b60006127fe602683612e10565b915061280982613276565b604082019050919050565b6000612821601083612e10565b915061282c826132c5565b602082019050919050565b6000612844602883612e10565b915061284f826132ee565b604082019050919050565b6000612867603683612e10565b91506128728261333d565b604082019050919050565b600061288a602483612e10565b91506128958261338c565b604082019050919050565b60006128ad602183612e10565b91506128b8826133db565b604082019050919050565b60006128d0602583612e10565b91506128db8261342a565b604082019050919050565b60006128f3601983612e10565b91506128fe82613479565b602082019050919050565b6000612916602483612e10565b9150612921826134a2565b604082019050919050565b6000612939603783612e10565b9150612944826134f1565b604082019050919050565b600061295c601783612e21565b915061296782613540565b601782019050919050565b600061297f602083612e10565b915061298a82613569565b602082019050919050565b60006129a2602583612e10565b91506129ad82613592565b604082019050919050565b60006129c5601183612e21565b91506129d0826135e1565b601182019050919050565b60006129e8602f83612e10565b91506129f38261360a565b604082019050919050565b6000612a0b601f83612e10565b9150612a1682613659565b602082019050919050565b6000612a2e602a83612e10565b9150612a3982613682565b604082019050919050565b612a4d81612f84565b82525050565b612a5c81612f8e565b82525050565b6000612a6d8261294f565b9150612a7982856126cb565b9150612a84826129b8565b9150612a9082846126cb565b91508190509392505050565b6000602082019050612ab16000830184612665565b92915050565b6000602082019050612acc6000830184612674565b92915050565b6000602082019050612ae76000830184612683565b92915050565b60006020820190508181036000830152612b078184612692565b905092915050565b60006020820190508181036000830152612b28816126fc565b9050919050565b60006020820190508181036000830152612b488161271f565b9050919050565b60006020820190508181036000830152612b6881612742565b9050919050565b60006020820190508181036000830152612b8881612765565b9050919050565b60006020820190508181036000830152612ba881612788565b9050919050565b60006020820190508181036000830152612bc8816127ab565b9050919050565b60006020820190508181036000830152612be8816127ce565b9050919050565b60006020820190508181036000830152612c08816127f1565b9050919050565b60006020820190508181036000830152612c2881612814565b9050919050565b60006020820190508181036000830152612c4881612837565b9050919050565b60006020820190508181036000830152612c688161285a565b9050919050565b60006020820190508181036000830152612c888161287d565b9050919050565b60006020820190508181036000830152612ca8816128a0565b9050919050565b60006020820190508181036000830152612cc8816128c3565b9050919050565b60006020820190508181036000830152612ce8816128e6565b9050919050565b60006020820190508181036000830152612d0881612909565b9050919050565b60006020820190508181036000830152612d288161292c565b9050919050565b60006020820190508181036000830152612d4881612972565b9050919050565b60006020820190508181036000830152612d6881612995565b9050919050565b60006020820190508181036000830152612d88816129db565b9050919050565b60006020820190508181036000830152612da8816129fe565b9050919050565b60006020820190508181036000830152612dc881612a21565b9050919050565b6000602082019050612de46000830184612a44565b92915050565b6000602082019050612dff6000830184612a53565b92915050565b600081519050919050565b600082825260208201905092915050565b600081905092915050565b6000612e3782612f84565b9150612e4283612f84565b9250827fffffffffffffffffffffffffffffffffffffffffffffffffffffffffffffffff03821115612e7757612e7661302a565b5b828201905092915050565b6000612e8d82612f84565b9150612e9883612f84565b9250817fffffffffffffffffffffffffffffffffffffffffffffffffffffffffffffffff0483118215151615612ed157612ed061302a565b5b828202905092915050565b6000612ee782612f84565b9150612ef283612f84565b925082821015612f0557612f0461302a565b5b828203905092915050565b6000612f1b82612f64565b9050919050565b60008115159050919050565b6000819050919050565b60007fffffffff0000000000000000000000000000000000000000000000000000000082169050919050565b600073ffffffffffffffffffffffffffffffffffffffff82169050919050565b6000819050919050565b600060ff82169050919050565b60005b83811015612fb9578082015181840152602081019050612f9e565b83811115612fc8576000848401525b50505050565b6000612fd982612f84565b91506000821415612fed57612fec61302a565b5b600182039050919050565b6000600282049050600182168061301057607f821691505b6020821081141561302457613023613059565b5b50919050565b7f4e487b7100000000000000000000000000000000000000000000000000000000600052601160045260246000fd5b7f4e487b7100000000000000000000000000000000000000000000000000000000600052602260045260246000fd5b6000601f19601f8301169050919050565b7f456e756d657261626c655365743a20696e646578206f7574206f6620626f756e60008201527f6473000000000000000000000000000000000000000000000000000000000000602082015250565b7f537472696e67733a20686578206c656e67746820696e73756666696369656e74600082015250565b7f45524332303a207472616e7366657220746f20746865207a65726f206164647260008201527f6573730000000000000000000000000000000000000000000000000000000000602082015250565b7f5061757361626c653a206e6f7420706175736564000000000000000000000000600082015250565b7f45524332303a206275726e20616d6f756e7420657863656564732062616c616e60008201527f6365000000000000000000000000000000000000000000000000000000000000602082015250565b7f45524332305072657365744d696e7465725061757365723a206d75737420686160008201527f76652070617573657220726f6c6520746f20756e706175736500000000000000602082015250565b7f45524332303a20617070726f766520746f20746865207a65726f20616464726560008201527f7373000000000000000000000000000000000000000000000000000000000000602082015250565b7f45524332303a207472616e7366657220616d6f756e742065786365656473206260008201527f616c616e63650000000000000000000000000000000000000000000000000000602082015250565b7f5061757361626c653a2070617573656400000000000000000000000000000000600082015250565b7f45524332303a207472616e7366657220616d6f756e742065786365656473206160008201527f6c6c6f77616e6365000000000000000000000000000000000000000000000000602082015250565b7f45524332305072657365744d696e7465725061757365723a206d75737420686160008201527f7665206d696e74657220726f6c6520746f206d696e7400000000000000000000602082015250565b7f45524332303a206275726e20616d6f756e74206578636565647320616c6c6f7760008201527f616e636500000000000000000000000000000000000000000000000000000000602082015250565b7f45524332303a206275726e2066726f6d20746865207a65726f2061646472657360008201527f7300000000000000000000000000000000000000000000000000000000000000602082015250565b7f45524332303a207472616e736665722066726f6d20746865207a65726f20616460008201527f6472657373000000000000000000000000000000000000000000000000000000602082015250565b7f45524332304361707065643a2063617020657863656564656400000000000000600082015250565b7f45524332303a20617070726f76652066726f6d20746865207a65726f2061646460008201527f7265737300000000000000000000000000000000000000000000000000000000602082015250565b7f45524332305072657365744d696e7465725061757365723a206d75737420686160008201527f76652070617573657220726f6c6520746f207061757365000000000000000000602082015250565b7f416363657373436f6e74726f6c3a206163636f756e7420000000000000000000600082015250565b7f45524332304361707065643a2068617665206361702061646d696e20726f6c65600082015250565b7f45524332303a2064656372656173656420616c6c6f77616e63652062656c6f7760008201527f207a65726f000000000000000000000000000000000000000000000000000000602082015250565b7f206973206d697373696e6720726f6c6520000000000000000000000000000000600082015250565b7f416363657373436f6e74726f6c3a2063616e206f6e6c792072656e6f756e636560008201527f20726f6c657320666f722073656c660000000000000000000000000000000000602082015250565b7f45524332303a206d696e7420746f20746865207a65726f206164647265737300600082015250565b7f45524332305061757361626c653a20746f6b656e207472616e7366657220776860008201527f696c652070617573656400000000000000000000000000000000000000000000602082015250565b6136da81612f10565b81146136e557600080fd5b50565b6136f181612f2e565b81146136fc57600080fd5b50565b61370881612f38565b811461371357600080fd5b50565b61371f81612f84565b811461372a57600080fd5b5056fea2646970667358221220c267cdbe29361ed8c7e4c1b07cb662af5952869cce6eebf8932053deae2f775d64736f6c63430008040033",
  "immutableReferences": {},
  "source": "pragma solidity ^0.8.0;\n\nimport \"../node_modules/@openzeppelin/contracts/token/ERC20/ERC20.sol\";\nimport \"../node_modules/@openzeppelin/contracts/token/ERC20/extensions/ERC20Burnable.sol\";\nimport \"../node_modules/@openzeppelin/contracts/token/ERC20/extensions/ERC20Pausable.sol\";\nimport \"../node_modules/@openzeppelin/contracts/access/AccessControlEnumerable.sol\";\nimport \"../node_modules/@openzeppelin/contracts/utils/Context.sol\";\n\n/**\n * @dev {ERC20} token, including:\n *\n *  - ability for holders to burn (destroy) their tokens\n *  - a minter role that allows for token minting (creation)\n *  - a pauser role that allows to stop all token transfers\n *\n * This contract uses {AccessControl} to lock permissioned functions using the\n * different roles - head to its documentation for details.\n *\n * The account that deploys the contract will be granted the minter and pauser\n * roles, as well as the default admin role, which will let it grant both minter\n * and pauser roles to other accounts.\n */\ncontract MyToken is Context, AccessControlEnumerable, ERC20Burnable, ERC20Pausable {\n    bytes32 public constant MINTER_ROLE = keccak256(\"MINTER_ROLE\");\n    bytes32 public constant PAUSER_ROLE = keccak256(\"PAUSER_ROLE\");\n    bytes32 public constant CAP_ADMIN_ROLE = keccak256(\"CAP_ADMIN_ROLE\");\n\n    uint256 private _cap; \n\n    /**\n     * @dev Grants `DEFAULT_ADMIN_ROLE`, `MINTER_ROLE`, `PAUSER_ROLE` and\n     * 'CAP_ADMIN' to the account that deploys the contract.\n     *\n     * See {ERC20-constructor}.\n     */\n    /**\n     * @dev Sets the value of the `cap`. This value is immutable, it can only be\n     * set once during construction.\n     * Note: ERC20Capped.sol constructor code was copied & pasted into MyToken constructor.\n     */\n    constructor(string memory name, string memory symbol, uint256 cap_) ERC20(name, symbol) {\n        require(cap_ > 0, \"ERC20Capped: cap is 0\");\n        _cap = cap_;\n\n        _setupRole(DEFAULT_ADMIN_ROLE, _msgSender());\n\n        _setupRole(MINTER_ROLE, _msgSender());\n        _setupRole(PAUSER_ROLE, _msgSender());\n        _setupRole(CAP_ADMIN_ROLE, _msgSender());\n    }\n\n    /**\n     * @dev Creates `amount` new tokens for `to`.\n     *\n     * See {ERC20-_mint}.\n     *\n     * Requirements:\n     *\n     * - the caller must have the `MINTER_ROLE`.\n     */\n    function mint(address to, uint256 amount) public virtual {\n        require(hasRole(MINTER_ROLE, _msgSender()), \"ERC20PresetMinterPauser: must have minter role to mint\");\n        _mint(to, amount);\n    }\n\n    /**\n     * @dev Pauses all token transfers.\n     *\n     * See {ERC20Pausable} and {Pausable-_pause}.\n     *\n     * Requirements:\n     *\n     * - the caller must have the `PAUSER_ROLE`.\n     */\n    function pause() public virtual {\n        require(hasRole(PAUSER_ROLE, _msgSender()), \"ERC20PresetMinterPauser: must have pauser role to pause\");\n        _pause();\n    }\n\n    /**\n     * @dev Unpauses all token transfers.\n     *\n     * See {ERC20Pausable} and {Pausable-_unpause}.\n     *\n     * Requirements:\n     *\n     * - the caller must have the `PAUSER_ROLE`.\n     */\n    function unpause() public virtual {\n        require(hasRole(PAUSER_ROLE, _msgSender()), \"ERC20PresetMinterPauser: must have pauser role to unpause\");\n        _unpause();\n    }\n\n    function _beforeTokenTransfer(address from, address to, uint256 amount) internal virtual override(ERC20, ERC20Pausable) {\n        super._beforeTokenTransfer(from, to, amount);\n    }\n\n    /**\n     * @dev Returns the cap on the token's total supply.\n     */\n    function cap() public view virtual returns (uint256) {\n        return _cap;\n    }\n\n    /**\n     * @dev Changes the contract's token cap.\n     * \n     * Requirements:\n     *\n     * - the caller must have the `CAP_ADMIN_ROLE`.\n     */\n    function setCap(uint256 newCap) public virtual {\n        require(hasRole(CAP_ADMIN_ROLE, _msgSender()), \"ERC20Capped: have cap admin role\");\n        _setCap(newCap);\n    }\n\n    function _setCap(uint256 newCap) internal virtual {\n        _cap = newCap;\n    }\n\n    /**\n     * @dev See {ERC20-_mint}.\n     */\n    function _mint(address account, uint256 amount) internal virtual override {\n        require(ERC20.totalSupply() + amount <= cap(), \"ERC20Capped: cap exceeded\");\n        super._mint(account, amount);\n    }\n}\n",
  "sourcePath": "/Users/Mark/Documents/BlockChain/IvanOnTechAcademy/Solidity - Smart Contract Programming 201/OpenZeppelin Assignment/contracts/MyToken.sol",
  "compiler": {
    "name": "solc",
    "version": "0.8.4+commit.c7e474f2.Emscripten.clang"
  },
  "schemaVersion": "3.4.0",
  "updatedAt": "2021-05-01T10:38:21.796Z",
  "networkType": "ethereum",
  "devdoc": {
    "details": "{ERC20} token, including:  - ability for holders to burn (destroy) their tokens  - a minter role that allows for token minting (creation)  - a pauser role that allows to stop all token transfers This contract uses {AccessControl} to lock permissioned functions using the different roles - head to its documentation for details. The account that deploys the contract will be granted the minter and pauser roles, as well as the default admin role, which will let it grant both minter and pauser roles to other accounts.",
    "kind": "dev",
    "methods": {
      "allowance(address,address)": {
        "details": "See {IERC20-allowance}."
      },
      "approve(address,uint256)": {
        "details": "See {IERC20-approve}. Requirements: - `spender` cannot be the zero address."
      },
      "balanceOf(address)": {
        "details": "See {IERC20-balanceOf}."
      },
      "burn(uint256)": {
        "details": "Destroys `amount` tokens from the caller. See {ERC20-_burn}."
      },
      "burnFrom(address,uint256)": {
        "details": "Destroys `amount` tokens from `account`, deducting from the caller's allowance. See {ERC20-_burn} and {ERC20-allowance}. Requirements: - the caller must have allowance for ``accounts``'s tokens of at least `amount`."
      },
      "cap()": {
        "details": "Returns the cap on the token's total supply."
      },
      "constructor": {
        "details": "Sets the value of the `cap`. This value is immutable, it can only be set once during construction. Note: ERC20Capped.sol constructor code was copied & pasted into MyToken constructor."
      },
      "decimals()": {
        "details": "Returns the number of decimals used to get its user representation. For example, if `decimals` equals `2`, a balance of `505` tokens should be displayed to a user as `5,05` (`505 / 10 ** 2`). Tokens usually opt for a value of 18, imitating the relationship between Ether and Wei. This is the value {ERC20} uses, unless this function is overridden; NOTE: This information is only used for _display_ purposes: it in no way affects any of the arithmetic of the contract, including {IERC20-balanceOf} and {IERC20-transfer}."
      },
      "decreaseAllowance(address,uint256)": {
        "details": "Atomically decreases the allowance granted to `spender` by the caller. This is an alternative to {approve} that can be used as a mitigation for problems described in {IERC20-approve}. Emits an {Approval} event indicating the updated allowance. Requirements: - `spender` cannot be the zero address. - `spender` must have allowance for the caller of at least `subtractedValue`."
      },
      "getRoleAdmin(bytes32)": {
        "details": "Returns the admin role that controls `role`. See {grantRole} and {revokeRole}. To change a role's admin, use {_setRoleAdmin}."
      },
      "getRoleMember(bytes32,uint256)": {
        "details": "Returns one of the accounts that have `role`. `index` must be a value between 0 and {getRoleMemberCount}, non-inclusive. Role bearers are not sorted in any particular way, and their ordering may change at any point. WARNING: When using {getRoleMember} and {getRoleMemberCount}, make sure you perform all queries on the same block. See the following https://forum.openzeppelin.com/t/iterating-over-elements-on-enumerableset-in-openzeppelin-contracts/2296[forum post] for more information."
      },
      "getRoleMemberCount(bytes32)": {
        "details": "Returns the number of accounts that have `role`. Can be used together with {getRoleMember} to enumerate all bearers of a role."
      },
      "grantRole(bytes32,address)": {
        "details": "Overload {grantRole} to track enumerable memberships"
      },
      "hasRole(bytes32,address)": {
        "details": "Returns `true` if `account` has been granted `role`."
      },
      "increaseAllowance(address,uint256)": {
        "details": "Atomically increases the allowance granted to `spender` by the caller. This is an alternative to {approve} that can be used as a mitigation for problems described in {IERC20-approve}. Emits an {Approval} event indicating the updated allowance. Requirements: - `spender` cannot be the zero address."
      },
      "mint(address,uint256)": {
        "details": "Creates `amount` new tokens for `to`. See {ERC20-_mint}. Requirements: - the caller must have the `MINTER_ROLE`."
      },
      "name()": {
        "details": "Returns the name of the token."
      },
      "pause()": {
        "details": "Pauses all token transfers. See {ERC20Pausable} and {Pausable-_pause}. Requirements: - the caller must have the `PAUSER_ROLE`."
      },
      "paused()": {
        "details": "Returns true if the contract is paused, and false otherwise."
      },
      "renounceRole(bytes32,address)": {
        "details": "Overload {renounceRole} to track enumerable memberships"
      },
      "revokeRole(bytes32,address)": {
        "details": "Overload {revokeRole} to track enumerable memberships"
      },
      "setCap(uint256)": {
        "details": "Changes the contract's token cap.  Requirements: - the caller must have the `CAP_ADMIN_ROLE`."
      },
      "supportsInterface(bytes4)": {
        "details": "See {IERC165-supportsInterface}."
      },
      "symbol()": {
        "details": "Returns the symbol of the token, usually a shorter version of the name."
      },
      "totalSupply()": {
        "details": "See {IERC20-totalSupply}."
      },
      "transfer(address,uint256)": {
        "details": "See {IERC20-transfer}. Requirements: - `recipient` cannot be the zero address. - the caller must have a balance of at least `amount`."
      },
      "transferFrom(address,address,uint256)": {
        "details": "See {IERC20-transferFrom}. Emits an {Approval} event indicating the updated allowance. This is not required by the EIP. See the note at the beginning of {ERC20}. Requirements: - `sender` and `recipient` cannot be the zero address. - `sender` must have a balance of at least `amount`. - the caller must have allowance for ``sender``'s tokens of at least `amount`."
      },
      "unpause()": {
        "details": "Unpauses all token transfers. See {ERC20Pausable} and {Pausable-_unpause}. Requirements: - the caller must have the `PAUSER_ROLE`."
      }
    },
    "version": 1
  },
  "userdoc": {
    "kind": "user",
    "methods": {},
    "version": 1
  }
}